:100000000C949E030C94E5030C94E5030C94E50317
:100010000C94E5030C94E5030C94E5030C94E503C0
:100020000C94E5030C94E5030C94E5030C946E2406
:100030000C942A240C9425260C94E5030C94E503D7
:100040000C94E5030C94E5030C94E5030C94D8257B
:100050000C94E5030C94E5030C94E5030C94E50380
:100060000C94E5030C94E5030C94E5030C94E50370
:100070000C94E503A009A009D809D8096B0A870ADE
:100080005E0C5E0C940A710B800B800BE311FD116A
:1000900004123C124D1258126412731255137B1243
:1000A000A212B412CA12CD12A91CA91CBB1CBB1CE3
:1000B000B21CBB1CBB1CBB1CA91CA91CB71CBB1CB9
:1000C000BB1CB71C36225D220C245D220C24A92205
:1000D000CC220C24C923D923010001006E020000A8
:1000E000020002006A020000030001006F0200002B
:1000F000040002005402782905000100700200008B
:100100000600020056020000070002006C02000018
:100110000800010071020000090002005802532982
:100120000A0002005A0253290B0002005C02532904
:100130000C0002005E0253290D00020060025329E8
:100140000E000200620253290F00020064025329CC
:1001500010000200660253291100020068025329B0
:10016000120002007202000013000200740200007C
:10017000FD377A585A000004E6D6B4460200210141
:1001800016000000742FE5A3E003B901535D003DA4
:100190008889C65436C3174FE4E2A55FD4C306610D
:1001A0008E4F31F6309B7803B47CED1A4B0F3B92A7
:1001B000A543E464379D3F069481C189C55110670A
:1001C0006424FA271D2EFC498D137A9B8600FCC1FE
:1001D000B2178F5D67AA4630ED7769C9416AD6E2EA
:1001E0007D5CD8E08D50947E1C516A0488127404A2
:1001F0003CA18A8A26D84CF82D27B8FD2782FC62BC
:10020000873255EE396B155C173D5FCDAF7D8C8F16
:10021000F456DBACFE00D56C08089154AB07DF2A1E
:10022000AB70666B9CEC2941752D7D8DE883F5ECF8
:1002300069E75B20D5D7239B27558F1EB771E34510
:1002400024D93731FD85CEDD87743AE35D99864B3D
:10025000E42530A9216CD880B0436A6DDCC895D7FD
:10026000980924622AF79D28E88B4167C0F978A392
:100270001240CCE7909D6F1179955782105664B764
:1002800018090F9052B2D8A9858708ECCCEF1D3B16
:10029000B9BF7A59628032010511FF9D85395E3EF2
:1002A000EE694796A93DE36650522782635F687006
:1002B00068DDECCDE54A819B7B71BB2EF28D9D30D4
:1002C000D415E98DB732C7DA415365E9D6E49DC745
:1002D000F6F07E6308B58637CB3EF2CD752C14B6AA
:1002E00063B700001A4EBDF7B017BCE70001EF027C
:1002F000BA07000091960729B1C467FB020000000D
:100300000004595A00000000000000000000000036
:1003100000000000000000000000000000000000DD
:1003200000000000000000007E0F00D4FFFFFFC7A8
:100330000000007800000000000000002A2B2800C8
:100340000000000000000000000000000000002984
:10035000000000002C1E3420212224342627252EC4
:10036000362D3738271E1F202122232425263333FC
:10037000362E37381F0405060708090A0B0C0D0E28
:100380000F101112131415161718191A1B1C1D2FF4
:100390003130232D350405060708090A0B0C0D0E14
:1003A0000F101112131415161718191A1B1C1D2FD4
:1003B0003130354C05010902A10185020901A10076
:1003C0000509190129051500250195057501810209
:1003D0009501750381010501093009311581257FDA
:1003E00095027508810609381581257F95017508E4
:1003F0008106050C0A38021581257F950175088153
:1004000006C0C005010980A101850319012AB700B2
:10041000150126B700950175108100C0050C090172
:10042000A101850419012AA002150126A002950147
:1004300075108100C005010906A101850505071990
:10044000E029E715002501950875018102050719C6
:100450000029EF1500250195F075018102050819A5
:10046000012905950575019102950175039101C05A
:100470000660FF0961A1010962150026FF009520B1
:10048000750881020963150026FF00952075089103
:1004900002C005010906A101050719E029E71500B9
:1004A00025019508750181029501750881010507EF
:1004B000190029FF150026FF009506750881000523
:1004C000081901290595057501910295017503919A
:1004D00001C009025B00030100A0FA090400000149
:1004E00003010100092111010001224000070581DB
:1004F0000308000A09040100020300000009211199
:1005000001000122220007058203200001070503E4
:100510000320000109040200010300000009211169
:1005200001000122BC000705840320000A1201100B
:1005300001000000086B72626D0100010203011CE2
:10054000037600690061006C003A006600360034F2
:100550000063003200620033006300000012034DAC
:100560000069006E0069006200610065006E0000B5
:100570000014037200610069006E006B0065006585
:100580000062007300000004030904AA00A900012E
:100590000001000100010001000100290014001AFF
:1005A0000008001500170021001C0018000C0012A4
:1005B0000013002A002B0004001600070009000A9F
:1005C0000022000B000D000E000F0033002800E198
:1005D000001D001B0006001900050023001100107B
:1005E00000360037003800E500E000E200E3001EBE
:1005F000001F0020002C00240025002600E700E654
:1006000000E40001000100010001000100010001FF
:1006100000010001000100010001000100010001D2
:1006200000010001000100010001000100010001C2
:1006300000010001000100010001000100010001B2
:1006400000010001000100010001000100010001A2
:100650000001000100010001000100010001000192
:100660000001000100010001000100010001000182
:100670000001000100010001000100010001000172
:100680000001000100010001000100010001000162
:100690000001000100010001000100010001000152
:1006A0000001000100010001000100010001000142
:1006B0000001000100010001000100010001000132
:1006C0000001000100010001000100010001000122
:1006D0000001000100010001000100010001000112
:1006E0000001000100010001000100010001000102
:1006F00000010001000100010001000100010001F2
:1007000000010001000100010001000100010001E1
:1007100000010001000100010001000100010001D1
:1007200000010001000100010001000100010001C1
:1007300000010001000100010001000011241FBEA2
:10074000CFEFD4E0DEBFCDBF04B603FE27C080915B
:10075000AE039091AF03A091B003B091B103873085
:10076000904BA740B04BD1F41092AE031092AF0360
:100770001092B0031092B10314BE84B7877F84BF78
:100780000FB6F894A895809160008861809360000E
:10079000109260000FBEE0E0F8E3099511E0A0E0E0
:1007A000B1E0EEE2FEE502C005900D92A438B1077B
:1007B000D9F723E0A4E8B1E001C01D92AE3AB20738
:1007C000E1F70E94D20C0C94152F0C9400003F927C
:1007D0004F925F926F927F928F929F92AF92BF9251
:1007E000CF92DF92EF92FF920F931F93CF93DF93FD
:1007F000CDB7DEB764970FB6F894DEBF0FBECDBF9E
:100800007C01DC0113964D915C91149711966C91CB
:1008100011978C910E943A2981110C94BA0C21E015
:10082000F701408151816281738184810E944F1A56
:100830008C01D70112968C91811105C0F70122819C
:10084000211140C0BCC0809100018F3FB9F3A8E8DE
:10085000CA2EA1E0DA2EA12CB12C99249394809178
:100860000001082E000C990B8A159B053CF3D6015C
:1008700016968C9116978823F1F019968D919C917C
:100880001A970817190739F480918601909187010A
:100890000817190781F0F601978614870387818965
:1008A000811103C0C6010E94252AC60106960E9436
:1008B000462A10929A03FFEFAF1ABF0A26E1C20E32
:1008C000D11CCDCFC80182519F45409708F090C000
:1008D0008FEF93E00E946C2E81117BC0FEEEDF2E25
:1008E000D00E09E912E0DD2071F0011544E0140793
:1008F00009F46FC0C8010E946C2E811101C0DA9406
:100900000F5F1F4FF0CF19821A821B821C82680171
:100910005FEFC51AD50AC8010E946C2E89831A821E
:10092000882309F456C0813009F044C0580182E0A0
:10093000A80EB11CC6010E946C2E8A83882309F47C
:1009400048C09FEF980F933060F4680193E0C90EA0
:10095000D11CC5010E946C2E8B8381112BC0860196
:10096000D6CF843011F06501FACFC5010E946C2EFC
:10097000B82E6801A4E0CA0ED11CC80103960E94DB
:100980006C2EBB2031F1882321F190E001976FEFAD
:1009900070E00E94BF2E2B2D30E021503109820FD4
:1009A000931F0197E0F2EFE9FFE03197F1F700C004
:1009B0000000F7CFCE0101960E94A219D0CF0031DE
:1009C0005FE5150709F03CC481E00E9493280E946E
:1009D000A22080919703877009F4CCC7D7011296A3
:1009E0008C91882309F4C6C782E00E94B828C2C748
:1009F0000031FFE51F0711F481E005C001314FE52B
:100A0000140721F482E00E94D528E1CF5801B7E510
:100A1000BB1AEFEFAE16B10411F008F05CC0809184
:100A20000001082E000C990B8A159B0514F4A09266
:100A30000001C50166E170E00E94BF2E4C01AC01CF
:100A400048575E4F6A01DA0150962C935097F70190
:100A5000828116969C911697882371F11A961C93A1
:100A60000E9319979F5F16969C930E941926D601A4
:100A70001E969C938E931D9780919D0317968C9341
:100A8000179790919A0380919903892B18968C93CC
:100A90001897ED91FC911197940122573E4F309792
:100AA00031F054966D917C915597C9010995109339
:100AB0008701009386010FC09923D1F0FA01818943
:100AC0008823B1F0C50166E170E00E94BF2E825715
:100AD0009E4F0E94462A073FFCE51F0749F4D701B5
:100AE00012968C91882321F181E08093010141C10C
:100AF000083FBCE51B0771F4F70182818823C1F030
:100B000010920101109248021092470281E00E9467
:100B1000992A2FC1093FFCE51F0751F4D70112960E
:100B20008C91882329F0809101018823E9F2E8CF94
:100B300050900101552009F41CC110924B021092F3
:100B40004A02612CAA24A394B12C44244394C0905B
:100B50004A02D0904B02B8E0CB16D10408F0D6C0C0
:100B6000C60165E070E00E94BF2E8A589D4FBE010D
:100B7000655F7F4FFC0180810E94E12B892B11F082
:100B8000712CB9C0FE013B9680E090E033243A948A
:100B9000282F419151914115510551F00417150726
:100BA00009F4382E01968430910591F724E002C0B3
:100BB000823030F3FFEF3F1619F3D70112967C9085
:100BC000772009F449C0C60165E070E00E94BF2E9D
:100BD0008A589D4F4C01C50101C0880F3A94EAF72D
:100BE000F4019481892B8483A50102C0440F551F11
:100BF0002A95E2F79A012150310990E08F77281762
:100C0000390709F077C080E00E94992AD401149630
:100C10008C911497806814968C93C60165E070E0FF
:100C20000E94BF2E8A589D4FFC01828193810097BC
:100C300019F00E94171B0DC0BE016F5F7F4F80919E
:100C40004A020E94E12B892B21F489859A850E9412
:100C50002D1B409249024FC0F50102C0EE0FFF1F4D
:100C60002A95E2F73197C60165E070E00E94BF2E39
:100C7000DC01AA58BD4F14962C91149730E02F77C1
:100C8000E217F307B1F412968D919C911397009798
:100C900019F00E94781A0DC0BE016F5F7F4F8091DE
:100CA0004A020E94E12B892B21F489859A850E94B2
:100CB0008E1AC60165E070E00E94BF2EFC01EA5862
:100CC000FD4F2481822F90E0032C02C095958795DB
:100CD0000A94E2F780FF54CFA50101C0440F3A9473
:100CE000EAF7942F90959223948397FF49CF9038F9
:100CF00009F41482752C672880914A0290914B0266
:100D0000019690934B0280934A0221CF8091490231
:100D1000882359F00E941926909348028093470235
:100D200010924902611055CE24C0611006C081E0C6
:100D30000E94992A0E94872A1CC0F7018281882379
:100D400009F447CE0E9419269093480280934702E7
:100D5000E0914602E73008F03CCE81E08E0F8093B0
:100D60004602F0E0EE0FFF1FE85CFD4F11830083A9
:100D700030CE80916F0280FF67C00E9419266C01FF
:100D8000D70112968C91882379F18091020182FF1C
:100D900006C040E0B60180E090E00E94C42982E0F5
:100DA0000E9432270B31BCE51B0779F00C31ECE5D2
:100DB0001E0789F00A31FCE51F07B1F4809102019A
:100DC000982F909590FB80F909C080910201816075
:100DD0008093020180C0809102018E7F8093020186
:100DE00082E00E94322777C00832110538F40E31B4
:100DF0001105B8F40430110578F426C00933110543
:100E000038F40D32110590F40B32110579F01CC045
:100E10000436110559F018C080916F0284FD14C08A
:100E200009C080916F0283FD0FC004C080916F02E2
:100E300082FD0AC0D70112968C91882309F4B5C1AE
:100E40008091020180FD75C1033F2CE5120741F13D
:100E500090F4083D5CE51507E9F0093D8CE51807BD
:100E600089F1073D9CE51907B1F506E221EE41EE57
:100E700067ED7CE52CC0053FACE51A07E9F0B0F062
:100E8000063FECE51E0739F507E225EE46EE66EF74
:100E90007CE51DC007E225EE45EE68ED7CE517C058
:100EA00006E221EE40EE63EF7CE511C007E225EE9D
:100EB00044EE64EF7CE50BC006E221EE42EE65EF06
:100EC0007CE505C008E221E045EE69ED7CE5C7015F
:100ED0000E94B92A7ECDD70112962C91222309F4C3
:100EE0006AC1109250020230BCE51B0708F463C1CE
:100EF0000631ECE51E0730F0C8018A5F9C45099772
:100F000008F059C10E94AB269093A00280939F02E3
:100F10000031FCE51F0709F4C3C008F041C00830E8
:100F20004CE5140709F49AC0F0F404308CE5180776
:100F300009F487C068F40230ACE51A0709F477C0F9
:100F400003301C4509F0E5C080919F02826076C0A5
:100F50000630ECE51E0709F46EC008F07BC08091F6
:100F60009F0288606BC00C302CE5120709F485C025
:100F700068F40A305CE5150709F474C008F079C01C
:100F80000E94E11C80919F02806858C00E309CE551
:100F9000190709F476C008F07FC080919F028BC0CA
:100FA0000B3FBCE51B0709F44FC018F50331FCE506
:100FB0001F0709F47DC078F401314CE5140709F4EA
:100FC00073C002311C4509F0A4C00E94E11C80914D
:100FD0009F028F7733C005318CE5180709F472C082
:100FE00008F486C00A3F1C4509F093C08091A00216
:100FF0003EC00F3FBCE51B0709F45FC058F40D3F2E
:10100000FCE51F0709F444C008F43FC08091A0022A
:1010100082602DC001304DE5140709F475C008F455
:101020005DC002301D4509F074C060E06EC0809163
:101030009F02816003C080919F02806180939F0224
:1010400068C080919F0211C08091A002826080934D
:10105000A0025FC080919F028062F0CF80919F02CA
:101060008064ECCF80919F0288608460E7CF8160CC
:10107000EECF80919F028E7FE1CF80919F028D7F86
:10108000DDCF80919F02877FD9CF8091A00218C0C9
:101090008091A0028D7FDBCF80919F028F7ECECF8B
:1010A00080919F028F7DCACF80919F028F7BC6CF98
:1010B00080919F02877F8B7FC1CF8091A0028D7F1F
:1010C0008E7FC5CF80919F0282FB222720F991E07D
:1010D000922790FB82F990FB83F9B0CF8091A00218
:1010E000982F909591708E7F892B90FB81F9AFCFCF
:1010F0000E94E11C80919F0287FB222720F991E04A
:10110000922790FB87F99ACF61E08EE090E00E94F1
:101110007A2E60919F021091A00284E090E00E94DC
:101120007A2E612F82E290E00E947A2E0E94E11CCA
:1011300050CC90916F0291FD04C020919903211130
:1011400083CE95FF21C020914E0230914F0226019F
:10115000421A530A920196FD02C081FD15C0283C37
:10116000310590F420914C0230914D020217130783
:1011700059F481FF05C080919A03826080939A039D
:10118000802F0E94281D25CC10934D0200934C0205
:10119000D0924F02C0924E028091020184608093EF
:1011A000020182E00E94B82814CC40E0B601C801D8
:1011B0000E94C4290ECC0631BCE51B0709F047C0CC
:1011C00080919903982F9A7A30916E0230FF04C073
:1011D000482F447409F090E031FF04C0482F41715A
:1011E00009F090E032FF04C0482F487809F090E001
:1011F00033FF02C0827261F42223A1F081E09111D9
:1012000001C080E080935102992331F065E305C06D
:10121000222341F01092510269E289E193E00E9499
:1012200076260BC080915102882311F065E301C03E
:1012300069E289E193E00E944E260E947B27C9CB98
:1012400001318FE5180709F0E1CB82E0BECB222304
:1012500089F10A359DE5190741F150F40115BCE506
:101260001B07A9F00E3D1C4529F50E94BC26B1CBF9
:101270000B35FDE51F07D9F00C351D45D9F48091DC
:10128000A00282FB882780F991E0892711C00E9483
:10129000E11C4FEF54E38CE0415050408040E1F7B7
:1012A00000C000000E94B42594CB81E001C080E022
:1012B0000E944027F701828100811181882349F033
:1012C000C8010E94D527D82E682FC8010E94562831
:1012D00004C0C8010E942228D82EB8018D2D0E947A
:1012E0000C188C01882EF701B280C580C2946FE083
:1012F000C62280919703877099F0BB2089F0812FD7
:10130000807F803421F080E2800F883048F082E0D6
:101310000E94B828809197038770AA24A394811112
:10132000A12C912E92945FE09522892D90E08C3033
:10133000910508F0C3C2FC01E65CFF4F0C94F82E47
:10134000912F9F70812F807FD92E19F0D29440EF7A
:10135000D422BB20B9F0DD2009F48EC280E2800FD8
:10136000883010F0811006C080919903D82AD0925D
:10137000990305C080919A03D82AD0929A030E94BB
:101380007B277AC2802F0E94F61CDD2009F496C2CA
:1013900080E2800F883010F0811004C08D2D0E94F3
:1013A000392703C08D2D0E9432270E947B2786C2D9
:1013B000912F9F70812F807FD92E803219F0D29487
:1013C00030EFD322882029F0F1E08F1609F44FC0C6
:1013D0005CC0BB2079F1CC2039F144244394C41083
:1013E00013C08091A00282FD69C280919D03D82A1A
:1013F000D81609F463C20E94192690939C03809327
:101400009B03D0929D035AC280917002823060F09B
:10141000C8120AC00E94272780919403D81609F4A5
:1014200052C0D09294034FC080919D038D290E9499
:10143000831C44C2CC2081F08091700255245394C7
:10144000C51010C0823008F439C2809199038D21F3
:1014500009F434C20E94CF270E9427278D2D0E94B5
:10146000941C2CC28230C0F3C812F6CF27C2BB2016
:1014700031F025E0622E6C1408F420C224C094E000
:10148000792E7C1408F41AC2E9CFBB20F1F0CC20ED
:10149000D1F020E0D7014C9111965C9111971296F2
:1014A0006C91129713967C91139714968C910E94CD
:1014B0004F1A8091710281FDDFC1F701858180FFA4
:1014C000DBC18F7085838D2DB2CFCC2039F2F9E34B
:1014D0008F12E4C1DEC1812F86958695837019F045
:1014E000813059F0EBC1BB2019F0C801937002C0E4
:1014F00080E090E00E94A229E1C1BB2019F0C80160
:10150000937002C080E090E00E948C29D7C1802FA8
:10151000BB2029F00E9453160E941B1502C00E9496
:1015200045150E941B15CAC1812F837009F06AC03E
:10153000B110C4C1902F929596959770990F990FFD
:10154000802F8F70482E512C612C712C092E04C0D5
:10155000440C551C661C771C0A94D2F704FF12C079
:101560004FE050E060E070E004C0440F551F661F7C
:10157000771F9A95D2F7DB01CA0180959095A095C7
:10158000B09503C080E090E0DC01612F6695669520
:1015900063706230D9F068F520919E0330919F030B
:1015A0004091A0035091A103613059F084299529FD
:1015B000A629B729BC01CD01622373238423952377
:1015C0001EC0422A532A642A752A13C084299529E9
:1015D000A629B72940909E0350909F036090A003D6
:1015E0007090A103BC01CD01642575258625972542
:1015F00006C0BC01CD0164297529862997290E945E
:101600000C295CC1BB2019F0812F817001C0869527
:10161000882309F453C1902F929596959770990F4E
:10162000990F802F8F70482E512C612C712C092E10
:1016300004C0440C551C661C771C0A94D2F704FFA6
:1016400012C04FE050E060E070E004C0440F551F4E
:10165000661F771F9A95D2F7DB01CA018095909596
:10166000A095B09503C080E090E0DC01612F669505
:10167000669563706230D9F068F52091150330915A
:1016800016034091170350911803613059F08429D3
:101690009529A629B729BC01CD0162237323842390
:1016A000952391C0422A532A642A752A13C084299B
:1016B0009529A629B72940901503509016036090EC
:1016C000170370901803BC01CD016425752586258C
:1016D000972579C0BC01CD016429752986299729F0
:1016E00072C0212F2F70D22EBB2029F0822F0E9492
:1016F000D528802F9CCE802F0E94941C8D2DDAC07F
:10170000802F42EF841609F443C0481538F050EF9B
:10171000851661F091EF8916A9F1AAC0A3EF8A1688
:10172000E9F1B4EF8B1609F451C0A2C0BB2029F037
:10173000E4E0EC1508F4C2C005C085E0582E5C1446
:1017400008F4BCC0212F2F7181E090E0A0E0B0E050
:10175000AC01BD0104C0440F551F661F771F2A95B9
:10176000D2F78091150390911603A0911703B091C1
:1017700018032A013B01482659266A267B26C30105
:10178000B20121C0812F8F71BB2009F493C07AC0B0
:10179000812F8F71BB2009F475C08CC0BB2081F0F4
:1017A000212F2F7181E090E0A0E0B0E0BC01CD01DD
:1017B00004C0660F771F881F991F2A95D2F703C0B0
:1017C00060E070E0CB010E94892878C0909170029F
:1017D0009230B8F1BB20F1F0809194030E94392738
:1017E000809197038770843039F40E945A27812FA3
:1017F0008F710E94932861C080917002C81608F012
:101800005CC0212F2F71D22E822F0E94D52863E039
:101810008D2D10C02091990380919403822B809389
:101820009903C91650F00E945A270E94CF2764E0FE
:10183000812F8F710E94F62840C081E00E94B82855
:101840003CC0BB2059F0412F4F71D42E842F0E94F1
:10185000D52863E08D2D0E94F62830C081E00E94DB
:10186000B82851E05C1550F582E00E94B82826C0E7
:10187000BB2059F0CC2021F0802F0E94281D1EC0D3
:10188000812F8F710E94D52819C0CC2089F089330F
:1018900029F4809174029091750204C080917202C3
:1018A000909173020E948129802F0E94F61C06C02D
:1018B000812F8F710E94932801C0A12C88EF890D80
:1018C000843010F40E94B829C8010E949B1C811129
:1018D00005C0109253021092520225C0BB2019F08D
:1018E000C110F7CF20C0C110F4CF20E0D7014C9138
:1018F00011965C91119712966C91129713967C91A8
:10190000139714968C910E944F1A8091710283FF55
:10191000E0CF80915202909153020297D1F6802F2E
:101920000E94A01DD6CFAA20A9F08091970380FD28
:1019300011C0F70112828595859585950E94D5285D
:10194000C7010E94E703809197038595859585954A
:101950000E94932820E0D7014C9111965C91119739
:1019600012966C91129713967C91139714968C9102
:101970000E944F1A64960FB6F894DEBF0FBECDBF1B
:10198000DF91CF911F910F91FF90EF90DF90CF905B
:10199000BF90AF909F908F907F906F905F904F908F
:1019A0003F900895CF93DF93CDB7DEB7E4970FB69E
:1019B000F894DEBF0FBECDBF84B7877F84BF0FB65C
:1019C000F894A895809160008861809360001092DF
:1019D00060000FBE90E080E80FB6F894809361003D
:1019E000909361000FBE88E195E29093850180930A
:1019F00084010E94C514E6E7F2E080E090E0918364
:101A000080830196359688309105C9F70E94302B66
:101A10001092E2001092E1008091E00081608093DA
:101A2000E0008091D8008F778093D80019BC809116
:101A3000630081608093630010929E028091630036
:101A40008E7F8093630081E080939E021092E2007B
:101A50001092E1008091D8008F778093D800809118
:101A6000D80080688093D8008091D8008F7D8093C3
:101A7000D80084E089BD86E089BD09B400FEFDCFB1
:101A800010920B0310920C0310920A031092090398
:101A900042E060E080E00E941F218091E1008E7FA3
:101AA0008093E1008091E20081608093E200809168
:101AB000E20088608093E2008091E0008E7F809356
:101AC000E0008091E20084608093E200789480914D
:101AD0000B038823A1F01091E9001F709091EC0096
:101AE000892F817090FD80E8182B1092E900809179
:101AF000E80083FD0E9454211F701093E90082E0EA
:101B000084BD93E095BD9AEF97BD80936E0082E906
:101B10000E94BB1684E60E94BB1685E60E94BB1697
:101B200083E90E94BB1606E211E0A3E3EA2EA1E0DE
:101B3000FA2EF80181918F010E94BB16E016F10682
:101B4000C1F71092A2021092A1021092C802109244
:101B5000C7021092A4021092A3021092CA0210921D
:101B6000C9021092A6021092A5021092CC02109205
:101B7000CB021092A8021092A7021092CE021092ED
:101B8000CD0280E090E00E94742E8A3E9E4F11F0BC
:101B90000E94BC2682E090E00E946C2E8093BC02E2
:101BA0000E94AB269093A00280939F020E94D216BF
:101BB0002FEF46E781E0215040408040E1F700C030
:101BC00000000E94D2168091C70280FF17C06FEFFD
:101BD00083E290E00E947A2E6FEF84E290E00E9410
:101BE0007A2E6FEF85E290E00E947A2E6FEF7FEF02
:101BF00080E090E00E94982E0E94B42583E090E05F
:101C00000E946C2E682F70E080E090E00E940C290A
:101C100083E290E00E946C2E8D3381F484E290E0A8
:101C20000E946C2E8E3251F485E290E00E946C2E60
:101C300091E0843509F090E0892F01C080E080FFB9
:101C4000A9C55098589A5198599A89B1982F91706E
:101C5000499B02C082E001C080E0892B8093AE02E4
:101C600089E091E09093AA028093A90278E1672E1F
:101C7000712CE0E43E2EFFECCF2EF2E0DF2E8E0141
:101C80000F5F1F4F80910B03853009F043C054E074
:101C9000E52E66E0F62E80910B03853009F036C004
:101CA00080910B03843009F11092AB020FB6F894C7
:101CB000A895609260000FBE3092600083B7817F6C
:101CC000846083BF83B7816083BF7894889583B72E
:101CD0008E7F83BF0FB6F894A895809160008861CD
:101CE00080936000109260000FBE80910A038823E9
:101CF00091F20E94D216E7ECF2E081919191892B4A
:101D000009F0FBC4CE16DF06C1F7C5CF0E94E11C67
:101D10000E94B8290E94D21681110E940D26E7EC7C
:101D2000F2E0ADEBB2E0E12CF12C7E2D219131916E
:101D30008D919D9182279327009709F43FC060E021
:101D4000AA24A394B12CAC014A215B21452B89F133
:101D50006BA77CA72A213B2181E0232B09F480E09B
:101D60008DA70E9419268160782F9FA78EA74BA56B
:101D70005CA56DA58FA50E941B2DF701EE0FFF1F1F
:101D8000E354FD4F80819181A826B926B182A082BB
:101D90008091AE02E82FEE0FEE0FE093AE0289B114
:101DA00080FB442440F8512C499B21C082E090E004
:101DB00020C06F5FAA0CBB1C6D3029F69FEFE91A9B
:101DC000F90A24E0E216F10409F0AFCF8FEF88ABF7
:101DD00089AB1AAA0E9419268160782F9CAB8BAB25
:101DE00048A959A96AA98CA90E941B2DD1CF80E0CE
:101DF00090E0842995298E2B8093AE028F70E82F76
:101E0000F0E0ED5CFE4F90818091AD02890F8093F0
:101E1000AD0284305CF08091AC028F5F8093AC02A5
:101E200060E080E00E945E1B21E001C020E0809124
:101E3000AD028D3F54F48091AC0281508093AC028E
:101E400061E080E00E945E1B21E08091AD02082EDF
:101E5000000C990B64E070E00E94E42E8093AD02C8
:101E600021110E940D2686E0E5EBF2E0D8010190F9
:101E70000D928A95E1F7A090B702B090B802E09079
:101E8000B902F090BA021092B7021092B802109202
:101E9000B9021092BA02A11003C0BB2009F462C0BB
:101EA0008091B3029091B4020E94FE25FC01209122
:101EB000B202222339F08091060190E08E179F072D
:101EC00060F050C08091050190E06AE070E00E94EF
:101ED000BF2E8E179F0718F045C02F3F19F02F5FB8
:101EE0002093B202AA2059F00E9405161A1414F485
:101EF00061E001C06FEF0E94B62E8093B702BB2055
:101F000059F00E9405161B1414F461E001C06FEF34
:101F10000E94B62E8093B8028091B702882311F1F7
:101F20002091B8022223F1F0082E000C990B65EBEA
:101F300070E00E94BF2E992319F09093B70203C05E
:101F400081E08093B702822F220F990B65EB70E03E
:101F50000E94BF2E992319F09093B80203C081E02C
:101F60008093B802E11003C0FF2009F462C08091A1
:101F7000B0029091B1020E94FE25FC012091AF02B7
:101F8000222339F08091040190E08E179F0760F0C2
:101F900050C08091030190E06AE070E00E94BF2E83
:101FA0008E179F0718F045C02F3F19F02F5F209321
:101FB000AF02EE2059F00E94CA151E1414F461E01D
:101FC00001C06FEF0E94B62E8093B902FF2059F036
:101FD0000E94CA151F1414F461E001C06FEF0E9443
:101FE000B62E8093BA028091B902882311F1209114
:101FF000BA022223F1F0082E000C990B65EB70E079
:102000000E94BF2E992319F09093B90203C081E07A
:102010008093B902822F220F990B65EB70E00E942A
:10202000BF2E992319F09093BA0203C081E08093E8
:10203000BA028091B70281110BC08091B802811160
:1020400007C08091B902811103C08091BA02811149
:102050000E941B15AB82BC82ED82FE8286E0F801F5
:10206000A5EBB2E001900D928A95E1F70E94B829A4
:102070009091BB02891721F00E94B8298093BB027E
:1020800080910B03843009F0FDCD83E08093E9005B
:102090008091E80082FFF6CD8091E80085FF21C0A5
:1020A0000E94C02081111BC060E2E62EF12C580175
:1020B00009C08091F100F50181935F01F1E0EF1A11
:1020C000F10869F08091E80085FDF3CF8091E80088
:1020D0008B778093E8000E94C020882399F391E0D9
:1020E00001C090E08091E8008B778093E80099230D
:1020F00009F4C8CDE090CF02F090D0028981E114BC
:10210000F10461F08E3F09F0D0C28A81833008F477
:102110004EC18550833008F0C8C249C1893009F4E6
:10212000C2C2F0F4843009F47AC050F48230C1F1B4
:1021300008F066C0813009F0B6C21A8289E0D9C1C0
:10214000863009F473C008F0AEC22D813E8132277B
:10215000232732274C816B818A810E945314A5C2A8
:10216000803109F4C2C080F48D3009F462C028F4D3
:102170008C3009F098C280E136C28E3009F45DC01F
:102180008F3009F484C08FC2823109F4B3C008F4DF
:10219000AFC0833109F4D7C08E3F09F408C183C2B0
:1021A0008A81823009F4EDC2833051F0813009F028
:1021B0007AC20E940D269B838C837D836E8375C2B9
:1021C0008091070190910801892B09F46EC28091DA
:1021D000C7029091C8029B838C838091C902909121
:1021E000CA029D838E838091CB029091CC029F8303
:1021F00088878091CD029091CE0299878A8755C2B7
:102200008A81823009F04FC26B817C818D819E81F1
:102210000E94FE2E86E290E00E947A2E46C24C81F9
:102220006B818A810E9490149D83B2C20E94412CCE
:102230003CC281E08A8387E65CC1EA80FB80FE24A1
:10224000EF24FE248C80912C2DE18216910408F05D
:102250002CC25801C70187569D4F9501201B310B99
:102260002815390508F021C247E6E41641E0F406D6
:1022700028F40E946C2EF501848302C0F5011482BB
:10228000FFEFEF1AFF0A2FEFA21AB20AE3CF8091F5
:10229000070190910801892B09F407C2EA80FB80AD
:1022A000FE24EF24FE24AC80B12C4DE1A416B10431
:1022B00008F0FBC14801C70187569D4F9401201BC0
:1022C000310B2A153B0508F0F0C1E7E6EE16E1E018
:1022D000FE0620F4F40164810E947A2EFFEFEF1ACB
:1022E000FF0A2FEF821A920AE6CF0E94B52BDDC1BA
:1022F00084E079C1EA80FB80FE24EF24FE248C80F8
:10230000912C4DE18416910408F0CFC15801C7010A
:1023100087969501201B310B2815390508F0C5C19A
:10232000E0EAEE16E1E0FE0628F40E946C2EF501CC
:10233000848302C0F5011482FFEFEF1AFF0A2FEF2A
:10234000A21AB20AE4CFEA80FB80FE24EF24FE2426
:10235000AC80B12C4DE1A416B10408F0A6C180EA0E
:10236000E81681E0F80608F0A0C180EA91E08E1935
:102370009F098A159B0508F498C14801C7018796F3
:102380009401201B310B2A153B0508F08EC1E0EAB1
:10239000EE16E1E0FE0620F4F40164810E947A2E3C
:1023A000FFEFEF1AFF0A2FEF821A920AE7CFEA81B6
:1023B0008E2F90E08E30910508F077C1FC01EA5B2A
:1023C000FF4F0C94F82E88E0EAE1F1E0DE019196EF
:1023D00001900D928A95E1F780E2F80111928A95B9
:1023E000E9F784E0898388E0FE01B196DE01159665
:1023F00001900D928A95E1F758C184E9898381E0C3
:102400008A831B821C8251C18C8190E0982F88277F
:102410002B81820F911D092E000CAA0BBB0B55E0DE
:10242000880F991FAA1FBB1F5A95D1F7AC01BD0198
:10243000405E5F4F6F4F7F4F481759076A077B0712
:1024400008F433C18439F1E09F07A105B10508F014
:102450002CC1453921E052076105710520F044E99E
:1024600051E060E070E0481B590BBC0160597E4FA1
:10247000C8010E94532E19C1FB80EC8040E06E2DF4
:102480008F2D0E94EF2C99838A8341E06E2D8F2D32
:102490000E94EF2C9B838C8308C12E813F813227C1
:1024A000232732274D816C818B810E940D2CFDC02A
:1024B00040E250E06FEF70E0C8010E940E2F809163
:1024C00007018983EA82F1C081E090E09093D00215
:1024D0008093CF0289E190E09093C6028093C50279
:1024E0000E941926E2C0809107018983EA828091C7
:1024F000C5028B83DAC0EB80FC8040E250E06FEFD6
:1025000070E0C8010E940E2F28ED30E080E090E0DE
:10251000AC014E5F5F4F4132510508F0C6C0F90172
:1025200065917491E616F70630F4F801E80FF91F8B
:1025300071836083CA01285F3F4F41E02037340731
:1025400039F7B3C04B815C8120E731E088ED90E042
:10255000FC01659174916417750709F4E4C008964D
:1025600028173907A9F79FC08B819C8138EDE32E8E
:1025700030E0F32EF701259134918217930709F487
:1025800089C0E8E0EE0EF11CF0E7EF16F1E0FF067F
:1025900089F789C00E94742B88C08B81823029F111
:1025A000A8F48823C9F0813009F07FC08C812AE02B
:1025B000B22E7E01F1E2EF0EF11CF7012B2D1192EC
:1025C0002A95E9F7B7010E94F72B3FC0833071F1DC
:1025D000843009F443C069C080E2F80111928A9501
:1025E000E9F788E089838A8360C08C819AE0FE01E4
:1025F0003596DE01919601900D929A95E1F788301B
:1026000080F490E06AE070E00E94BF2EBC01675049
:102610007E4F4AE050E0CE0181960E949E2E80E0DF
:1026200001C08FEF89830E94C5143FC08C819AE05E
:10263000B92E7E0141E2E40EF11CF7012B2D11921F
:102640002A95E9F7B7010E94E12B8983F701DE01A2
:10265000129601900D92BA94E1F727C08C819AE00E
:10266000FE013596DE01919601900D929A95E1F763
:102670008830C8F490E06AE070E00E94BF2EBC0190
:10268000675B7D4F4AE050E0CE0181960E949E2E0E
:1026900080E00AC0C7010296FC01259134912D31DA
:1026A000310508F456C08FEF898380910B03843085
:1026B00009F0E8CA8091E9008F702091EC00922F18
:1026C000917020FD90E8F92EF82A82E08093E900CD
:1026D0008091E80080FF0CC040E050E060E270E0D4
:1026E000C8010E94F3208091E8008E778093E80073
:1026F0008F2D8F708093E900C5CAE9BCF9BC09B47D
:1027000000FEFDCF8091D8008F7D8093D80080910E
:10271000E00082608093E0008091E00081FDFCCFCA
:102720000E94E11CB8CA9C012E5F3F4FF901459100
:1027300054914032510508F0B6CFF90145915491BA
:10274000FC01349665917491CE0102960E94052F8A
:102750009FCFFC0145915491F70134968591949156
:10276000BE016B5F7F4F0E94052F0E94572BF70120
:10277000369685919491009709F48ACFFC010995CA
:1027800087CF86E290E00E946C2E1B821C821D8205
:102790008E838BCF60E086E290E00E947A2E0E94CA
:1027A000412C0E94B52B6DE383E290E00E947A2ECB
:1027B0006EE284E290E00E947A2E64E585E290E089
:1027C0000E947A2E3ECA90919F0292FF0DC0282F40
:1027D0002871283019F4877F846006C0282F24715F
:1027E000243011F48B7F886093FF0DC0282F28714F
:1027F000283119F4877E846106C0282F2471243182
:1028000011F48B7E88612091A00220FF0DC0382F2B
:102810003871383019F4877F816006C0382F3171E4
:10282000313011F48E7F886021FF0DC0282F287170
:10283000283119F4877E816106C0282F217121314A
:1028400011F48E7E886194FD877E08959C013A95EF
:1028500021153F4138F5DC01AA27B270AC014427AD
:1028600054709C012227387094FF0FC090FF02C063
:1028700080E101C080E0AB2B09F08062452B09F0BC
:102880008064232B69F080680BC0892F8170AB2B8B
:1028900009F08260452B09F08460232B09F08860E1
:1028A000FB01099408950F931F93CF93DF93843016
:1028B00090F5643080F54D3070F521159CE53907B1
:1028C00031F4E0910701F0910801EF2B21F189012A
:1028D000282F862F90E06AE170E00E94BF2EC42F5F
:1028E000D0E0CC0FDD1FC80FD91F822F90E068E623
:1028F00070E00E94BF2EC80FD91F612FCE018796AE
:102900000E947A2E602FCE018896DF91CF911F9181
:102910000F910C947A2EDF91CF911F910F91089512
:102920000F931F93CF93DF93843040F5643030F5DD
:102930004D3020F5282F862F90E06AE170E00E944C
:10294000BF2EC42FD0E0CC0FDD1FC80FD91F822FA0
:1029500090E068E670E00E94BF2EC80FD91FCE013C
:1029600087960E946C2E90E0182F0027CE01889643
:102970000E946C2E9801282BC90102C080E090E0D3
:10298000DF91CF911F910F9108958F929F92AF92F7
:10299000BF92CF92DF92EF92FF920F931F93CF934C
:1029A000DF93CDB7DEB72A970FB6F894DEBF0FBE20
:1029B000CDBF08E811E0E12CF12C8EECC82E8BE1A4
:1029C000D82E99EFA92E9BE1B92E2EEB822E2AE16B
:1029D000922EF801D182C082B382A2829582848233
:1029E000F58AE48ABE016F5F7F4F8E2D0E94F72B20
:1029F000892B29F489859A85F801938B828BFFEFC7
:102A0000EF1AFF0A0A5E1F4F88E0E816F10409F783
:102A10002A960FB6F894DEBF0FBECDBFDF91CF91DF
:102A20001F910F91FF90EF90DF90CF90BF90AF90EC
:102A30009F908F9008950E9419262091B70221112E
:102A400004C02091B802222321F09093B402809315
:102A5000B3022091B902211104C02091BA022223AD
:102A600021F09093B1028093B002E091A902F0911D
:102A7000AA02309749F082E08093B5020480F58184
:102A8000E02D85EB92E009940895803F39F4809120
:102A9000B80287FF6AC01092B80267C0813F29F46C
:102AA0008091B8021816BCF360C09091B702823FC3
:102AB00029F497FF5AC01092B70257C0833F19F408
:102AC0001916CCF352C09091B902893F31F419160E
:102AD0000CF04BC01092B90248C08A3F19F497FF1E
:102AE00044C0F8CF8B3F39F48091BA0287FF3DC0D4
:102AF0001092BA023AC08C3F29F48091BA0218169B
:102B0000BCF333C0843F21F48091B6028E7F17C09E
:102B1000853F21F48091B6028D7F11C0863F21F45C
:102B20008091B6028B7F0BC0873F21F48091B60263
:102B3000877F05C0883F31F48091B6028F7E8093F5
:102B4000B60213C08D3F21F48091E6028E7F0BC048
:102B50008E3F21F48091E6028D7F05C08F3F29F4DE
:102B60008091E6028B7F8093E6028091B70281110B
:102B700006C08091B802811102C01092B202809109
:102B8000B902811106C08091BA02811102C010926F
:102B9000AF0208958091E60280FF08C060911501A0
:102BA00070E0759567957595679523C081FF06C0A0
:102BB0006091150170E0759567951BC082FF04C098
:102BC0006091150170E012C06091AF026623A9F018
:102BD000209114016217A0F78091150170E090E038
:102BE0000E94BF2E622F70E00E94E42E60387105B3
:102BF00040F46115710519F406C061E070E0862F9C
:102C000008958FE7089581E008958091E60230915C
:102C10005C0220915D0280FF0CC08091170190E062
:102C2000632F722F0E94BF2E969587959695879554
:102C300030C081FF0AC08091170190E0632F722F8E
:102C40000E94BF2E9695879524C082FF08C0809170
:102C5000170190E0632F722F0E94BF2E1AC060915F
:102C6000B202611103C0832F922F13C0409116014D
:102C7000641768F78091170170E090E00E94BF2E02
:102C8000632F722F0E94BF2E642F70E00E94D02EFF
:102C9000CB018038910518F4009719F008958FE75B
:102CA000089581E00895803F21F40E9405168195E2
:102CB00004C0813F29F40E9405168093B80208954C
:102CC000823F21F40E940516819504C0833F29F4B8
:102CD0000E9405168093B7020895893F19F40E9457
:102CE000CA1505C08A3F31F40E94CA1581958093A8
:102CF000B90208958B3F21F40E94CA15819504C042
:102D00008C3F29F40E94CA158093BA020895843F2B
:102D100021F48091B602816017C0853F21F4809133
:102D2000B602826011C0863F21F48091B6028460B1
:102D30000BC0873F21F48091B602886005C0883FB0
:102D400031F48091B60280618093B60208958D3F80
:102D500021F48091E60281600BC08E3F21F48091C6
:102D6000E602826005C08F3F29F48091E60284600C
:102D70008093E6020895F894E82FE295EF70F0E072
:102D800031A1282F2F7081E090E001C0880F2A9593
:102D9000EAF7982F9095932391A392A1892B82A370
:102DA000789408959F92AF92BF92CF92DF92EF9264
:102DB000FF920F931F93CF93DF9302E211E0C1EADA
:102DC000D2E089EAE82E82E0F82E912CCC24C3943C
:102DD000D12CB801D8018C91F894E82FE295EF70CE
:102DE000F0E021A18F70A60102C0440F551F8A9503
:102DF000E2F7CA01922F982B91A392A18095892383
:102E000082A3789400C0E6E2F1E020E030E0A12C5B
:102E1000B12C4191842F82958F7090E0DC019096C7
:102E20008C9190E04F7002C0959587954A95E2F796
:102E300080FD08C0C601022E02C0880F991F0A94A7
:102E4000E2F702C080E090E0A82AB92A2F5F3F4F46
:102E50002D303105F1F60F5F1F4FFB0180810E947D
:102E6000BB16F0EAFA95F1F788819981A816B906A0
:102E700021F0B982A88281E001C080E0982A2296E0
:102E8000EC16FD0609F0A5CF992049F081E080936A
:102E9000D3020E9419269093D2028093D10280918E
:102EA000D302882351F18091D1029091D2020E94E5
:102EB000FE25069710F18091A1029091A2029093B5
:102EC000C8028093C7028091A3029091A4029093BC
:102ED000CA028093C9028091A5029091A6029093A4
:102EE000CC028093CB028091A7029091A80290938C
:102EF000CE028093CD021092D302809100018F3FC9
:102F000061F1F12C20C0CE0166E170E00E94BF2E7D
:102F100088579E4FDC015296CD90DC905397C11498
:102F2000D10421F4C0906C02D0906D02CE0166E114
:102F300070E00E94BF2E8C0108571E4FF801868159
:102F4000811110C0F394CF2DD0E080910001082EA4
:102F5000000C990B8C179D07B4F68091010181112B
:102F60001AC02DC0858596850E94FE25C816D906F3
:102F700048F7D80151968C91811103C0C8010E9475
:102F8000252ACE0166E170E00E94BF2E82579E4F37
:102F90000E94462AD7CF809147029091480200971D
:102FA00071F00E94FE2520916A0230916B02281771
:102FB000390728F481E00E94992A0E94872A80918B
:102FC0006F0280FF1CC08091020182FF18C00E9426
:102FD000192620914E0230914F02AC01421B530B37
:102FE00020911801309119014217530740F041E038
:102FF000BC0180914C0290914D020E94C429892D00
:10300000DF91CF911F910F91FF90EF90DF90CF90C4
:10301000BF90AF909F900895CF93DF930E94C52BF0
:10302000EC018238910559F1A0F48133910509F43E
:1030300073C040F48932910509F467C08A9709F496
:1030400072C084C08533910509F458C0C997B9F09E
:103050007DC0833E910571F138F4803E9105B1F059
:10306000823E910511F172C0863E9105B9F1873E0D
:103070009105C9F1843E910509F068C024C0809192
:103080009F0280FD5DC081FD5BC060C080919F029A
:1030900080FD50C08091A00280FF50C180919F02AE
:1030A00084FD4AC1C3EED0E049C180919F0282FFF6
:1030B00045C1F4CF80919F0282FD3FC08091A00264
:1030C00080FD3EC0EBCF8091A00281FF37C180918F
:1030D0009F0284FD31C1C7EED0E030C180919F02D4
:1030E00083FF2CC1F4CF80919F0283FD2CC080917F
:1030F000A00281FFECCFC4EED0E020C180919F02FE
:1031000085FF1CC1C9E2D0E019C180919F0285FFF3
:1031100015C1C5E3D0E012C180919F0286FF0EC1A8
:10312000CAE2D0E00BC180919F0286FF07C1C1E3D4
:10313000D0E004C1C9E3D0E001C1C2EED0E0FEC0DE
:10314000C0EED0E0FBC0C6EED0E0F8C0C11521E56E
:10315000D20708F069C0C11580E5D807F8F0CE01A4
:10316000F4E096958795FA95E1F7282F23703C2F88
:10317000337081E090E002C0880F991F3A95E2F722
:103180009C68922BCF70C695C695D0E0A5E0CC0F79
:10319000DD1FAA95E1F7C82BD92BD0C0C83ED105B9
:1031A00060F5C03ED10508F0C9C0C83AD105B0F4F9
:1031B000C53AD10540F0C55AD0E0CD5BDE4FC8819D
:1031C000D0E0D064BBC0C130D10509F4B7C008F469
:1031D000B3C0C430D10508F4AFC0B0C0CF3BD105F7
:1031E00008F0AAC0C85AD0E0CC0FDD1FCA5BDE4F82
:1031F0000990D881C02DD464A1C0C11520E2D207A6
:1032000058F4C11581E0D80708F098C0C03FD10537
:1032100008F492C0D06592C0C11520E4D20708F42A
:103220008BC0DF70D06A8AC0C11585E5D80708F069
:1032300046C0C11524E5D20728F0DC2FCC27C46F87
:10324000D06A7CC0C11583E5D807C0F0CE01837079
:10325000992721E030E002C0220F331F8A95E2F760
:103260008C2F86958695C82FD0E065E0CC0FDD1FAA
:103270006A95E1F7C22BD32BDA6860C0C11522E54D
:10328000D20728F4DC2FCC27C16FD06A57C0CE01FB
:103290008370992721E030E002C0220F331F8A9506
:1032A000E2F78C2F86958695C82FD0E075E0CC0F7D
:1032B000DD1F7A95E1F7C22BD32BDC683FC0C11527
:1032C00089E5D807B8F4C11528E5D20728F0DC2F26
:1032D000CC27C06FD06A32C0C11586E5D80760F52B
:1032E0008C2F0E94E3138F71C82FD0E0DC2FCC27E6
:1032F000D06224C0C1152AE5D20780F48C2F8F70CC
:103300000E94E31394E0D695C7959A95E1F7CF70A4
:10331000D0E0DC2FCC27D069C82B10C0CE0190564E
:103320008115904248F48D2F8F710E94E313DD27A1
:10333000D0628F71D82B02C0C0E0D0E0CE01DF9107
:10334000CF910895BF92CF92DF92EF92FF920F93A9
:103350001F93CF93DF93EC012881222309F495C0BA
:10336000213009F03FC08981813039F48E010E5F30
:103370001F4F8A810E94A01D08C0823041F48E0137
:103380000E5F1F4F8A810E94281DE8017CC0833098
:1033900039F48E010E5F1F4F8A810E94F61CF5CF13
:1033A000843011F021966FC02A81229680E090E04F
:1033B00030E0205331092A30310548F46AE070E0EA
:1033C0000E94BF2E820F931F21962881F1CF009774
:1033D00009F459C0EFE9FFE03197F1F700C00000B0
:1033E0000197F5CFE22FF0E0EC5CFC4FB490822F18
:1033F00086958695869590E0FC01EC5DFC4FE49007
:103400002770F12C022E02C0F594E7940A94E2F79B
:10341000F1E0EF22FF24FC01EC5EFC4FC490D12CC4
:10342000022E02C0D594C7940A94E2F731E0C32279
:10343000DD24FC01EC5FFC4F049110E002C0159507
:1034400007952A95E2F701701127E114F10419F0AC
:1034500081EE0E94281DC114D10419F086EE0E944D
:10346000281D8B2D0E94A01DCD2819F086EE0E94EC
:10347000F61CEF2819F081EE0E94F61C012B19F0C2
:103480008CE20E94A01D219667CFDF91CF911F9102
:103490000F91FF90EF90DF90CF90BF9008951F9312
:1034A000CF93DF9300D000D01F92CDB7DEB7498312
:1034B0005A8389819A81662359F0222349F00E9418
:1034C000D527182F682F89819A810E94562803C01A
:1034D0000E942228182F69817A81812F0F900F90E6
:1034E0000F900F900F90DF91CF911F910C94C52BEF
:1034F000CF93DF93EC010E94F61CCE01805E910910
:10350000089710F0209719F464E97CE102C06DE897
:103510007CE1CE01DF91CF910C942614CF93DF9301
:1035200000D000D01F92CDB7DEB79093A703809351
:10353000A603811520E2920748F40F900F900F9098
:103540000F900F90DF91CF910C94781A8EEF8983B2
:103550008A831B820E9419268160782F9D838C8329
:1035600049815A816B818D810E941B2D0F900F9094
:103570000F900F900F90DF91CF9108950F931F93AD
:10358000CF93DF938C01EB016CED72E08C2F0E94E6
:10359000F72B892B09F046C080917202909173023B
:1035A0000E948129DD27CC52DD4F8881F8011082ED
:1035B0001882833079F048F4813041F1823091F5FE
:1035C0008091DE029091DF0209C0843051F0853095
:1035D000E9F028C08091E0029091E1020097B1F0FB
:1035E0001BC08091E2029091E3020097A9F4209120
:1035F000DC023091DD028091DE029091DF02211524
:10360000310541F0009741F4C90106C08091DC0208
:103610009091DD02009731F0DF91CF911F910F91D2
:103620000C948E1ADF91CF911F910F910895CF9333
:10363000DF93EC01805E9109089710F0209719F450
:1036400063E87CE102C069E77CE1CE010E942614B8
:103650008C2FDF91CF910C94281DCF93DF9300D056
:1036600000D01F92CDB7DEB79093A7038093A60337
:10367000811520E2920748F40F900F900F900F9061
:103680000F90DF91CF910C94171B8EEF89838A8363
:1036900081E08B830E9419268160782F9D838C8323
:1036A00049815A816B818D810E941B2D0F900F9053
:1036B0000F900F900F90DF91CF910895AF92BF922E
:1036C000CF92DF92EF92FF920F931F93CF93DF93EE
:1036D000B82EA62EC0901503D0901603E0901703C5
:1036E000F090180380919E0390919F03A091A003F6
:1036F000B091A103C82AD92AEA2AFB2ACFE1D0E057
:10370000D701C6010C2E04C0B695A795979587954D
:103710000A94D2F780FF13C04A2D6B2D8C2F0E9484
:10372000EF2C8C018130910551F00E942D1B8FE30D
:103730009CE90197F1F700C00000C80111C0219772
:10374000F8F64A2D6B2D80E00E94EF2CEC010E94D0
:103750002D1B8FE39CE90197F1F700C00000CE011B
:103760000E948E1A81E0DF91CF911F910F91FF90FF
:10377000EF90DF90CF90BF90AF900895CF93DF93FD
:10378000EC010E942D1B80917202909173020E94A5
:103790008129CE01DF91CF910C948E1A0F931F9344
:1037A000CF93DF938C01862F6CED72E00E94F72B94
:1037B000892BD1F4C091DC02D091DD022097A1F0D9
:1037C000F8018081833039F4CE010E94BE1BCE0106
:1037D0000E94BE1B02C0843038F0CE01DF91CF9131
:1037E0001F910F910C94BE1BDF91CF911F910F91F0
:1037F00008950F931F93CF93DF938C01EB016CED32
:1038000072E08C2F0E94F72B892B09F06DC0DD2709
:10381000F8018081813041F49185911115C0928524
:10382000992391F082E010C0823049F4F80181853B
:10383000811107C08285811106C083E005C086E042
:1038400003C085E001C084E0CC52DD4F8883833023
:10385000B1F028F4813071F0823031F045C084300D
:10386000A9F0853079F140C08091DE029091DF02AD
:103870000097A1F58091DC029091DD0220C080913B
:10388000E0029091E1020097E9F028C08091E20205
:103890009091E302009711F58091DC029091DD0296
:1038A000009749F00E94BE1B8091DE029091DF02DA
:1038B000009781F013C08091DE029091DF020097A3
:1038C00099F00CC08091DC029091DD02009761F0CC
:1038D0000E94BE1B8091DC029091DD02DF91CF91AE
:1038E0001F910F910C942D1BDF91CF911F910F9180
:1038F0000895882339F090919A03892B80939A0335
:103900000C947B270895882339F090919903892B93
:10391000809399030C947B270895882321F00E94BB
:1039200032270C947B270895882321F00E943927A1
:103930000C947B270895E92FE295EF704E2F50E00D
:10394000FA013297EE30F105B0F4EC5AFF4F0C94C7
:10395000F82E803F91F018F4883E68F40EC0843F42
:1039600051F40BC0883E48F0813F29F406C093FB18
:10397000882780F9089580E0089581E008950E94E5
:1039800017280E949B1C089580E090E00E94A229C5
:1039900080E090E00E948C2910929A031092980384
:1039A0000E947B27E5EBF2E086E0DF011D928A951D
:1039B000E9F71092B2021092AF021092E6020C9454
:1039C0001B151092990380911301882331F0809187
:1039D0009F0287FF02C08EE101C086E0EBE1F3E0C9
:1039E000DF011D928A95E9F70C94C41C882379F1B4
:1039F0009CEF980F913A30F4682F89E193E00E9490
:103A00004E260DC090E2980F983058F4877091E0E0
:103A100001C0990F8A95EAF7892F0E9439270C94E3
:103A20007B279BE5980F933020F480E090E00C9486
:103A3000A22998E5980F973120F480E090E00C944B
:103A40008C29803F20F00E9445150C941B15089589
:103A5000CF93882309F472C0C82F8CEF8C0F813A62
:103A6000C0F5809113018823E1F080919F0287FFC8
:103A700018C0EC2FE695E695E695F0E0E75EFC4F82
:103A80008281282F30E04C2F477081E090E002C007
:103A9000880F991F4A95E2F782239323892B61F4BB
:103AA00012C0EBE1F3E081E293E02191C21721F033
:103AB0008E179F07D1F707C06C2F89E193E00E9412
:103AC0004E260E947B276C2F89E193E00E94762688
:103AD00010C080E28C0F883078F4C77081E090E0ED
:103AE00001C0880FCA95EAF790919903892B8093BA
:103AF0009903CF910C947B27EBE5EC0FE33040F476
:103B0000F0E0ED5BFE4F808190E0CF910C94A22914
:103B1000E8E5EC0FE73150F4F0E0EE0FFF1FEA5B51
:103B2000FE4F80819181CF910C948C29C03F30F061
:103B30008C2F0E945316CF910C941B15CF91089592
:103B40001F93CF93DF93182F893329F4C091740208
:103B5000D091750204C0C0917202D0917302812F7E
:103B60000E94281D209741F08FE99FE00197F1F70F
:103B700000C000002197F6CF812FDF91CF911F91D8
:103B80000C94F61CEF92FF920F931F93CF93DF9349
:103B900080913E0382958F7009F062C080913B0353
:103BA000882309F45DC0C091700380913F03C8175A
:103BB00009F456C01091390300913A03E0903C0398
:103BC000F0903D03A701602F812F0E943A29D0E099
:103BD000811143C0CE0166E070E00E94BF2EFC015F
:103BE000E05CFC4F5181501338C04081411335C017
:103BF0008281811132C0038114810E191F0920E0D6
:103C000060913B0370913C0380913D030E944F1AE9
:103C100080916C0290916D0208171907F0F4809161
:103C20003E038F70806180933E03CE0166E070E0BA
:103C30000E94BF2EFC01EB5BFC4F90819F70906156
:103C4000908389E393E00E94E703DF91CF911F9176
:103C50000F91FF90EF900C9449292196C770A5CF42
:103C6000DF91CF911F910F91FF90EF9008954F92A8
:103C70005F926F927F928F929F92AF92BF92CF92FC
:103C8000DF92EF92FF920F931F93CF93DF93CDB705
:103C9000DEB761970FB6F894DEBF0FBECDBF8C01C3
:103CA00085E0F801DE011D9601900D928A95E1F7FD
:103CB000D801EC901196FC90119712966C9089E3C4
:103CC000A82E83E0B82E80903C0390903D03A40181
:103CD00060913A03809139030E943A29782E81112C
:103CE000DBC1F801C380D48040903B03C601881932
:103CF00099094C0120E04091390350913A03442046
:103D000009F457C1642D70913C0380913D030E94DA
:103D10004F1A80916C0290916D0250903E0388166C
:103D2000990608F013C140913C0350913D03B090B7
:103D30003903A0903A03852D807F6A2D09F0A5C034
:103D40008B2D0E943A29811115C0AF1013C0BE10EF
:103D500011C061100FC0852D8F70806180933E036C
:103D600089E393E00E94E70380913E03D801159612
:103D70008C93B1C120E04091390350913A03609196
:103D80003B0370913C0380913D030E944F1A809148
:103D90006C0290916D02843F914050F0A6016F2D0E
:103DA0008E2D0E943A29811115C081E0862514C00C
:103DB00020E04091390350913A0360913B037091A8
:103DC0003C0380913D030E944F1A8091710280FD57
:103DD000E5CF17C080E090E080FF13C0462D6F2D27
:103DE0008E2D0E941629882361F089E393E00E94BA
:103DF000E703E9E3F3E086E0DF011D928A95E9F746
:103E00006AC1A6016F2D8E2D0E943A29811103C02F
:103E100081E0862502C080E090E0B82FB170CB2E03
:103E200080FF2AC0462D6F2D8E2D0E941629D82E78
:103E3000811122C0ED86FE868D859E850E94172801
:103E4000292F22952F70223018F0243078F405C0E5
:103E50009F7049F0811107C00DC09F7021F0F801DB
:103E60009581907F39F0805E883020F0C8010E94F3
:103E7000E703DC2C7D2C2FC1662009F42BC1809137
:103E80003E03816080933E0326C18B2D0E943A2918
:103E9000811115C0AF1013C0BE1011C061100FC04A
:103EA000D80115965C92C8010E94E70386E0F801EC
:103EB000A9E3B3E001900D928A95E1F760C0ED8629
:103EC000FE868D859E850E94BF1C8823C9F16620D1
:103ED000B9F120913E03822F82958F7090E0029776
:103EE00074F08091390390913A0398878F831986F3
:103EF000DB86CA862C87CE0107960E94E70386E000
:103F0000F801A9E3B3E001900D928A95E1F70E94D0
:103F1000C21D19C09090390380903A0340913C0330
:103F200050913D03682D892D0E943A298823B1F0D4
:103F3000ED86FE868D859E850E94BF1C811121C065
:103F4000C8010E94E70377247394C5C0852D807F44
:103F500009F789E393E00E94E70398C08F10E8CF48
:103F60009E10E6CF6110E4CFD80115965C92C8018F
:103F70000E94E70386E0F50111928A95E9F7742C17
:103F8000AAC06620E9F220913E03822F82958F70AD
:103F900090E002970CF4B3CF8091390390913A03EB
:103FA0009A8389831B82DD82CC822E83CE01019687
:103FB000A4CF60E070913C0380913D030E944F1AB2
:103FC00080916C0290916D028816990608F05EC08F
:103FD000762C662009F4B4CFC0903903D0903A0310
:103FE00040913C0350913D036D2D8C2D0E943A2948
:103FF00081113BC0DF1039C0CE1037C020E0A601D0
:1040000060913B0370913C0380913D030E944F1AE5
:104010008091710282FD20C080913E0380FD1CC012
:1040200082958F70482F50E041155105A9F02091DD
:104030003E03D80115962C9315974F30510549F042
:104040008F5F982F9295907F822F8F70892B159676
:104050008C93C8010E94E70386E0F801A9E3B3E06E
:1040600001900D928A95E1F736C0ED86FE868D852A
:104070009E850E94BF1C811142CF80913E038160CA
:1040800080933E03C8010E94E70325C086E0F50146
:1040900011928A95E9F71FC0662009F451CFED8689
:1040A000FE868D859E850E94BF1C782E882309F48C
:1040B00047CF86E0F801A9E3B3E001900D928A951D
:1040C000E1F78091390390913A030E9417280E94EA
:1040D000C21D01C0712C872D61960FB6F894DEBF0A
:1040E0000FBECDBFDF91CF911F910F91FF90EF9049
:1040F000DF90CF90BF90AF909F908F907F906F9008
:104100005F904F90089580910D0387FF11C08091BB
:10411000E80082FD05C080910B038111F8CF11C02A
:104120008091E8008B770BC080910B03882349F0C6
:104130008091E80080FFF8CF8091E8008E7780932F
:10414000E80008950F931F93809115039091160333
:10415000A0911703B09118038C019D0106701127DF
:1041600022273327BC01CD01063011052105310579
:1041700011F4686001C0677F1F910F910C9489282A
:104180002091E4003091E50095E64091EC00842F09
:10419000817040FF23C08091E80080FD1DC08091A8
:1041A0000B03882399F0853099F08091EB0085FD11
:1041B00011C04091E4005091E5002417350729F320
:1041C000915011F09A01E1CF84E0089582E00895C2
:1041D00083E0089581E0089580E008954091E8002B
:1041E00042FFDDCF0895EF92FF920F931F93CF937D
:1041F000DF937C018B010E94C020811119C0E7016F
:1042000001151105A1F08091E80085FD0AC080919B
:10421000E8008E778093E8000E94C020882381F315
:1042200007C089918093F10001501109E9CF80E026
:10423000DF91CF911F910F91FF90EF900895982FEC
:10424000953068F59093E900981739F07091EC007B
:104250002091ED005091F00003C0242F762F50E004
:1042600021FD02C09F5FECCF3091EB003E7F309389
:10427000EB003091ED003D7F3093ED003091EB008D
:1042800031603093EB007093EC002093ED0050937D
:10429000F0002091EE0027FDE5CF80E008958F70BB
:1042A0008093E90081E008951F93CF93DF93CDB70A
:1042B000DEB7AA970FB6F894DEBF0FBECDBFEDE014
:1042C000F3E08091F100819343E0E531F407C9F711
:1042D00080910E03833009F45EC030F4813071F0B8
:1042E000823009F498C0AFC08A3009F484C08B30A2
:1042F00009F469C0893009F0A6C020C080910D037F
:10430000813A09F0A0C08091E800877F8093E8009F
:104310008091110390911203892B21F460E289EEC0
:1043200092E003C060E080E090E070E00E94F82D31
:104330008091E8008B778093E80085C080910D0321
:10434000813209F080C0809111039091120300978F
:1043500019F0029709F077C08091E800877F809379
:10436000E8008091E80082FD05C080910B03811177
:10437000F8CF69C08091F200823029F48091F10079
:104380008B7F813021F48091F1008093E80280914D
:10439000E8008B7754C080910D03813A09F053C037
:1043A0008091110390911203892B09F04CC08091E8
:1043B000E800877F8093E8008091E80080FFFCCFD1
:1043C0008091130137C080910D038132E1F5809116
:1043D000110390911203892BB1F58091E800877F3A
:1043E0008093E8000E94832080910F038093130143
:1043F0000E94E11C28C080910D03813221F580913B
:10440000E800877F8093E8000E948320809110035A
:104410008093E70218C080910D03813AA1F4809146
:10442000E800877F8093E8008091E80080FFFCCF60
:104430008091E7028093F1008091E8008E7780936D
:10444000E8000E9483208091E80083FFE5C180910D
:104450000D0390910E03492F50E04A30510508F0AA
:10446000DBC1FA01EE59FF4F0C94F82E803821F091
:10447000823809F0D1C108C08091090390910A03E4
:10448000992389F082600FC0809111038F7085306D
:1044900008F0C2C18093E9008091EB0085FB88277A
:1044A00080F91092E9009091E800977F9093E800DE
:1044B0008093F1001092F10078C1282F2D7F09F030
:1044C000ABC1882319F0823061F0A6C180910F033F
:1044D000813009F0A1C1933009F080E080930A0394
:1044E0002EC080910F0381112AC0809111038F701B
:1044F0002FEF280F243008F08FC18093E90020911E
:10450000EB0020FF1CC0933021F48091EB0080620F
:1045100014C09091EB0090619093EB0021E030E0AB
:10452000A90102C0440F551F8A95E2F74093EA00A3
:104530001092EA008091EB0088608093EB0010926B
:10454000E9008091E800877F8093E8000E94832043
:1045500063C1811161C110910F031F778091E30046
:104560008078812B8093E3008091E800877F80939F
:10457000E8000E9483208091E80080FFFCCF8091BA
:10458000E30080688093E300111102C082E001C063
:1045900083E080930B0340C18058823008F03CC117
:1045A00020910F03309110032C3D53E0350779F52E
:1045B00083E08A838AE289834FB7F894DE011396F9
:1045C00020E03EE051E2E32FF0E050935700E49109
:1045D00020FF03C0E295EF703F5FEF708E2F90E0F9
:1045E000EA3010F0C79601C0C0968D939D932F5F5F
:1045F000243149F74FBF8091E800877F8093E8001E
:104600006AE270E0CE0101960E94F82DBCC0809154
:10461000110390911203432F552743305105B1F0F8
:1046200068F44130510509F406C14230510509F0E2
:10463000F3C08BE590E0E2EDF4E057C04132510564
:1046400089F14232510509F43CC0E6C0C9019927FD
:1046500081309105B9F070F082309105D9F003975F
:1046600009F0DAC0EFE3F5E0E4918E2F90E0EFE39C
:10467000F5E038C0E7E8F5E0E4918E2F90E0E7E858
:10468000F5E030C0E1E7F5E0E4918E2F90E0E1E75E
:10469000F5E028C0EDE5F5E0E4918E2F90E0EDE542
:1046A000F5E020C08330910508F0B6C0880F991F4F
:1046B000FC01E358FE4F0190F081E02D89E090E08D
:1046C00014C08330910508F0A7C0FC01EE0FFF1F56
:1046D000E958FE4F0190F081E02DDC01AC58BE4F4F
:1046E0008C9190E0009709F497C02091E800277F13
:1046F0002093E80020911303309114032817390701
:1047000008F4C90140E0009769F120910B032223CE
:10471000D1F12530C1F12091E80023FD34C0209172
:10472000E80022FD2CC02091E80020FFECCF209172
:10473000F20030E0009759F02830310540F4449100
:104740004093F100319601972F5F3F4FF3CF41E047
:104750002830310509F040E02091E8002E772093C1
:10476000E800D1CF4111D1CF0AC080910B0388233B
:1047700051F0853041F08091E80083FD04C08091C4
:10478000E80082FFF2CF8091E8008B778093E80009
:1047900043C0803809F040C08091E800877F809353
:1047A000E80080910C038093F1008091E8008E77FF
:1047B000CBCE811131C080910F03909110039927C6
:1047C000029754F58091E800877F8093E80010916C
:1047D0000F0310930C030E948320111106C08091D7
:1047E000E30087FD02C081E001C084E080930B03F9
:1047F00042E061EC81E00E941F2142E261EC84E032
:104800000E941F2142E261EC82E00E941F2142E2ED
:1048100060EC83E00E941F218091E80083FF10C0BC
:104820008091E800877F8093E8008091EB008062B0
:104830008093EB0005C082E190E0EDE2F5E055CF1A
:10484000AA960FB6F894DEBF0FBECDBFDF91CF9111
:104850001F9108951F920F920FB60F9211242F935C
:104860003F934F935F936F937F938F939F93AF93F8
:10487000BF93CF93DF93EF93FF93C091E900CF7085
:104880008091EC00D82FD17080FDD0E81092E90023
:104890008091F000877F8093F00078940E945421EB
:1048A0001092E9008091F00088608093F000CD2B99
:1048B000CF70C093E900FF91EF91DF91CF91BF914D
:1048C000AF919F918F917F916F915F914F913F91A8
:1048D0002F910F900FBE0F901F9018951F920F925F
:1048E0000FB60F9211242F933F934F935F936F93C3
:1048F0007F938F939F93AF93BF93EF93FF93809199
:10490000E10082FF09C08091E20082FF05C0809132
:10491000E1008B7F8093E1008091E10080FF17C070
:104920008091E20080FF13C08091E2008E7F80932F
:10493000E2008091E20080618093E2008091D800E3
:1049400080628093D80019BC85E080930B0380912E
:10495000E10084FF2EC08091E20084FF2AC084E041
:1049600089BD86E089BD09B400FEFDCF8091D800E5
:104970008F7D8093D8008091E1008F7E8093E1004D
:104980008091E2008F7E8093E2008091E20081605E
:104990008093E20080910C03882311F084E007C02B
:1049A0008091E30087FD02C081E001C083E0809335
:1049B0000B038091E10083FF27C08091E20083FF19
:1049C00023C08091E100877F8093E10082E08093A3
:1049D0000B0310920C038091E1008E7F8093E10025
:1049E0008091E2008E7F8093E2008091E2008061FE
:1049F0008093E20042E060E080E00E941F2180910D
:104A0000F00088608093F000FF91EF91BF91AF912B
:104A10009F918F917F916F915F914F913F912F91D6
:104A20000F900FBE0F901F9018958091E802089587
:104A300080E00895CF93DF9300D01F92CDB7DEB70B
:104A400090910B03943011F589837B836A83909353
:104A5000E9008FEF9091E800815095FD06C095ED3B
:104A60009A95F1F700008111F5CF8091E80085FF5C
:104A70000DC040E050E063E070E0CE0101960E947E
:104A8000F3208091E8008E778093E8000F900F90DC
:104A90000F90DF91CF910895BC0184E00C941A250A
:104AA000BC0183E00C941A2524E02093E9002FEF49
:104AB0003091E800215035FD06C035ED3A95F1F70B
:104AC00000002111F5CF2091E80025FF0BC040E048
:104AD00050E066E070E00E94F3208091E8008E775D
:104AE0008093E8000895CF93DF9320911301222350
:104AF00039F020919F0227FF03C060E224E002C04A
:104B000068E021E02093E9002FEF3091E800215088
:104B100035FD06C035ED3A95F1F700002111F5CFCE
:104B20002091E80025FF1DC0EC0180911301811147
:104B300005C040E050E068E070E003C070E040E095
:104B400050E0CE010E94F3208091E8008E778093A0
:104B5000E80080E2FE01A9EEB2E001900D928A9594
:104B6000E1F7DF91CF91089581E08093E00080E24A
:104B70008093D8001092C9008FE19EE40197F1F76D
:104B800000C0000087E090EBDC018093AE039093BF
:104B9000AF03A093B003B093B1039CE088E10FB6DC
:104BA000F894A895809360000FBE90936000FFCFAB
:104BB00078941F920F920FB60F9211248F939F93A8
:104BC000AF93BF938091A2039091A303A091A403FC
:104BD000B091A5030196A11DB11D8093A2039093EE
:104BE000A303A093A403B093A503BF91AF919F919A
:104BF0008F910F900FBE0F901F9018959C014FB78B
:104C0000F8948091A2039091A303A091A403B09182
:104C1000A5034FBF821B930B08952FB7F8946091A3
:104C2000A2037091A3038091A4039091A5032FBFC9
:104C300008952FB7F8948091A2039091A303A091B7
:104C4000A403B091A5032FBF08951F920F920FB632
:104C50000F9211248F939F93AF93BF938091AB02D8
:104C6000811113C08091A2039091A303A091A4038A
:104C7000B091A5034196A11DB11D8093A20390930D
:104C8000A303A093A403B093A503BF91AF919F91F9
:104C90008F910F900FBE0F901F90189520911301C8
:104CA0002223C9F020919F0227FF15C0262F2695A9
:104CB000269526952E31C8F4FC01E20FF11D677090
:104CC00081E090E001C0880F6A95EAF780959281B3
:104CD000892382830895FC0106962281621301C014
:104CE00012823196E817F907C1F708952091130150
:104CF0002223C1F020919F0227FF14C0262F269562
:104D0000269526952E3130F5FC01E20FF11D6770D6
:104D100081E090E001C0880F6A95EAF79281892BC3
:104D200082830895FC0132962FEF30E041916417A1
:104D300089F02F3F19F4411101C0232F3F5F363016
:104D4000A9F72F3F39F0FC01E20FF11D27FDFA957D
:104D5000628308950895CF9384E090E00E946C2EC2
:104D6000C82F82E290E00E946C2E2C2F30E0A90127
:104D7000582BCA01CF9108956AEE7EEF80E090E053
:104D80000E94982E60E082E090E00E947A2E60E01F
:104D900083E090E00E947A2E10929E0310929F036F
:104DA0001092A0031092A10360E084E090E00E94C2
:104DB0007A2E60E082E290E00E947A2E60E085E048
:104DC00090E00E947A2E60E086E090E00E947A2EC9
:104DD0006FEF87E090E00E947A2E40E050E0BA0149
:104DE00088E090E00E948C2E60E08DE090E00E94D0
:104DF0007A2E40E050E0BA0188E190E00E948C2ECB
:104E000060E087E190E00E947A2E40E050E0BA0135
:104E10008CE190E00E948C2E60E070E080E290E0F7
:104E20000E94982E40E050E0BA0188E190E00E9494
:104E30008C2E40E050E0BA018FE090E00E948C2E72
:104E400040E050E0BA0183E190E00C948C2E809118
:104E50009D03882331F010929D0310929C031092C1
:104E60009B030895809590919A03892380939A03D8
:104E700008958095909199038923809399030895CB
:104E8000CF93C091A002C2FB992790F9981781F0A7
:104E900080FBC2F9C093A00260919F0284E090E081
:104EA0000E947A2E6C2F82E290E0CF910C947A2EA1
:104EB000CF91089510929703109296031092950344
:104EC00008958091560290915702892B89F00E9493
:104ED000192620919B0330919C03AC01421B530B7C
:104EE00081E020915602309157024217530708F48F
:104EF00080E0817008959091990380919A03892BA5
:104F000090919803892B8093190380919D038823A6
:104F100051F18091560290915702892B29F00E94FD
:104F2000612781110E9427279091190380919D0389
:104F3000892B8093190380911301882331F080918C
:104F40009F0287FF02C08EE101C086E0EBE1F3E043
:104F500090E0815028F021912223D9F39F5FF9CF6F
:104F600091110E942727E091A902F091AA0230979F
:104F7000A9F080911301882359F080919F0287FF47
:104F800007C08091190380931A0385E08093190369
:104F90000280F381E02D89E193E0099408958091E6
:104FA00094038111109294030895BF92CF92DF92DF
:104FB000EF92FF920F931F93CF93DF938C01C090DA
:104FC0001503D0901603E0901703F090180380911A
:104FD0009E0390919F03A091A003B091A103C82AC2
:104FE000D92AEA2AFB2ACFE1D0E0D701C6010C2E4C
:104FF00004C0B695A795979587950A94D2F780FD3A
:1050000004C0219790F7B12C07C0BC2EB8018C2F9B
:105010000E940C180197A9F38B2DDF91CF911F915E
:105020000F91FF90EF90DF90CF90BF900895CF93B6
:10503000DF93EC010E94D527BE010E940C18DF917E
:10504000CF910895282F892F9E3F71F16DE00E9426
:10505000B62E820FA82FA77086958695869590E02C
:1050600065E070E00E94BF2EBC0140E050E090E09F
:10507000FB01E40FF51FEF58FC4F208130E00A2EB2
:1050800002C0369527950A94E2F721703327042E43
:1050900001C0220F0A94EAF7922B4F5F5F4F453011
:1050A000510531F7892F089580E00895282F892F21
:1050B000362F9E3F69F16DE00E94B62E820F982F29
:1050C0009770A1E001C0AA0F9A95EAF78695869598
:1050D000869590E065E070E00E94BF2EFC01EF58DD
:1050E000FC4F40E050E0632F70E090819B01042E64
:1050F00002C0369527950A94E2F721702195292759
:105100002A23292721934F5F5F4F4530510569F7C7
:10511000089560931503709316038093170390937B
:1051200018030C94C41C0F931F9341E050E060E0FF
:1051300070E004C0440F551F661F771F8A95D2F791
:105140004095509560957095809115039091160348
:10515000A0911703B09118038A019B01082319231A
:105160002A233B23C901B8011F910F910C94892870
:10517000209197038095822380939703982F9770AF
:1051800041F430E0482F082E000C550B241735074A
:1051900021F49091A00292FF07C085958595859591
:1051A0000E9493280C945A2708950F931F9341E06F
:1051B00050E060E070E004C0440F551F661F771F89
:1051C0008A95D2F78091150390911603A091170349
:1051D000B09118038A019B01082B192B2A2B3B2B1A
:1051E000C901B8011F910F910C9489289091A002D8
:1051F00092FD10C0982F990F990F990F692B60930A
:1052000097030E94D5280E941926909396038093B5
:10521000950308950C94D52860939E0370939F0383
:105220008093A0039093A1030C94C41CCF93B82F38
:10523000C62F20917003A0913F032A17B1F030E0F0
:10524000C90166E070E00E94BF2EFC01E05CFC4FEB
:1052500081818C1306C080818B1303C082818413EB
:1052600006C02F5F3F4F2770E8CF80E001C081E08C
:10527000CF910895452B41F06F3F41F491E08F3F6E
:1052800009F090E0892F03C081E001C080E08170C7
:1052900008958091700390913F03891719F08F5FF3
:1052A0008770FBCF0895E4E5F2E0848195812AE0E0
:1052B00030E0B9010E94D02E609305018681809371
:1052C0000601828580931701848580931601868567
:1052D0009785B9010E94D02E609303018089809345
:1052E00004018289809315018489809314010895B3
:1052F0008091540290915502909319018093180166
:105300000895009741F0EFE9FFE03197F1F700C011
:1053100000000197F6CF08952091AC033091AD03C2
:105320002817390771F09093AD038093AC03E09197
:10533000A902F091AA02309721F00084F185E02DB6
:10534000099408952091AA033091AB0328173907D7
:1053500071F09093AB038093AA03E091A902F091BE
:10536000AA02309721F00680F781E02D0994089574
:10537000E091A902F091AA02309721F00190F0810A
:10538000E02D099480E00895FF920F931F93CF932F
:10539000DF938C01EB01F42E8091020182FF3CC06F
:1053A0008B7F8093020180914E0290914F029B016E
:1053B000281B390B80911801909119012817390782
:1053C00050F480914C020E94281D809102018D7F33
:1053D0008093020116C080919A03826080939A03A1
:1053E00080914C020E94281D80910201826080936E
:1053F000020180916F0285FF04C086FD02C0F1109A
:105400001EC080917202909173020E948129809146
:105410004C020E94F61C0AC0802F0E94F61C80914C
:105420004C0290914D020817190719F482E00E946E
:1054300032270E947B27D0934F02C0934E02DF9108
:10544000CF911F910F91FF900895CF93DF93EC01BF
:1054500081E0898B909199038F81892B80939903A7
:1054600090919A038885892B80939A030E947B27C9
:10547000EA81FB81CE010696309729F06C897D89FF
:10548000DF91CF910994DF91CF9108950F931F93EE
:10549000CF93DF93FC012285211134C0EC010381FD
:1054A00014811755C80166E170E00E94BF2EDC012F
:1054B000A857BE4F1496ED91FC91159782579E4FB9
:1054C000309729F054966D917C9155970995C801B4
:1054D00066E170E00E94BF2E8C0108571E4FF80154
:1054E00087810E943927F80180850E9432270E9417
:1054F0007B27188219861B861E821D8210928701C7
:1055000010928601DF91CF911F910F910895E6E7E8
:10551000F2E080E090E08830910531F0248127FFAF
:10552000148201963596F7CF90934B0280934A02EE
:105530000895CF93909146029923C9F0882311F0E2
:10554000C0E003C01092460212C080914602C81704
:10555000C8F7EC2FF0E0EE0FFF1FE85CFD4F8081F5
:1055600091810E94171B0E947B27CF5FEECFCF91C6
:1055700008950F931F93CF93DF93C42FD22FFC0175
:1055800082818823C9F0409350020E94192690938B
:10559000A9038093A80380E28C0F883008F05BC0D9
:1055A000C77081E001C0880FCA95EAF7DF91CF91FB
:1055B0001F910F910C94831C80915002481334C0AA
:1055C0008091A8039091A9030E94FE2520916C026E
:1055D00030916D028217930738F510E21D0FCD1739
:1055E000B9F080E28C0F883040F4C77081E001C0D0
:1055F000880FCA95EAF70E94941C183028F581E0BC
:105600009D2F977001C0880F9A95EAF70E94831C1E
:10561000802F0E94A01D1830F0F4D77081E001C0E7
:10562000880FDA95EAF70AC080E28C0F883098F488
:10563000C77081E001C0880FCA95EAF7DF91CF916A
:105640001F910F910C94941C802FDF91CF911F918B
:105650000F910C94A01DDF91CF911F910F91089590
:105660000F931F93CF93DF9304E512E0C7EDD1E0D2
:10567000CE010E946C2EF80181938F012196C93FC3
:10568000F1E0DF07A9F7C0E0D0E0FE01E252FF4FF2
:1056900085919491009711F0FC0109952896C839DD
:1056A000D10599F7DF91CF911F910F9108950F9335
:1056B0001F93CF93DF9304E512E0C7EDD1E0CE0155
:1056C0000E946C2EF80161918F01681719F0CE01CC
:1056D0000E947A2E2196C93FF1E0DF0781F7DF9122
:1056E000CF911F910F910895E4E5F2E0128E138E91
:1056F0008FEA90E09183808385E0848F88E893E14E
:10570000938382832CE231E03583248382E390E02B
:105710009783868385E090E0918780878AE090E098
:105720009387828744E150E05587448737872687EF
:1057300024E630E0318B208B28E030E0338B228B65
:1057400028E230E0358B248B28EC30E0378B268B39
:10575000318F208F158E978F868F80E590E091A3F3
:1057600080A30E94572B0C94302BCF93DF93C9E971
:10577000D2E060E0CE010E947A2E2196C11584E02D
:10578000D807B9F7DF91CF910895462F2091CF0226
:105790003091D002232B91F47E3F39F46E3F71F4A7
:1057A0008091A6039091A7030895843038F4743053
:1057B00028F46D3018F4672F0C94901480E090E07A
:1057C0000895883088F49B0190E06AE070E00E94C0
:1057D000BF2EBC01675B7D4F4AE050E0C9010E94CB
:1057E0005C2E80E090E008958FEF9FEF0895883061
:1057F00088F49B0190E06AE070E00E94BF2EBC013B
:1058000067507E4F4AE050E0C9010E945C2E80E064
:1058100090E008958FEF9FEF08950F931F93CF931C
:10582000DF93843048F5611127C0423028F52115F7
:105830009CE5390731F46091070170910801672BED
:10584000D9F08901C82FD0E0CC0FDD1FCC0FDD1FB0
:1058500050E0440F551FC40FD51FC953DE4F612FB1
:10586000CE010E947A2E602FCE010196DF91CF915A
:105870001F910F910C947A2EDF91CF911F910F9170
:1058800008957F928F929F92AF92BF92CF92DF92B4
:10589000EF92FF920F931F93CF93DF93CDB7DEB7B5
:1058A00064970FB6F894DEBF0FBECDBF809007019E
:1058B0009090080181E090E09093080180930701A7
:1058C0009BE8C92E95E0D92E00E010E0C80168E6FB
:1058D00070E00E94BF2E5C01712CE12CF12CF701CD
:1058E000EE0FFF1FEA0DFB1DE556FA4F259134918F
:1058F0004E2D672D802F0E9453148FEFE81AF80A5F
:10590000EDE0EE16F10459F7FAE1AF0EB11C739415
:1059100084E07812E2CFF6012591349140E060E016
:10592000802F0E940D2CF60132962591349141E092
:1059300060E0802F0E940D2C0F5F1F4FE4E0CE0E21
:10594000D11C0430110509F0C1CF0E94742B1A82BA
:1059500019821C821B821E821D8218861F8288EC7F
:1059600090E09A87898709EF11E04AE050E0B8019A
:10597000CE0101960E949E2E065F1F4F0934F2E071
:105980001F0799F77E018BE0E80EF11C8AE0F70112
:1059900011928A95E9F74AE050E0B801C7010E94E8
:1059A0009E2E065F1F4F0939F2E01F07A1F7909264
:1059B00008018092070164960FB6F894DEBF0FBE0F
:1059C000CDBFDF91CF911F910F91FF90EF90DF90AE
:1059D000CF90BF90AF909F908F907F9008950F933E
:1059E0001F93CF93DF938430F8F461111DC04230D0
:1059F000D8F4C82FD0E0CC0FDD1FCC0FDD1F50E056
:105A0000440F551FC40FD51FC953DE4FCE010E944E
:105A10006C2E90E0182F0027CE0101960E946C2E6C
:105A20009801282BC90102C080E090E0DF91CF915E
:105A30001F910F910895CF92DF92FF920F931F93C2
:105A4000CF93DF93CDB7DEB767970FB6F894DEBF7D
:105A50000FBECDBFF42E4B8B052F5C8B162F6D8B9D
:105A60007E8B8F8BCE88DF88A601602F8F2D0E94C2
:105A70003A29811109C080915202909153020196F6
:105A80009093530280935202111110929A03FE01D7
:105A90003D9686E0DF011D928A95E9F780915602D6
:105AA00090915702892B11F10E941926209195039C
:105AB00030919603821B930B20915602309157022E
:105AC0008217930740F08091970382FB992790F902
:105AD00081E0892701C080E080FF03C082E00E944E
