:100000000C94C3020C940A030C940A030C940A0384
:100010000C940A030C940A030C940A030C940A032C
:100020000C940A030C940A030C948D240C94602500
:100030000C94261D0C940A030C940A030C940A03D6
:100040000C940A030C940A030C940A030C940A03FC
:100050000C940A030C948E1D0C940A030C940A034E
:100060000C940A030C940A030C940A030C940A03DC
:100070000C940A030C940A030C940A030C940A03CC
:100080000C940A030C940A030C940A030C940A03BC
:100090000C940A030C940A030C940A030C940A03AC
:1000A0000C940A030C940A030C940A032B0014000A
:1000B0001A000800150017001C0018000C001200A0
:1000C00013002D00290004001600070009000A0093
:1000D0000B000D000E000F0033003400E1001D0086
:1000E0001B00060019000500110010003600370043
:1000F0003800E500E3003543E200E0002A422C002E
:100100000000284133021E001F00270035001E009A
:100110001F002000210022002300240025002600CB
:1001200027002E0035021E021F0220022102220299
:1001300023022F00300031003102000000000000D7
:10014000000000000000000000002F02300200004C
:100150000000000001000000010001000100390062
:1001600000000100000000000000000035021E0237
:100170001F02200221022202230224022502AA00D9
:10018000A900A80000002D022E022602270200006E
:100190005000510052004F004E004B000000000084
:1001A000000036023702000000000000F200F100FB
:1001B000F000F300010000000100010001004A000E
:1001C00000000100F400F500000000003A003B00D0
:1001D0003C003D003E003F00400041004200430023
:1001E0004400450000000000000000000000000086
:1001F0000000C25CC35CC55CC65C0000000000007F
:1002000000000000000000000000000000000000EE
:1002100000000000010000000100010001000000DA
:1002200000000100000000000000000000047F3F0B
:100230001F643214643214783C1E1E140A052223F3
:10024000252628292A2C2D2F3032333536383A3BB3
:100250003D3E4042434547494A4C4E505153555705
:10026000595A5C5E6062646668696B6D6F71737524
:1002700077797B7D7F81838587898A8C8E90929424
:1002800096989A9C9E9FA1A3A5A7A8AAACAEAFB131
:10029000B3B4B6B8B9BBBCBEBFC1C2C3C5C6C7C97B
:1002A000CACBCCCDCED0D1D2D2D3D4D5D6D7D7D835
:1002B000D9D9DADADBDBDBDCDCDCDCDCDDDDDDDD87
:1002C000DCDCDCDCDCDBDBDBDADAD9D9D8D7D7D68F
:1002D000D5D4D3D2D2D1D0CECDCCCBCAC9C7C6C546
:1002E000C3C2C1BFBEBCBBB9B8B6B4B3B1AFAEAC8C
:1002F000AAA8A7A5A3A19F9E9C9A98969492908E37
:100300008C8A89878583817F7D7B79777573716F0F
:100310006D6B6968666462605E5C5A5957555351EB
:10032000504E4C4A4947454342403E3D3B3A3836A1
:10033000353332302F2D2C2A292826252322FFAAB7
:100340007F55400000000000000000000001010196
:100350000101010101010202020202020202030381
:10036000030303030304040404040505050505064B
:100370000606060607070707080808080909090A04
:100380000A0A0B0B0B0C0C0C0D0D0D0E0E0E0F0FA5
:10039000101010111112121313141415151616172C
:1003A00017181819191A1A1B1C1C1D1D1E1F1F2097
:1003B000212122232324252526272828292A2B2CDE
:1003C0002C2D2E2F30313132333435363738393AFF
:1003D0003B3C3D3E3F404142434445464748494BF4
:1003E0004C4D4E4F50525354555758595A5C5D5EC0
:1003F000606163646567686A6B6C6E6F7172747656
:1004000077797A7C7D7F8182848687898B8D8E90B7
:1004100092949597999B9D9FA1A2A4A6A8AAACAEE1
:10042000B0B2B4B6B9BBBDBFC1C3C5C8CACCCED0CB
:10043000D3D5D7DADCDEE1E3E6E8EAEDEFF2F4F774
:10044000F9FCFF04033000000012034E0049005580
:100450000020004D0069006E006900000010034B91
:100460000042004400460061006E0073000000047A
:1004700003090409023B00020100A0FA090400007C
:1004800001030101000921110100012240000705BB
:10049000810308000A09040100010300000009218A
:1004A000110100012285000705820320000A1201C4
:1004B000100100000008EDFE606001000102030170
:1004C00005010902A10185020901A100050919011F
:1004D0002905150025019505750181029501750312
:1004E00081010501093009311581257F95027508C3
:1004F000810609381581257F950175088106050C4F
:100500000A38021581257F950175088106C0C0054E
:10051000010980A10185031601002603001A81004C
:100520002A8300751095018100C0050C0901A10105
:100530008504160100269C021A01002A9C027510EF
:1005400095018100C005010906A101050719E029EF
:10055000E71500250195087501810295017508814F
:100560000105081901290595057501910295017587
:100570000391010507190029FF150026FF009506C4
:1005800075088100C00011241FBECFEFDAE0DEBF86
:10059000CDBF04B603FE27C0809153029091540250
:1005A000A0915502B09156028730904BA740B04BB6
:1005B000D1F41092530210925402109255021092EC
:1005C000560214BE84B7877F84BF0FB6F894A895EF
:1005D00080916000886180936000109260000FBE7F
:1005E000E0E0F8E3099511E0A0E0B1E0E2E3FFE428
:1005F00002C005900D92A835B107D9F722E0A8E511
:10060000B1E001C01D92A335B207E1F70E94BA2103
:100610000C9497270C9400006E9A769A0C9412080A
:1006200081E0089581E008950C9412031F93CF9305
:10063000DF9300D000D01F92CDB7DEB749835A8335
:100640006B8320918C0189819A8121111BC06623C3
:10065000A9F00E94D01A182F682F89819A810E94D0
:10066000761A69817A81812F0F900F900F900F90E9
:100670000F90DF91CF911F910C9497050E94A51ABE
:10068000182FEFCF0E94D01A69817A81EDCFFC013B
:10069000408151816281738184810C9416030E9490
:1006A000171C811102C00E94911C0C940C030C9425
:1006B000140808950C9459030C945A0308950E9449
:1006C00085150E945E032FEF84E39CE0215080405B
:1006D0009040E1F700C000000C94B41D0F931F93ED
:1006E000CF93DF938C010E944703EC01B8010E9475
:1006F0001403882309F4CCC0B801CE010E94A70FCF
:10070000882309F4C5C0CA3C8CE5D80709F402C1A6
:1007100008F054C0C33CECE5DE0709F4D3C048F54B
:10072000C5318CE5D807A8F4C2309CE5D90708F09C
:1007300056C1C115ECE5DE0709F4A5C0C130DC45A2
:1007400009F4ACC0C801DF91CF911F910F910C94B7
:100750001003C6318CE5D80709F4C5C1C23CDC459D
:1007600089F7F8018281882309F492C00E94210E42
:100770008FC0C63CECE5DE0709F4BAC080F4C43C87
:100780008CE5D80709F4A9C0C53CDC45D9F6F801C9
:100790008281882309F47CC00E94AD0B79C0F801E6
:1007A0008281C83CFCE5DF0709F4AEC008F4A7C0AD
:1007B000882309F46DC00E94E70B6AC0C13DECE5D7
:1007C000DE0709F4DBC070F5CD3C8CE5D80709F4F1
:1007D000B1C088F4CB3CECE5DE0709F4A3C0CC3C07
:1007E000DC4509F0AFCFF8018281882309F450C0BD
:1007F0000E94470A4DC0F8018281CF3CFCE5DF072B
:1008000009F4AEC008F49FC0882309F441C00E94D7
:100810002E0A893028F00E942E0A8E3008F465C016
:1008200089E08EC0C53DECE5DE0709F4CAC0B0F42E
:10083000F8018281C33DFCE5DF0709F4BDC008F47F
:10084000ADC0882329F10E942E0A893128F00E9428
:100850002E0A823208F449C089E172C0CD3DECE530
:10086000DE0709F4B5C0CE3DFCE5DF0721F1CC3D44
:10087000DC4509F067CFF8018281882349F080E0E8
:100880000E94552205C0F801828181110E945F03F8
:1008900080E0DF91CF911F910F910895F80182813F
:1008A0008823B1F39091F801892F8E7F90FF8160AA
:1008B0008093F801EDCFF8018281882349F30E94EB
:1008C000911CE6CFF8018281882311F30E94651BF9
:1008D000827259F00E94130EDBCFF80182818823C7
:1008E000B9F20E94651B8272A9F30E94060ED0CF56
:1008F000F8018281882361F20E94BA0BC9CF882354
:1009000039F20E94C90BC4CF882309F4C1CF0E94D9
:10091000D80BBECFF8018281882309F4B9CF0E9499
:10092000F60BB6CFF8018281882309F4B1CF0E947B
:10093000360AAECFF8018281882309F4A9CF81E07D
:100940000E94160EA5CF882309F4A2CF0E942E0A7A
:10095000823020F00E942E0A853038F282E0F0CFFB
:10096000882309F495CF0E942E0A863028F00E9431
:100970002E0A883008F4B9CF86E0E2CFF8018281F0
:10098000882309F485CF0E942E0A8F3028F00E9418
:100990002E0A843108F4A9CF8FE0D2CF882309F43E
:1009A00077CF0E942E0A853128F00E942E0A8731C7
:1009B00008F49BCF85E1C4CF882309F469CF88E18F
:1009C000BFCFF8018281882309F462CF83E2B8CFD8
:1009D000F8018281882309F45BCF82E051CFF801CE
:1009E0008281882309F4AECE0E94171C811102C0B7
:1009F0000E94911C0E942A1C90E0909345028093D3
:100A00004402FE01E350FC45809144028160E231E2
:100A1000F105C8F4E25FFA4F0C943C2720052C0541
:100A20003005340538053C054005440548054C05AE
:100A30005005540558055C056005640568056C059E
:100A400080914402826080934402809144020E941B
:100A50002E1C0E9485151CCF809144028460F3CF28
:100A6000809144028860EFCF809144028061EBCF97
:100A7000809144028062E7CF809144028064E3CF9A
:100A8000809144028068DFCF809144028460EACF85
:100A9000809144028E7FD7CF809144028D7FD3CF47
:100AA000809144028B7FCFCF80914402877FCBCF50
:100AB000809144028F7EC7CF809144028F7DC3CF47
:100AC000809144028F7BBFCF809144028F77BBCF50
:100AD000809144028B7FEACF90914402892F97FB4B
:100AE00087F98058B0CF0E94651BF8019281992345
:100AF00081F08A7A91E009F490E090935801811195
:100B000006C089E20E94401B0E94B41BC1CE85E34F
:100B1000F9CF80915801811104C089E20E94471BDE
:100B2000F3CF85E3FBCF90E080E008950895972F01
:100B300070E02CE0929F600D711D1124FB0190E389
:100B4000899FE00DF11D1124EE0FFF1FE455FF4FAB
:100B5000859194910895FC01EE0FFF1FE45DFD4F18
:100B6000859194910895CF93DF930E9497050E94F9
:100B70006F07EC018115904508F043C0C11580E472
:100B8000D80708F017C1C83ED10528F5C03ED105E9
:100B900008F0A3C0C83AD10580F4C53AD10508F0E1
:100BA00092C0C130D10509F498C020F0C430D105FD
:100BB00008F093C0D0E0C0E090C0CF3BD10508F46E
:100BC00090C0CE01805C9109C03CD10598F30E9491
:100BD000AB05EC0182C0C11520E2D20750F4C1156B
:100BE00081E0D80708F079C0C03FD10518F3D0657F
:100BF00074C0C11520E3D20708F0D2C0CE019F70A7
:100C0000E6CFC11585E5D80760F5C11524E5D20703
:100C100008F0FEC0C11582E5D80750F4C11521E5E2
:100C2000D20708F4CAC0DC2FCC27C16FD06A55C0E8
:100C30009C2F969596959E0123703327C115D34519
:100C400008F0D7C0C1E0D0E002C0CC0FDD1F2A956C
:100C5000E2F720E2929FC0011124C82BD92BDC6857
:100C60003CC0C11529E5D207A8F4C11588E5D8070D
:100C700008F0D3C0C11526E5D20708F09BCF8C2F12
:100C80000E94EF07C82FD0E0DC2FCC27CC27DF71E4
:100C9000D06223C0C1158AE5D80708F4C3C0CE01CD
:100CA00090568115904208F085CF8D2F8F710E944C
:100CB000EF07DD27D06290E0982F882788279F7163
:100CC000C82BD92B0AC0C53AD10509F4BDC0C63A14
:100CD000D10509F4BCC0C3E8D0E4CE01DF91CF91C7
:100CE0000895C83AD10509F4B5C0C93AD10509F447
:100CF000B4C0CA3AD10509F4B3C0CB3AD10509F45E
:100D0000B2C0CC3AD10509F4B1C0CB3BD10509F44E
:100D1000B0C0CC3BD10509F4AFC0CD3AD10509F440
:100D2000AEC0C03BD10509F4ADC0CE3AD10509F43F
:100D3000ACC0CF3AD10509F4ABC0C13BD10509F431
:100D4000AAC0C23BD10509F4A9C0C33BD10509F42F
:100D5000A8C0C43BD10509F4A7C0C53BD10509F41F
:100D6000A6C0C63BD10509F4A5C0C73BD10509F40F
:100D7000A4C0C83BD10509F4A3C0C93BD10509F4FF
:100D8000A2C0CD3BD10509F4A1C0CE3BD10509F4E9
:100D9000A0C0CA3BD10509F09FC0CAE2D6E49DCFEE
:100DA000CE019927D3FF03C0EC01D86C96CFEC019C
:100DB000D06C93CFDF70D06A90CFCE01F4E09695DF
:100DC0008795FA95E1F783709C2F937021E030E0CE
:100DD00002C0220F331F9A95E2F73C68382BC69564
:100DE000C695C37080E2C89FE0011124C22BD32BAB
:100DF00074CFC1E0D0E002C0CC0FDD1F2A95E2F72E
:100E000020E2929FC0011124C82BD92BDA6865CF4C
:100E1000DC2FCC27C46FD06A60CFDC2FCC27C06F0B
:100E2000D06A5BCF8C2F8F700E94EF0734E0D6958D
:100E3000C7953A95E1F7CF70D0E0DC2FCC27D06A88
:100E40008F70806EC82B49CFC1E8D0E446CFC2E88E
:100E5000D0E443CFC2EED4E440CFC9EED4E43DCFDA
:100E6000CAEED4E43ACFC5EBD4E437CFC6EBD4E432
:100E700034CFC3EBD4E431CFC4EBD4E42ECFC7EBF3
:100E8000D4E42BCFCCECD4E428CFCDECD4E425CFE4
:100E9000C3E8D5E422CFCAE8D5E41FCFC2E9D5E440
:100EA0001CCFC4E9D5E419CFC1E2D6E416CFC3E222
:100EB000D6E413CFC4E2D6E410CFC5E2D6E40DCF1A
:100EC000C6E2D6E40ACFC7E2D6E407CFCFE6D4E441
:100ED00004CFC0E7D4E401CFC0E0D4E4FECE823832
:100EE000910549F1B0F48133910509F45CC048F4EF
:100EF0008932910509F452C08A32910509F458C02B
:100F000008958533910509F444C08933910599F01A
:100F10000895833E910531F138F4803E910591F0BA
:100F2000823E9105B1F00895863E910511F1873E0C
:100F3000910541F10895209144022370C9F080EE9B
:100F400090E008952091440220FF12C089E390E0D0
:100F500008952091440222FF0BC024FF2EC090E090
:100F600080E008952091440222FD2AC024FDF7CF9D
:100F700008952091440223FFFBCF24FDF0CF87EE9C
:100F800090E008952091440223FFF0CF86EE90E098
:100F900008952091440225FD16C008952091440231
:100FA00025FD14C008952091440226FD12C0089525
:100FB0002091440226FD10C0089583EE90E008952C
:100FC00082EE90E0089589E290E0089585E390E054
:100FD00008958AE290E0089581E390E0C9CF90916E
:100FE000440292FF06C0282F2871283069F4877FB9
:100FF000846093FF06C0282F2871283161F4877E12
:10100000846194FD877E0895282F2471243089F708
:101010008B7F8860EECF282F2471243191F78B7E4F
:101020008861EFCF089508950C941308E82FF0E03D
:10103000EE0FFF1FE75AFE4F8081918108950895BA
:10104000CF93DF93AFE2B1E023E331E061E070E002
:101050009D91E92FE295EF70F0E041A19F70EB01C7
:1010600002C0CC0FDD1F9A95E2F7CE018095842354
:1010700081A32A173B0761F7A3E2B1E04FE251E0F9
:10108000C1E0D0E08D91E82FE295EF70F0E061A132
:101090008F709E0101C0220F8A95EAF7922F9095DA
:1010A000962391A382A1822B82A34A175B0751F753
:1010B000109262011092610110925A01109259012E
:1010C000109264011092630110925C0110925B0116
:1010D000109266011092650110925E0110925D01FE
:1010E00010926801109267011092600110925F01E6
:1010F00084E00E941109DF91CF910C944F037F92FD
:101100008F929F92AF92BF92CF92DF92EF92FF9217
:101110000F931F93CF93DF93A1E6B1E04FE251E02D
:10112000712CEE24E394F12CAD90BC9011971196A4
:101130001C921E92EA018991AE01E82FE295EF70B0
:10114000F0E091A18F70B70101C0660F8A95EAF7B0
:10115000892F862B81A382A1962E9094892182A328
:10116000D0EADA95F1F783E2C82E81E0D82E30E09C
:1011700020E0E60189906E01082D02950F7010E0C5
:10118000E80188A10D911C91119790E0D82DDF7096
:1011900002C095958795DA95E2F780FD3FC0C701BB
:1011A000022E02C0880F991F0A94E2F7082B192B10
:1011B00011961C930E932F5F3F4F2C303105C9F6CB
:1011C00081A1892181A382A1682B62A381E02D9155
:1011D0003C9111972A153B0509F480E0782A129674
:1011E000D1E043335D0709F09FCF272D44E069E547
:1011F00071E081E691E00E9412090E945703872D59
:10120000DF91CF911F910F91FF90EF90DF90CF90E2
:10121000BF90AF909F908F907F90089590E080E076
:10122000C5CF0895FF920F931F93CF93DF93F82EAE
:10123000092F162FD72FC42F222349F081E0809346
:101240006B010E94581D90936A01809369018091FF
:101250006B018823A1F08091690190916A010E943D
:10126000641D069760F0EF2DF02FA12FBD2F90E0A9
:1012700080E0D0E08C179D0744F010926B01DF9165
:10128000CF911F910F91FF900895219131912D934E
:101290003D930196EFCFAF92BF92CF92DF92EF9244
:1012A000FF920F931F93CF93DF93F62EE72E382FE5
:1012B000282FE82FF0E0711110C0ED5BFC4F649116
:1012C000762F862FDF91CF911F910F91FF90EF9096
:1012D000DF90CF90BF90AF900895072F10E046E0C9
:1012E000649FC0011124CFEFD0E0BE010E941427FB
:1012F000AB018F2D90E0880F991FA5E5A49FB00149
:10130000A59F700D1124861B970B982F990F980F8E
:10131000BE01601B710B6E9FD0016F9FB00D7E9F51
:10132000B00D11248B2F9E9DB0011124672F7727BC
:101330007E01E61AF70AB7016E9F70016F9FF00CED
:101340007E9FF00C11247F2D5E01A91AB108A09E8A
:101350006001A19ED00CB09ED00C1124CD2CDD24B8
:10136000CC19DD09CE9F8001CF9F100DDE9F100D9F
:1013700011244230510541F150F44115510591F0CD
:101380004130510589F02B2F8F2D732F0DC0443024
:101390005105E9F02F2D7B2F44305105D0F0463018
:1013A000510589F7732F212FE72FF0E0ED5BFC4FFC
:1013B0007491E22FF0E0ED5BFC4F6491E82FF0E0D8
:1013C000ED5BFC4F84917ECF7B2F812FEDCF712F72
:1013D0002B2F832FE9CF0895CF93DF93762FE90149
:1013E000682F842F0E944B09798368838A83DF9159
:1013F000CF91089580910F02982F9E7F29F48170DC
:10140000826080930F0208958A34E8F381708864C3
:10141000F8CF88E090E00C945727CF92DF92EF92BC
:10142000FF926B017C010E94FA09B701A60188E0D6
:1014300090E0FF90EF90DF90CF900C947527EFE055
:10144000F2E083E0808311828FEF828383831482B2
:1014500060817181828193810C940D0A80910F02C9
:1014600080FF02C08695089580E008958091130260
:10147000833018F48F5F8093130260910F02709194
:10148000100280911102909112020C940D0A809129
:101490001302882319F081508093130260910F0288
:1014A0007091100280911102909112020C940D0A19
:1014B0006091040170E080910F0280FF0AC080916A
:1014C000700123E0829FC00111248C5E9D4F0C941B
:1014D000300F80916F019091030123E0829FF00112
:1014E0001124EC5EFD4F891750F711821082128291
:1014F0008F5F3396F8CF90910F0290FF14C09091B8
:101500006F012091030133E0939FF0011124EC5E01
:10151000FD4F921710F00C94580A81836083428328
:101520009F5F3396F6CF0895CF93DF9300D01F923D
:10153000CDB7DEB790910F0290FF0AC09E012F5FDA
:101540003F4F0E94EC094B8169818A810E947B0A8E
:101550000F900F900F90DF91CF910895CF93DF936D
:10156000EC01EC81F0E0E25CFD4F4491EFE0F2E051
:10157000628181810E94940A8C818F5F8C83DF91CC
:10158000CF910895CF93DF93EC01EFE0F2E0438138
:1015900062818C810E94940A8C818F5F8C83DF91A1
:1015A000CF9108950F931F93CF93DF9300D01F9295
:1015B000CDB7DEB78C0180916C0181110AC09E010C
:1015C0002F5F3F4F4FEF6FEF0E94EC098A818093AE
:1015D0006C01F8018481813069F038F040916C0130
:1015E000823009F040E080E003C080916C0140E06F
:1015F00060E004C060916C0140E080E00E947B0AE2
:10160000F801848190E0019663E070E00E94282751
:1016100084830F900F900F90DF91CF911F910F91C6
:101620000895AF92BF92CF92DF92EF92FF920F9305
:101630001F93CF93DF9300D01F92CDB7DEB7182F43
:10164000F62E042FE22E90910F0290FF29C0E92F71
:10165000E695AE2FB0E0AD5CBE4F8C9180937801E3
:101660009E7F923059F59E012F5F3F4F812F0E9440
:10167000EC094B8169818A810E947B0A10931002D8
:10168000F092110200931202EE2051F060910F02CD
:101690007091100280911102909112020E940D0A25
:1016A0000F900F900F90DF91CF911F910F91FF90AE
:1016B000EF90DF90CF90BF90AF900895823019F4F3
:1016C00000911202DBCF863019F410911002D6CFB0
:1016D0008930D9F3893191F6E9518E2F8170D82E56
:1016E000E695F0E0E25CFC4FA590B490C12CBB24E1
:1016F00060910201C61618F00E94580ABFCF2C2D27
:1017000030E0A29EC001A39E900DB29E900D1124C8
:1017100070E00E941427812FD11013C0860F4091D2
:101720006F01420F532F511D9A01220F331F240FB7
:10173000351F2C5E3D4F402F6F2D0E94EC09C39446
:10174000D7CF861BECCFEFE0F2E09181282F4381C9
:10175000628188E0890F0C94110B81E00C94A30B3B
:10176000EFE0F2E09181282F4381628188EF890FB9
:101770000C94110B81E00C94B00BEFE0F2E062816D
:1017800028E0620F08F46FEF282F438181810C94C9
:10179000110B81E00C94BD0BEFE0F2E0628128E0D8
:1017A000621B08F460E0282F438181810C94110BA7
:1017B00081E00C94CC0BEFE0F2E0438128E0420F93
:1017C00008F44FEF282F628181810C94110B81E086
:1017D0000C94DB0BEFE0F2E0438128E0421B08F4BD
:1017E00040E0282F628181810C94110B81E00C94E0
:1017F000EA0B20E00C94110BEF92FF921F93CF9312
:10180000DF93EC0110E0EE24EA94F12C60910201E8
:10181000161770F00E94580A9A818C8190FF27C099
:101820008F5F8C83DF91CF911F91FF90EF90089590
:1018300020916F01422F410F5527551FCA019A0170
:10184000220F331F280F391F2C5E3D4F70E0C70158
:101850000E942827962F8C814091120260911102DC
:10186000199F800D11240E94EC091F5FCFCF81507A
:10187000D8CFBF92CF92DF92EF92FF920F931F9338
:10188000CF93DF93FC0182810FEF80FF01E010E036
:10189000809102011817C0F00E94580A80916E01D1
:1018A000013009F04DC0811102C0809102018150C8
:1018B00080936E01DF91CF911F910F91FF90EF9078
:1018C000DF90CF90BF900895C0916F01C12ED12CB1
:1018D000CC0DDD2DD11DCE01880F991FC80FD91F4A
:1018E000CC5EDD4F198218821A8234E0E32EF12C8F
:1018F000B12C80916E018B0D87FF03C09091020186
:10190000890F082E000C990BC816D90691F4809106
:1019100012028E9DA0018F9D500D11245595479563
:10192000559547959E0160911102809110020E9489
:10193000EC09B00EF1E0EF1AF108D9F61F5FA8CF5D
:1019400090E001966091020170E00E942827B0CFDC
:101950000F931F93CF93DF9380916F0190910301B9
:1019600023E0829FF0011124EC5EFD4F891740F1C6
:10197000C0E0D3E060910201C61740F10E94580A0E
:101980002091000180916D01820F80936D019091F3
:101990000101920F90930101191654F4082E000CC6
:1019A000990B409102014150550B841795071CF08B
:1019B000219520930001DF91CF911F910F91089500
:1019C0001182108212828F5F3396D0CF0C2F10E0DD
:1019D00070E0C8010E94282720916F01820F482FD4
:1019E00050E020916D01022E000C330B02171307FB
:1019F000BCF020910101022E000C330B201731079F
:101A00007CF08D9F900111242C5E3D4F409112027D
:101A100060911102809110020E94EC09CF5FAACF61
:101A2000FA01EE0FFF1FE40FF51FEC5EFD4F118270
:101A300010821282F3CF0F931F93CF93DF938C0109
:101A4000FC01848195810196817099279583848317
:101A5000C0E0D5E580910201C81730F0DF91CF9149
:101A60001F910F910C94580A20916F01422F4C0F37
:101A70005527551FCA019A01220F331F280F391FFE
:101A80002C5E3D4F8C2F8695F80144815581840F43
:101A9000952F911D817040911202609111028D9FCE
:101AA000802D11240E94EC09CF5FD4CF0F931F9398
:101AB000CF93DF93EC0110E000E0909102019017CA
:101AC000110609F06CF40E94580A8C8190E001968E
:101AD000817099278C83DF91CF911F910F91089589
:101AE00020916F01A801420F511D9A01220F331F4F
:101AF000240F351F2C5E3D4F4C8160911102809167
:101B0000100296959017110651F04CF0442349F0BD
:101B1000409112020E94EC090F5F1F4FCECF442369
:101B2000B9F340E0F7CFEFE0F2E080818E7F808371
:101B300060817181828193810E940D0A10927901E6
:101B40002FEF80E792E0215080409040E1F700C005
:101B500000000C94580A60910F02669570E04BE00B
:101B600050E085E091E00E944227892B19F481E042
:101B7000809379010E94581D9093720180937101A6
:101B8000089590910F0290FF35C09170811128C087
:101B9000926090930F02662351F060910F02709152
:101BA000100280911102909112020E940D0A609120
:101BB0000F02669570E04BE050E085E091E00E94F6
:101BC0004227892BA1F01092790181E08093740162
:101BD0004091120260911102809110020C94F90B55
:101BE000853210F09864D5CF880F982BD2CF0E9401
:101BF000AB0DEBCF0895682F90910F02969581E081
:101C0000890F853208F081E00C94C10D81E00C94BD
:101C1000FB0D682F90910F0296958FEF890F09F4B5
:101C200084E20C94C10D81E00C94090E61E00C94E7
:101C3000C10DEFE0F2E080818160808386950C9495
:101C4000160E80910F0280FD0C94930D0C94190ECA
:101C500060E00C94C10D80917701811133C08091B7
:101C6000F80181608093F8010E94171C811104C063
:101C70000E94911C0E941F0A0E94090A60930F0291
:101C80007093100280931102909312026E7F61F4A0
:101C90000E941F0A0E94090A60930F0270931002AB
:101CA00080931102909312020E94FA091092790116
:101CB00080910F0280FF03C086950E94280E81E06C
:101CC0008093770108950F931F93CF93DF938091B3
:101CD0007901882309F48DC080917801E0910F0289
:101CE000E695E81BE09373018230C9F5F0E0E65C0D
:101CF000FD4FE491CE2FD0E00EEA1AE080917401FE
:101D0000882389F0109274010E94581D9E0120952D
:101D10003095820F931F90937201809371011092FE
:101D200076011092750180917101909172010E946B
:101D3000641D8C179D0708F45CC0E0917101F0915F
:101D40007201CE0FDF1FD0937201C093710181E742
:101D500091E0F801DF91CF911F910F9109948630A6
:101D600049F4F0E0E95CFD4FE491CE2FD0E002ECC5
:101D70001AE0C4CF893051F4E695F0E0EC5CFD4FF9
:101D8000E491CE2FD0E00CEF1BE0B8CF8F3051F4B0
:101D9000E695F0E0EF5CFD4FE491CE2FD0E009E353
:101DA0001CE0ACCF853149F4F0E0E25DFD4FE491F9
:101DB000CE2FD0E008EA1CE0A1CFC8EED3E00BE1C3
:101DC0001DE0883109F49ACF833239F4ECE2F2E075
:101DD000C591D49102ED1AE091CFC4EFD1E006E5B0
:101DE0001DE0843209F48ACFC0EDD7E00BEE19E094
:101DF00085CFDF91CF911F910F9108953EB1242F90
:101E0000209523233EB1432B3FB7F894FC01680F84
:101E1000791FE617F70711F43FBF0895819198E005
:101E20004EB9000000C087FF2EB9880F000000C027
:101E300000C000C02EB900C09A9591F7EACF2DB12D
:101E4000242B2DB99B01220F331F620F731F0E9499
:101E5000FE0E87EC90E00197F1F700C000000895B6
:101E600044E00C941F0F0F931F93CF93DF93C62F63
:101E7000D42F022FFC0182818823C9F060937C015A
:101E80000E94581D90937B0180937A0180E28C0F11
:101E9000883008F057C0C77081E001C0880FCA952C
:101EA000EAF7DF91CF911F910F910C94BE12109120
:101EB0007C01161335C080917A0190917B010E94BC
:101EC000641D883C910560F5C0E2CD0F1D17B9F087
:101ED00080E2810F883040F4177081E001C0880FE4
:101EE0001A95EAF70E94C512C83028F581E09D2FA7
:101EF000977001C0880F9A95EAF70E94BE12802F52
:101F00000E94AB12C830F0F4D77081E001C0880F96
:101F1000DA95EAF7DF91CF911F910F910C94C512DA
:101F200080E28C0F883070F4C77081E001C0880FA8
:101F3000CA95EAF7EFCF802FDF91CF911F910F91D4
:101F40000C94AB12DF91CF911F910F9108959C01DA
:101F5000CB01203F4CE5340731F190F4283DFCE5FE
:101F60003F07E9F0293D4CE5340769F1273D3C4541
:101F700079F426E241EE61EE0E94330F80E008958D
:101F8000223FFCE53F07B9F090F0233F3C45B9F014
:101F9000FC0182818823D1F010927C01089527E210
:101FA00045EE65EEE9CF26E241EE60EEE5CF27E2B1
:101FB00045EE64EEE1CF26E241EE62EEDDCF27E2B0
:101FC00045EE66EED9CF28E241E0EBCF81E00895FF
:101FD00090938201809381010895E0918101F091B5
:101FE0008201309721F00190F081E02D099480E08A
:101FF0000895E0918101F0918201309721F00280F3
:10200000F381E02D09940895E0918101F09182011E
:10201000309739F022E0DC012C930480F581E02D2B
:102020000994089520917F01309180012817390784
:1020300071F09093800180937F01E0918101F09194
:102040008201309721F00680F781E02D09940895F0
:1020500020917D0130917E012817390771F090930E
:102060007E0180937D01E0918101F09182013097A2
:1020700021F00084F185E02D0994089585B78068EA
:1020800085BF85B7806885BF0895089508950C942D
:10209000451008950C9449100E943E100E9446106D
:1020A0000C94471081E008950E944F1D0E94200863
:1020B0000E94D81D0E942B0E0C944A105F926F92C2
:1020C0007F928F929F92AF92BF92CF92DF92EF92C8
:1020D000FF920F931F93CF93DF93CDB7DEB72A976D
:1020E0000FB6F894DEBF0FBECDBF0E947F080E94DE
:1020F0005210882309F47AC094E8A92E91E0B92EF1
:1021000010E000E088248394912C502E802F0E94B0
:1021100016087C01F501C190D1905F01C816D9065F
:1021200009F45EC08091F80181FD0E941F0890E0D3
:1021300080E0CE24DF243401082E02C0660C771C18
:102140000A94E2F7960126213721232B09F443C094
:102150008E835F82E620F72081E0EF2809F480E09B
:1021600088870E94581D8160782F9A8789874E81C1
:102170005F8168858A850E941D11000F111FF8017B
:10218000EC57FE4F808191816826792671826082AA
:102190000E946B1F0E94ED0F909183018917B9F186
:1021A0000E94ED0F809383012A960FB6F894DEBF4C
:1021B0000FBECDBFDF91CF911F910F91FF90EF9098
:1021C000DF90CF90BF90AF909F908F907F906F9057
:1021D0005F900C945C0301968C30910509F0ABCFB5
:1021E0000F5F1F4F0430110509F08FCF8FEF8983E8
:1021F0008A831B820E94581D8160782F9D838C8367
:1022000049815A816B818D810E941D11C1CF2A960F
:102210000FB6F894DEBF0FBECDBFDF91CF911F91F7
:102220000F91FF90EF90DF90CF90BF90AF909F9075
:102230008F907F906F905F900895CF93DF93CDB78D
:10224000DEB72B970FB6F894DEBF0FBECDBF4F831E
:10225000588769877A878B871E821D8285E0FE01F9
:102260003796DE01119601900D928A95E1F749812A
:102270005A816B817C818D819E812B960FB6F8945B
:10228000DEBF0FBECDBFDF91CF910C944718FC018C
:10229000808191810C94121B882309F405C1823836
:1022A000B9F40E94ED0F81FDFFC089E30E94401B3D
:1022B0000E94B41B2FEF81EE94E0215080409040AB
:1022C000E1F700C0000089E30E94471B0C94B41B97
:1022D0008338A1F40E94ED0F80FDE6C083E50E94E3
:1022E000401B0E94B41B2FEF81EE94E021508040F0
:1022F0009040E1F700C0000083E5E6CF8438A1F408
:102300000E94ED0F82FDD0C087E40E94401B0E9416
:10231000B41B2FEF81EE94E0215080409040E1F714
:1023200000C0000087E4D0CF9CEF980F913A18F4DA
:102330000E94401BCBCF90E2980F983050F48770EA
:1023400091E001C0990F8A95EAF7892F0E94681BD6
:10235000BDCF9BE5980F933070F4853A31F0863A03
:1023600039F083E890E00C94121081E890E0FBCF04
:1023700082E890E0F8CF98E5980F973108F08EC08A
:10238000883A09F446C0893A09F446C08A3A09F401
:1023900046C08B3A09F446C08C3A09F446C08B3BE0
:1023A00009F446C08C3B09F446C08D3A09F446C096
:1023B000803B09F446C08E3A09F446C08F3A09F4CE
:1023C00046C0813B09F446C0823B09F446C0833BCA
:1023D00009F446C0843B09F446C0853B09F446C075
:1023E000863B09F446C0873B09F446C0883B09F4A4
:1023F00046C0893B09F446C08D3B09F446C08E3B7C
:1024000009F446C08A3B09F446C090E080E00C9491
:10241000281082EE90E0FBCF89EE90E0F8CF8AEEB4
:1024200090E0F5CF85EB90E0F2CF86EB90E0EFCF38
:1024300083EB90E0ECCF84EB90E0E9CF87EB90E08A
:10244000E6CF8CEC90E0E3CF8DEC90E0E0CF83E83A
:1024500091E0DDCF8AE891E0DACF82E991E0D7CF51
:1024600084E991E0D4CF81E292E0D1CF83E292E09F
:10247000CECF84E292E0CBCF85E292E0C8CF86E275
:1024800092E0C5CF87E292E0C2CF8FE690E0BFCF67
:1024900080E790E0BCCF8AE292E0B9CF803F20F0A5
:1024A0000E94741E0C94601F0895882309F452C082
:1024B000823871F40E94ED0F81FF4CC089E30E94C5
:1024C000401B0E94B41B89E30E94471B0C94B41B61
:1024D000833859F40E94ED0F80FF3CC083E50E94D1
:1024E000401B0E94B41B83E5EFCF843859F40E944F
:1024F000ED0F82FF2FC087E40E94401B0E94B41B97
:1025000087E4E2CF9CEF980F913AF0F290E2980FB7
:10251000983050F4877091E001C0990F8A95EAF7DE
:10252000892F0E946E1BD2CF9BE5980F933020F429
:1025300090E080E00C94121098E5980F973120F409
:1025400090E080E00C942810803F20F00E94DC1E78
:102550000C94601F0895CF93C82F0E944C11C9336B
:1025600049F42FEF83EC99E0215080409040E1F74F
:1025700000C000008C2FCF910C945512882321F0BD
:102580000E94681B0C94B41B0895882321F00E94BC
:102590006E1B0C94B41B0895CF92DF92EF92FF92C2
:1025A0000F931F93CF93DF936C01D62FC72FFC019E
:1025B000058102950F70128111110E94871B0E94E4
:1025C0005E1BE82E882371F0112331F180E28D0F1C
:1025D000883010F182E00E94FF1B0E945E1B91E098
:1025E000E82EE926FC2EF2949FE0F922EF2DF0E090
:1025F000E450FD4E0C943C270E130E135B135B133B
:10260000A213CA13A913A9130C14A9139B149B1486
:102610002515A913A9132E15E12CE4CF0C2F0F704B
:10262000C07F11F00295007F1123A9F0002359F01B
:1026300080E28D0F883010F0D11109C0802F0E94E8
:10264000681B0E94B41B8D2F0E944C1114C0802F58
:102650000E94791BF6CF8D2F0E945512002359F04E
:1026600080E28D0F883010F0D11121C0802F0E94A0
:102670006E1B0E94B41BEE2009F4F7C10E945A1B86
:1026800080FDF3C1F60112820E94541B0E94DA19E8
:10269000C6010E943E150E94541BDF91CF911F91ED
:1026A0000F91FF90EF90DF90CF900C94FB19802F4B
:1026B0000E947F1BDECFFC2FFF70FF2EC07FC03239
:1026C00019F0F29480EFF822DD2369F0D13049F15E
:1026D000112391F1002351F1F601858180FFB3CFE1
:1026E0008F70858323C0112381F0011106C00E94E1
:1026F0009B1B8F290E94BE12BECF0130C1F70E94E2
:102700009B1B8F290E94A11BB6CF011106C00E94FE
:10271000AA1B8F2D0E94C512AECF013009F4ABCF9A
:10272000F6CF112329F0063008F0A5CF8F2DE2CF88
:10273000053008F0A0CFEDCF002359F38D2F0E9474
:10274000551299CF8C2F86958695837079F08130BC
:10275000B9F098E0F91609F49AC0F91608F48BCF8D
:1027600086EF8F0D823008F492C085CF8D2F9C2F7D
:102770009370111102C090E080E00E9412107BCF94
:102780008D2F9C2F9370111102C090E080E00E9469
:10279000281071CF112309F1D53F99F0D63FB9F038
:1027A000D43F49F480913E0290913F028160909322
:1027B0003F0280933E028D2F0E94741E0E94601F74
:1027C0005ACF80913E0290913F028260F0CF80917B
:1027D0003E0290913F028460EACFD53F89F0D63F18
:1027E000A9F0D43F49F480913E0290913F028E7F40
:1027F00090933F0280933E028D2F0E94DC1EDECF1D
:1028000080913E0290913F028D7FF2CF80913E02F7
:1028100090913F028B7FECCF8C2F837009F045C0E5
:10282000111135C04D2F429546954770440F440F06
:102830000D2F0F7010E030E020E0042E04C0000FD8
:10284000111F221F331F0A94D2F760E070E0CB0102
:10285000D4FF0FC06FE070E080E090E004C0660F2E
:10286000771F881F991F4A95D2F7609570958095BC
:102870009095602B712B822B932BC695C695C370B8
:10288000C23069F078F4C13039F00E948C190E948E
:10289000ED0F0E945C03EFCE0E947A19F8CF0E94E0
:1028A0009E19F5CF0E947819F2CF8695112311F069
:1028B0008C2F8170882359F34D2F42954695477090
:1028C000440F440F0D2F0F7010E030E020E0042E75
:1028D00004C0000F111F221F331F0A94D2F760E0BB
:1028E00070E0CB01D4FF0FC06FE070E080E090E0BB
:1028F00004C0660F771F881F991F4A95D2F760950D
:10290000709580959095602B712B822B932BC6959B
:10291000C695C370C23049F058F4C13019F00E9416
:10292000511AB5CF0E943F1AB2CF0E94631AAFCF9F
:102930000E94B419ACCFE0E2ED0FE53108F066C0BB
:10294000F0E0EB55FB4E0C943C27BA14BA14BA14C1
:10295000BA14BA14BA14BA14BA14BA14BA14BA1407
:10296000BA14BA14BA14BA14BA14CB14D914E014A1
:10297000E714F114DF708C2F8F71112331F00E9456
:10298000DA198D2F0E94BE12E4CE0E94FB198D2F02
:102990000E94C512DECE112341F0053008F0D9CED9
:1029A0008C2F8F710E941E1AD4CE063008F0D1CE23
:1029B000F7CF8C2F8F71112339F00E94DA19C9CE0D
:1029C0008C2F8F711123C9F30E94FB19C2CE1123E2
:1029D00029F08C2F8F710E94C519BBCE0E94C0199F
:1029E000B8CE112349F0CF718C2F0E94DA1963E021
:1029F0008C2F0E94EA1BADCE81E00E94FF1B0230AB
:102A000008F4A7CE82E00E94FF1BA3CE112349F059
:102A1000002321F08D2F0E944C119BCE8C2F8F71A3
:102A2000CCCF002379F0D93349F4FFEF23EC89E0D0
:102A3000F15020408040E1F700C000008D2F0E943F
:102A4000551287CE8C2F8F71BFCF4C2F4F706D2FAB
:102A5000C6010E9493050E94F0180DCE4C2F4F70B6
:102A60006D2FC6010E94960506CEDF91CF911F9172
:102A70000F91FF90EF90DF90CF9008950F931F93E9
:102A8000CF93DF93EC01988189812B813C81232BAB
:102A900039F08F3F19F481E09F3F19F080E001C0C9
:102AA00081E080FD17C0CE010E946E03882391F063
:102AB000688179818A810E941C1B8C010E94751A91
:102AC0000E947719B801CE01DF91CF911F910F912C
:102AD0000C94CC12DF91CF911F910F9108950E9419
:102AE000871B0E94981B0E94B41B0E9403200E9417
:102AF000601F90E080E00E94121090E080E00C9453
:102B000028100E944E1B0C946F150E94761B0C948B
:102B10008115E92FE295EF70E250EE30E0F4F0E03D
:102B2000EC56FA4E0C943C27A215A215AB15AB152A
:102B3000AD15AB15AB15AB15A215A215B215AB159E
:102B4000AB15B215803F19F020F4803E20F481E0EF
:102B50000895843FE1F380E00895803EC0F3813F13
:102B6000D1F7F5CF93FB882780F908950E94121BB7
:102B70000C948915CF93DF9300D000D01F92CDB76E
:102B8000DEB70F900F900F900F900F90DF91CF91C5
:102B90000895CF93DF9300D000D000D0CDB7DEB73B
:102BA00026960FB6F894DEBF0FBECDBFDF91CF9152
:102BB00008951F93CF93DF93C0918D0116E080910C
:102BC0008E018C1304C0DF91CF911F910895D0E046
:102BD0001C9FF0011D9FF00D1124E157FE4F408115
:102BE000518162817381848195810E94C9152196EA
:102BF000C770E5CF4091BF015091C0016091C10104
:102C00007091C2018091C3019091C4010C94C915C7
:102C10001F93CF93DF938091C401807FD1F4809183
:102C2000C1018823B1F080918D01D0918E01B091C6
:102C3000BF01C091C0014091C2015091C301A1E008
:102C4000BF3F09F0A0E0BA016095709516E0D81377
:102C500004C0DF91CF911F91089521E041155105E6
:102C600021F02A2FCF3F09F020E090E020FD38C06E
:102C7000189FF001199FF00D1124E157FE4F21819B
:102C80002C132EC020812B132BC02281211128C090
:102C9000238134812417350700F1241B350B283C90
:102CA0003105F0F42091C4012F7020612093C401FC
:102CB00026E0289FF001299FF00D1124EC56FE4FCD
:102CC00080818F70806180838FEB91E00E943E1540
:102CD000DF91CF911F910C94D915260F371FDFCFAD
:102CE00001968770B4CFAF92BF92CF92DF92EF92EE
:102CF000FF920F931F93CF93DF93CDB7DEB761970A
:102D00000FB6F894DEBF0FBECDBF8C0185E0F80191
:102D1000DE011D9601900D928A95E1F7D8014C9144
:102D200011965C9111971296EC903091BF016091D1
:102D3000C0018091C2019091C30121E0009731F060
:102D40006F3F19F421E03F3F09F020E0B22FB1704E
:102D5000BB2E20FD80C1F801C380D480A090C101AA
:102D6000AA2009F427C1C816D906D0F1D601A81B9C
:102D7000B90BCD01FF24F394883C910508F0F12CA8
:102D80008091C401982F907FFF2009F4CEC091114B
:102D900087C0FE2C651329C0341327C0E11025C05D
:102DA0008F7080618093C4010E94FA158FEB91E0CF
:102DB0000E943E158091C401F80185838F2D619694
:102DC0000FB6F894DEBF0FBECDBFDF91CF911F913C
:102DD0000F91FF90EF90DF90CF90BF90AF9008954C
:102DE000809590958C0D9D1DC5CF81E0CD2831F04B
:102DF0005F3F19F481E04F3F09F080E080FD24C07F
:102E000081E08E25F82FF170DF2E80FF3FC080918A
:102E10008D0120918E0136E0821318C04D875E87A8
:102E20008D859E850E94121B292F22952F7022309E
:102E300008F1243030F59F7009F1D80115969C9166
:102E4000907FE1F4FB2CBACF80E0DCCF90E0389F9C
:102E5000F001399FF00D1124E157FE4F61815613A7
:102E600006C06081461303C062816E110FC00196D7
:102E70008770D2CF9F7011F0882321F3805E883055
:102E800008F3C8010E943E15BD2CDCCFEE2009F4EA
:102E900095CF8091C40181608093C401F12C8ECFC5
:102EA000651314C0341312C0E11010C0F8018583FB
:102EB000C8010E943E1586E0F801AFEBB1E0019039
:102EC0000D928A95E1F70E94FA1578CF4D875E87BB
:102ED0008D859E850E94B615882319F1EE2009F193
:102EE0008091C401803270F02091BF013091C00107
:102EF00038872F831986DB86CA868C87CE01079692
:102F00000E943E1586E0F801AFEBB1E001900D9212
:102F10008A95E1F70E9408160E94FA15FF24F3949F
:102F20004DCFC8010E943E15F9CF911113C07C2DE1
:102F3000D98AC88A6E2D89890E94BA158FEB91E0D3
:102F40000E943E1586E0EFEBF1E0DF011D928A95CD
:102F5000E9F7B9CF651312C0341310C0E1100EC0E9
:102F6000F8018583C8010E943E15EFEBF1E086E091
:102F7000DF011D928A95E9F7FA2C20CF4D875E87F5
:102F80008D859E850E94B615882359F2EE2049F260
:102F90008091C401803208F4B5CF2091BF013091F7
:102FA000C0013A8329831B82DD82CC828E83CE01CD
:102FB0000196A6CFC816D90638F1F601E81BF90B21
:102FC000CF01F12C883C910508F03DC0FE2CEE208D
:102FD00009F4A7CF651326C0341324C08091C4011F
:102FE00080FD17C0982F907FA1F0D80115968C9383
:102FF0001597903F09F45CCF982F907F905F8F706A
:10300000892B15968C9354CF809590958C0D9D1D92
:10301000D8CF86E0F801AFEBB1E001900D928A9530
:10302000E1F7CCCE4D875E878D859E850E94B615D3
:10303000811168CF8091C40181608093C401C8016F
:103040000E943E15BBCE7C2DD98AC88A6E2D8989F7
:103050000E94BA1577CFEE2009F463CF4D875E87C3
:103060008D859E850E94B615F82E882309F459CFC8
:1030700086E0F801AFEBB1E001900D928A95E1F79F
:103080008FEB91E00E9447110E9408161CCF1F93FE
:10309000CF93DF93CDB7DEB72C970FB6F894DEBF92
:1030A0000FBECDBF4F83588769877A878B879C87F0
:1030B000CE0107960E947316882309F442C09F81AF
:1030C00088852A853B85232B39F08F3F19F481E0D1
:1030D0009F3F19F080E001C081E080FD08C04F8172
:1030E000588569857A858B859C850E94C91516E06F
:1030F00080918D0190918E01891709F467C0819F9D
:10310000C001112481579E4F0E947316882309F431
:103110005DC0E0918D011E9FF0011124E157FE4F2B
:103120004081518162817381848195810E94C9159A
:1031300080918D0190E001968770992780938D0191
:10314000D7CF86E0FE013796DE01119601900D92F1
:103150008A95E1F79F8188852A853B85232B39F065
:103160008F3F19F481E09F3F19F080E001C081E0BA
:1031700080FDBDCF20918E0130E0C901019687709E
:10318000992740918D014817190699F096E0929F72
:10319000D001939FB00D1124A157BE4FFE0131966F
:1031A00001900D929A95E1F780938E010E94D915B6
:1031B0009ECF0E94851510928E0110928D0186E09F
:1031C000EFEBF1E0DF011D928A95E9F72C960FB63F
:1031D000F894DEBF0FBECDBFDF91CF911F91089550
:1031E000EF92FF920F931F93CF93DF938C01892B64
:1031F00081F0F12CEE24E394E8012196F80184910A
:10320000843770F4843008F05FC08130B1F08230D0
:10321000A1F1DF91CF911F910F91FF90EF90089551
:10322000853709F44CC008F43DC09CE7980F9037EF
:1032300080F78F770E94551249C00E5F1F4FFE0125
:10324000849190E2980F983060F48770FE2D01C051
:10325000FF0F8A95EAF78F2F0E948A1B0E94B41BEA
:1032600002C00E944C118F2D815030F2EFE9FFE037
:103270003197F1F700C00000F7CF0E5F1F4FFE013E
:10328000849190E2980F983050F48770FE2D01C021
:10329000FF0F8A95EAF78F2F0E94901BDFCF0E94C5
:1032A0005512E1CF0E5F1F4FFE01C491C150D8F2FD
:1032B0008FE99FE00197F1F700C00000F7CF0E5FA4
:1032C0001F4FFE01F490CFCF0E944C118E01CBCF47
:1032D00008950C9468190E9469196093E70170932E
:1032E000E8018093E9019093EA010C946F15089529
:1032F0000C946B190F931F930091E7011091E80153
:103300002091E9013091EA01602B712B822B932BE4
:103310001F910F910C946B190F931F930091E7016C
:103320001091E8012091E9013091EA0160237123B5
:10333000822393231F910F910C946B190F931F936A
:103340000091E7011091E8012091E9013091EA0133
:1033500060277127822793271F910F910C946B1977
:103360000C9468190C94B0190E94B2196093E3018F
:103370007093E4018093E5019093E6010C946F153E
:1033800060E070E0CB010C94B4190F931F9341E0FF
:1033900050E060E070E08A019B0104C0000F111F43
:1033A000221F331F8A95D2F7C901B8011F910F91CF
:1033B0000C94B4190F931F9341E050E060E070E06B
:1033C00004C0440F551F661F771F8A95D2F780915E
:1033D000E3019091E401A091E501B091E6018A0139
:1033E0009B01082B192B2A2B3B2BC901B8011F91DC
:1033F0000F910C94B4190F931F9341E050E060E0DB
:1034000070E004C0440F551F661F771F8A95D2F7DE
:10341000CB01BA0160957095809590950091E3017C
:103420001091E4012091E5013091E60160237123C0
:10343000822393231F910F910C94B4190F931F9320
:1034400041E050E060E070E004C0440F551F661F8B
:10345000771F8A95D2F78091E3019091E401A091C2
:10346000E501B091E6018A019B01082719272A2767
:103470003B27C901B8011F910F910C94B4190F9308
:103480001F930091E3011091E4012091E501309137
:10349000E601602B712B822B932B1F910F910C94C3
:1034A000B4190F931F930091E3011091E40120914F
:1034B000E5013091E60160237123822393231F915C
:1034C0000F910C94B4190F931F930091E301109185
:1034D000E4012091E5013091E60160277127822700
:1034E00093271F910F910C94B41908952CE0929F8B
:1034F000800D1124982F977071E001C0770F9A9575
:10350000EAF786958695869525E0829FC00111246D
:1035100050E040E0A62FB0E0FC01E40FF51FEB53B4
:10352000FE4F60819D01042E02C0369527950A94B6
:10353000E2F72170219526272723262720834F5F36
:103540005F4F4530510541F708952CE0929F800D63
:103550001124982F977086958695869525E0829FF1
:10356000A001112470E060E080E0FA01E60FF71F8F
:10357000EB53FE4F208130E0092E02C0369527958F
:103580000A94E2F721703327062E01C0220F0A9415
:10359000EAF7822B6F5F7F4F6530710531F7089531
:1035A000BF92CF92DF92EF92FF920F931F93CF9330
:1035B000DF938C01C090E301D090E401E090E5013D
:1035C000F090E6018091E7019091E801A091E90176
:1035D000B091EA01C82AD92AEA2AFB2ACFE1D0E031
:1035E000BC2ED701C6010C2E04C0B695A7959795A1
:1035F00087950A94D2F780FD0EC0219788F7B12CE9
:103600008B2DDF91CF911F910F91FF90EF90DF9065
:10361000CF90BF900895B8018C2F0E94B3050197F9
:1036200061F3EECFCF93DF93EC010E94D01ABE017D
:10363000DF91CF910C94B3051F93CF93DF93EB01F0
:1036400090918C01992331F0CB01DF91CF911F91A3
:103650000C94121B882379F0CB010E94D01A182FEA
:10366000682FCE010E94761ABE01812FDF91CF9183
:103670001F910C94B305CB010E94A51A182FF4CF0B
:10368000682F80911001909111010C94C61C682F35
:1036900080911001909111010C94C81C809110012F
:1036A000909111010C94CA1C8091EB018595859530
:1036B000859508958091EB01877008959091EB01B5
:1036C000977081E009F480E008958091F7010895F2
:1036D0009091F701892B8093F7010895982F909589
:1036E0008091F70189238093F70108951092F701E3
:1036F00008959091F601892B8093F6010895982FF3
:1037000090958091F60189238093F6010895109297
:10371000F60108959091F501892B8093F5010895A4
:10372000982F90958091F50189238093F501089554
:103730001092F50108958091EC01089508950C947C
:103740009E1B9091EC01981721F08093EC010C9452
:103750009F1B08958091EC01882329F01092EC01C1
:1037600080E00C949F1B0895E0911001F0911101ED
:103770008091F7018083E0911001F0911101808127
:103780009091F601892B8083E0911001F091110155
:1037900080819091F501892B80839091EC01992390
:1037A00081F0E0911001F09111018081892B8083DB
:1037B00080911001909111010E94931C81110E942F
:1037C000AA1B80911001909111010C94F90F08959A
:1037D0000C94E71B98E0899F90011124622B609361
:1037E000EB010E94DA198091EB018595859585950D
:1037F0000C94E81B1092EB0180E00C94E81B909174
:10380000EB01809589238093EB01282F277071F4B9
:10381000282F082E000C330B9217130639F08595CC
:10382000859585950E94FB190C94FA1B089590E0EC
:1038300080E00E945D2721E08D3E9E4F09F020E050
:10384000822F089582E090E00C944F2783E090E06F
:103850000C944F2784E090E00C944F27682F84E06D
:1038600090E00C946327AB01BC018FE090E00C94D6
:103870007527AB01BC0183E190E00C94752760E0F3
:1038800070E0CB010C94391C60E070E0CB010E9429
:10389000331C0C943F1C6DEE7EEF90E080E00E94A4
:1038A000812760E082E090E00E94632760E083E08F
:1038B00090E00E9463271092E7011092E8011092B5
:1038C000E9011092EA0160E084E090E00E94632741
:1038D00060E085E090E00E94632760E086E090E091
:1038E0000E9463276FEF87E090E00E94632740E02B
:1038F00050E0BA0188E090E00E94752760E08DE01A
:1039000090E00E94632740E050E0BA0188E190E037
:103910000E94752760E087E190E00E9463270C9485
:10392000441C0C944B1CFC01329697E080E09150B3
:1039300009F4089521912223D1F38F5FF8CF9C01E0
:10394000FC0132969FEF80E04191461751F09F3F76
:1039500019F4411101C0982F8F5F8630A9F79F3F5E
:1039600009F40895290F311D97FD3A95F9016283F5
:103970000895FC01329608962191261303C0DF01B9
:1039800011971C92E817F907B9F708950C949F1C3A
:103990000C94B91C029626E0FC0111922A95E9F7D5
:1039A0000895089508950C94D21C0E94D31C809110
:1039B0004A02843049F11092F90188E190E020E454
:1039C0000FB6F894A895809360000FBE2093600016
:1039D00080E00E945C030E94D31C83B7817F8460D7
:1039E00083BF83B7816083BF7894889583B78E7FC8
:1039F00083BF0FB6F894A89580916000886180938A
:103A00006000109260000FBE08950895CF930E9449
:103A1000D11C0E947F080E94051DC0E08C2F0E94CF
:103A20001608892B31F4CF5FC430C1F780E0CF9105
:103A3000089581E0FCCF08950C941B1D0E9485150C
:103A40000E94ED0F0E945C030C941C1D1F920F92AC
:103A50000FB60F9211248F939F93AF93BF938091D2
:103A6000F901811113C08091400290914102A0910F
:103A70004202B09143024196A11DB11D80934002C4
:103A800090934102A0934202B0934302BF91AF9141
:103A90009F918F910F900FBE0F901F90189582E00D
:103AA00084BD93E095BD9AEF97BD80936E00089515
:103AB0002FB7F8948091400290914102A091420268
:103AC000B09143022FBF0895CF92DF92EF92FF9201
:103AD0000F931F932FB7F8944091400250914102E9
:103AE00060914202709143022FBF6A017B01EE2474
:103AF000FF248C0130E020E0C016D106E206F30678
:103B000050F0481B590BCA011F910F91FF90EF9085
:103B1000DF90CF90089541505109F3CF78941F92D0
:103B20000F920FB60F9211248F939F93AF93BF9371
:103B30008091400290914102A0914202B0914302D3
:103B40000196A11DB11D8093400290934102A09364
:103B50004202B0934302BF91AF919F918F910F901A
:103B60000FBE0F901F90189581E08093E00080E2D7
:103B70008093D8001092C9008FE19EE40197F1F77D
:103B800000C0000087E090EBDC018093530290932B
:103B90005402A0935502B093560288E19CE00FB600
:103BA000F894A895809360000FBE90936000FFCFBB
:103BB0000E94171C811102C00E94911C0E94221CAD
:103BC0008093F8010E942A1C90E090934502809314
:103BD00044020E94261C682F70E090E080E00C9464
:103BE00078198091FD0180FF12C06091150185E078
:103BF000689FB00111247595679575956795603834
:103C00007105A8F561157105A1F1862F089581FF51
:103C100009C06091150185E0689FB0011124759578
:103C20006795EDCF82FF07C06091150185E0689F21
:103C3000B0011124E4CF2091FC012223A9F090913E
:103C400014016091150185E0689FB00111242917C6
:103C5000B0F6269FA001279F500D1124692F70E018
:103C6000CA010E942827CBCF65E070E0CECF8FE756
:103C7000089581E008958091FD0180FF0CC060915E
:103C8000130170E0759567957595679561157105D8
:103C900049F1862F089581FF06C06091130170E0FD
:103CA00075956795F3CF6091130182FD0BC09091DC
:103CB000FC019923A1F060911201809113019617E4
:103CC00038F0682F70E06038710500F38FE70895D1
:103CD000899FC001112470E00E942827F4CF61E081
:103CE00070E0D7CF81E00895803F31F40E94F11D4C
:103CF0008195809301020895813F19F40E94F11D7E
:103D0000F8CF823F31F40E94F11D8195809300022B
:103D10000895833F19F40E94F11DF8CF893F29F4DB
:103D20000E943B1E8093020208958A3F21F40E9464
:103D30003B1E8195F7CF8B3F31F40E943B1E81954E
:103D40008093030208958C3F19F40E943B1EF8CF24
:103D5000843F31F48091FF0181608093FF010895D9
:103D6000853F21F48091FF018260F7CF863F21F4E7
:103D70008091FF018460F1CF873F21F48091FF01A2
:103D80008860EBCF883F21F48091FF018061E5CF0F
:103D90008D3F31F48091FD0181608093FD01089594
:103DA0008E3F21F48091FD018260F7CF8F3FB9F7FC
:103DB0008091FD018460F1CF803FC1F480910102C8
:103DC00087FD109201028091000281110EC0809146
:103DD000010281110AC080910202811106C0809106
:103DE0000302811102C01092FC010895813F29F461
:103DF0008091010218162CF3E6CF90910002823FC9
:103E000029F497FFE0CF10920002DDCF833F19F431
:103E10001916CCF3D8CF893F39F4809102021816D5
:103E200094F610920202CFCF8A3F29F480910202C9
:103E300087FFC9CFF6CF8B3F39F48091030287FF0C
:103E4000C2CF10920302BFCF8C3F29F480910302AE
:103E50001816BCF3B8CF843F31F48091FF018E7FF8
:103E60008093FF01B0CF853F21F48091FF018D7FCA
:103E7000F7CF863F21F48091FF018B7FF1CF873F01
:103E800021F48091FF01877FEBCF883F21F480915F
:103E9000FF018F7EE5CF8D3F31F48091FD018E7F54
:103EA0008093FD0190CF8E3F21F48091FD018D7FA5
:103EB000F7CF8F3F09F087CF8091FD018B7FF0CF47
:103EC0008EEF91E00E9404100E94581D9093FB0118
:103ED0008093FA0108951F93CF93DF938091FA01A5
:103EE0009091FB010E94641DAC019091FC01209116
:103EF000160130E0911106C0209117018AE0289F39
:103F0000900111244217530780F080910002109114
:103F10000102D0910202C091030281110AC0111165
:103F20006EC0D1116CC0C1116AC0DF91CF911F91D9
:103F300008959F3F19F09F5F9093FC01181624F499
:103F40000E94F11D809300028091000287FF05C04E
:103F50000E94F11D819580930002111624F40E94A5
:103F6000F11D809301028091010287FF05C00E942C
:103F7000F11D819580930102309100023323A1F05D
:103F800020910102222381F045EB3403C00111246A
:103F9000992369F19093000245EB240390011124C9
:103FA000332349F1309301021D1624F40E943B1E75
:103FB000809302028091020287FF05C00E943B1E8F
:103FC0008195809302021C1624F40E943B1E80936C
:103FD00003028091030287FF05C00E943B1E81956A
:103FE00080930302DF91CF911F910C94601F81E0B9
:103FF00080930002D1CF81E080930102D5CF9F3F13
:1040000009F099CFAACF86E0EEEFF1E0DF011D9233
:104010008A95E9F71092FC011092FD0108958091B4
:104020000C0208950F931F93CF93DF9300D01F923C
:10403000CDB7DEB78C010E946522823011F084304A
:1040400021F584E089831B830A8382E08093E90061
:104050008FEF9091E800815095FD06C095ED9A95FF
:10406000F1F700008111F5CF8091E80085FF0DC0C8
:1040700050E040E063E070E0CE0101960E948222B1
:104080008091E8008E778093E8000F900F900F905A
:10409000DF91CF911F910F910895CF93DF9300D0BF
:1040A0001F92CDB7DEB720914A02243031F523E0CC
:1040B0002983805891099B838A8382E08093E90059
:1040C0008FEF9091E800815095FD06C095ED9A958F
:1040D000F1F700008111F5CF8091E80085FF0DC058
:1040E00050E040E063E070E0CE0101960E94822241
:1040F0008091E8008E778093E8000F900F900F90EA
:10410000DF91CF910895CF93DF93EC010E94652258
:10411000823011F08430F9F482E08093E9008FEF6F
:104120009091E800815095FD06C095ED9A95F1F7C4
:1041300000008111F5CF8091E80085FF0CC050E0B0
:1041400040E066E070E0CE010E9482228091E800AB
:104150008E778093E800DF91CF910895CF93DF931E
:10416000EC010E946522823011F0843039F581E043
:104170008093E9008FEF9091E800815095FD06C093
:1041800095ED9A95F1F700008111F5CF8091E80047
:1041900085FF14C050E040E068E070E0CE010E946E
:1041A00082228091E8008E778093E80088E0FE010B
:1041B000A4E0B2E001900D928A95E1F7DF91CF91F2
:1041C000089580914902811109C00E9412240E9421
:1041D0006F248091E20084608093E2000895109241
:1041E00049020895089508950C941E1D42E061EC63
:1041F00081E00E94902342E261EC82E00C949023E3
:1042000080914C02833009F462C030F48130D9F1DE
:10421000823009F49EC008958A3009F48AC08B3038
:1042200009F470C0893009F051C080914B0281328D
:1042300009F04CC080914F0290915002029708F013
:1042400045C08091E800877F8093E8008091E80076
:1042500082FF38C08091F3009091F200892798275F
:104260008927029729F48091F1008B7F813021F416
:104270008091F10080930C028091E8008B7780930D
:10428000E8000C94C42380914B02813AF9F48091A8
:10429000E800877F8093E80080914F029091500260
:1042A000892B61F468E084E092E070E00E94D12202
:1042B0008091E8008B778093E800089560E090E0BB
:1042C00080E0F3CF80914A028111C0CF08958091A0
:1042D0004B02813AD9F780914F0290915002892B7D
:1042E000A9F78091E800877F8093E8008091E8003B
:1042F00080FFFCCF809122018093F1008091E80043
:104300008E77BDCF80914B02813201F780914F02B1
:1043100090915002892BD1F68091E800877F80939D
:10432000E8000E94C42380914D02809322010C94E6
:10433000851580914B02813249F68091E800877F94
:104340008093E8000E94C42380914E0280930D0266
:10435000089580914B02813A09F0B8CF8091E8002E
:10436000877F8093E8008091E80080FFFCCF8091F8
:104370000D02C2CF84B7877F84BF0FB6F894A8958B
:1043800080916000886180936000109260000FBE91
:1043900080E880936100109261000E944C100E949E
:1043A00012240E946F248091E20084608093E200D6
:1043B00078940E94F8260E94541088E191E00E94AF
:1043C000E80F80914A02853029F00E945E100E9419
:1043D000630EF7CF0E94D51C80914802882389F391
:1043E0000E94061D882369F30E946C22EACF0C9478
:1043F000F921292F33272330310571F158F4213069
:104400003105E9F02230310511F190E080E030E033
:1044100020E019C021323105C1F122323105A9F75E
:1044200080E490E025E435E06115710561F085E8F0
:1044300090E020EC34E06130710529F0E6CF82E1B4
:1044400090E02EEA34E0FA013183208308958BE373
:1044500090E023E734E0F7CF99278130910579F098
:1044600040F08230910571F0039779F6E3E4F4E0CF
:1044700002C0EFE6F4E0849190E09F01E4CFEDE527
:10448000F4E0F9CFE9E4F4E0F6CF89E090E025E844
:1044900034E061157105B9F289E090E02EE934E06D
:1044A0006130710581F2B1CF0895CF93C82F0E947A
:1044B0005422C0930E02CF91089580914A02843015
:1044C00011F081E0089582E0089580910E0281113B
:1044D00002C00C945D22089580E189BD82E189BD0E
:1044E00009B400FEFDCF8091D8008F7D8093D80065
:1044F0008091E00082608093E0008091E00081FD87
:10450000FCCF0895AF92BF92CF92DF92FF920F93AC
:104510001F93CF93DF936C01EB018A010E94E32389
:10452000F82E811123C00115110539F0F8018081A1
:104530009181C81BD90BC80ED91EB12CA12C209774
:10454000A9F08091E80085FD22C08091E8008E7777
:104550008093E80001151105A1F0F8018081918197
:10456000A80EB91EB182A08285E0F82E8F2DDF91B2
:10457000CF911F910F91FF90DF90CF90BF90AF90A0
:1045800008950E94E3238823D1F2F82EEFCFF6019D
:1045900081916F018093F1002197FFEFAF1ABF0A5D
:1045A000CECFFC018091510290915202861797075D
:1045B000A0F06115710529F49091E8009E77909321
:1045C000E80090E06115710551F4911108C08091E7
:1045D000E80082FF35C080E00895BC01F2CF8091F1
:1045E0004A028823C9F18530C9F18091E80083FD32
:1045F00031C08091E80082FDEACF8091E80080FF21
:10460000E1CF2091F3008091F200322F282F611525
:10461000710519F02830310558F091E02830310546
:1046200009F090E02091E8002E772093E800CACFAF
:1046300081918093F100615071092F5F3F4FE7CF67
:1046400080914A02882341F0853041F08091E80052
:1046500083FFBDCF81E0089582E0089583E008954F
:10466000FC01809151029091520286179707A0F0A9
:104670006115710529F48091E8008E778093E80038
:1046800090E06115710551F4911108C08091E80026
:1046900082FF36C080E00895BC01F2CF80914A02CB
:1046A0008823D1F18530D1F18091E80083FD32C0BB
:1046B0008091E80082FDEACF8091E80080FFE1CFA1
:1046C0002091F3008091F200322F282F611571059F
:1046D00019F02830310558F091E02830310509F003
:1046E00090E08091E8008E778093E800CACF8491B3
:1046F0008093F1003196615071092F5F3F4FE6CFF3
:1047000080914A02882341F0853041F08091E80091
:1047100083FFBCCF81E0089582E0089583E008958F
:10472000982F973028F08F708093E90081E00895EA
:104730009093E900242F762F50E0981731F0709174
:10474000EC002091ED005091F00021FD02C09F5F30
:10475000E8CF3091EB003E7F3093EB003091ED00DD
:104760003D7F3093ED003091EB0031603093EB00F2
:104770007093EC002093ED005093F0002091EE0038
:1047800027FDE5CF80E0089580914B0287FF13C09D
:104790008091E80082FF06C08091E8008B778093CB
:1047A000E80004C080914A028111F2CF08958091FF
:1047B0004A028823D9F38091E80080FFF8CF8091E6
:1047C000E8008E77ECCF2091E4003091E50085E69B
:1047D0009091EC0090FF06C09091E80090FF06C019
:1047E00080E008959091E80092FDFACF90914A02FE
:1047F000992391F0953091F09091EB0095FD10C0C8
:104800004091E4005091E5002417350709F38150E9
:104810009A01F1F684E0089582E0089583E0089516
:1048200081E008950E9480240E948824E0EEF0E058
:10483000808181608083E8EDF0E080818F778083E4
:1048400019BCA7EDB0E08C918E7F8C9380818F7E18
:1048500080831092490208950F931F93CF93DF93A3
:104860000E9480240E948824C8EDD0E088818F7740
:10487000888388818068888388818F7D888319BC3C
:1048800010924A0210924602109248021092470279
:1048900000EE10E0F80180818B7F80838881816049
:1048A000888342E060E080E00E949023E1EEF0E047
:1048B00080818E7F8083E2EEF0E080818160808362
:1048C000808188608083F80180818E7F80838881E9
:1048D00080618883DF91CF911F910F910895E8ED5A
:1048E000F0E080818F7E8083E7EDF0E08081816061
:1048F000808384E082BF81E0809349020C942C2461
:10490000E8EDF0E080818E7F80831092E2000895D0
:104910001092DA001092E10008951F920F920FB6E4
:104920000F9211242F933F934F935F936F937F9335
:104930008F939F93AF93BF93EF93FF938091E10089
:1049400082FF0BC08091E20082FF07C08091E100EE
:104950008B7F8093E1000E94F7268091DA0080FF30
:1049600019C08091D80080FF15C08091DA008E7F39
:104970008093DA008091D90080FF94C080E189BDE6
:1049800082E189BD09B400FEFDCF81E080934A0237
:104990000E94E1208091E10080FF19C08091E20037
:1049A00080FF15C08091E2008E7F8093E2008091AD
:1049B000E20080618093E2008091D8008062809361
:1049C000D80019BC85E080934A020E94F3208091B0
:1049D000E10084FF29C08091E20084FF25C080E1CE
:1049E00089BD82E189BD09B400FEFDCF8091D80068
:1049F0008F7D8093D8008091E1008F7E8093E100CD
:104A00008091E2008F7E8093E2008091E2008160DD
:104A10008093E20080914602882309F449C084E033
:104A200080934A020E94F4208091E10083FF29C014
:104A30008091E20083FF25C08091E100877F809311
:104A4000E10082E080934A02109246028091E100E8
:104A50008E7F8093E1008091E2008E7F8093E20060
:104A60008091E20080618093E20042E060E080E0BB
:104A70000E9490238091F00088608093F0000E9453
:104A8000F220FF91EF91BF91AF919F918F917F9114
:104A90006F915F914F913F912F910F900FBE0F90AB
:104AA0001F90189519BC10924A020E94EF2072CFF5
:104AB0008091E30087FD02C081E0B2CF83E0B0CFF8
:104AC0001F920F920FB60F9211242F933F934F9383
:104AD0005F936F937F938F939F93AF93BF93CF9386
:104AE000EF93FF93C091E900CF708091EC0010929A
:104AF000E9008091F000877F8093F00078940E9415
:104B00009C251092E9008091F00088608093F0006D
:104B1000C093E900FF91EF91CF91BF91AF919F9129
:104B20008F917F916F915F914F913F912F910F9056
:104B30000FBE0F901F9018951F93CF93DF93CDB7A3
:104B4000DEB7AA970FB6F894DEBF0FBECDBFEBE479
:104B5000F2E08091F100819322E0E335F207C9F79A
:104B60000E9400218091E80083FF44C080914B02A5
:104B700090914C029A3008F03DC0E92FF0E0ED53DF
:104B8000FA4D0C943C27CD25F325FA25F325FA257B
:104B900051267326FA25CA26D726803889F082380E
:104BA00049F580914F028F70873020F58093E9009E
:104BB0008091EB0085FB882780F91092E90006C000
:104BC0008091470290914802911182609091E80093
:104BD000977F9093E8008093F1001092F10080910C
:104BE000E8008E772DC0282F2D7F21F48823D1F067
:104BF000823059F18091E80083FF0AC08091E8007B
:104C0000877F8093E8008091EB0080628093EB00C7
:104C1000AA960FB6F894DEBF0FBECDBFDF91CF913D
:104C20001F91089580914D02813021F7933009F052
:104C300080E0809348021092E9008091E800877F2D
:104C40008093E8000E94C423D5CF80914D0281114A
:104C5000F2CF80914F028F702FEF280F263050F641
:104C60008093E9002091EB0020FFE5CF933031F4F1
:104C70008091EB0080628093EB00DDCF9091EB00A0
:104C800090619093EB0021E030E001C0220F8A9503
:104C9000EAF72093EA001092EA008091EB00886026
:104CA000EACF8111A7CF10914D021F778091E300C9
:104CB0008078812B8093E3008091E800877F809348
:104CC000E8000E94C4238091E80080FFFCCF80911F
:104CD000E30080688093E30083E0111101C082E06B
:104CE00080934A0287CF8058823008F083CF80912A
:104CF0004D0290914E028C3D23E09207A1F583E096
:104D00008A838AE289834FB7F894DE01139620E004
:104D10003EE051E2E32FF0E050935700E49120FF92
:104D200003C0E295EF703F5FEF708E2F90E0EA30A6
:104D3000C0F0C7968D939D932F5F243159F74FBFD5
:104D40008091E800877F8093E8006AE270E0CE01FE
:104D500001960E94D1228091E8008B778093E80031
:104D600049CFC096E7CF60914F0270915002AE01DB
:104D70004F5F5F4F0E94F721BC01892B09F43ACFA6
:104D80009091E800977F9093E80089819A810E9432
:104D90003023E1CF803809F02DCF8091E800877F64
:104DA0008093E800809146028093F10018CF811132
:104DB00021CF90914D02923008F01CCF8091E800F5
:104DC000877F8093E800909346020E94C4238091DD
:104DD0004602882331F084E080934A020E94F62044
:104DE00009CF8091E30087FDF6CF81E0F5CF0895EC
:104DF000CF9380914A02882399F0C091E900CF7047
:104E00008091EC0080FD0EC080E0C82B1092E9007C
:104E10008091E80083FD0E949C25CF70C093E9003B
:104E2000CF91089580E8F1CFAA1BBB1B51E107C0C9
:104E3000AA1FBB1FA617B70710F0A61BB70B881F2A
:104E4000991F5A95A9F780959095BC01CD010895B9
:104E500097FB072E16F4009407D077FD09D00E9427
:104E6000142707FC05D03EF4909581959F4F089537
:104E7000709561957F4F0895EE0FFF1F0590F49197
:104E8000E02D0994FC014150504030F0019006168D
:104E9000D1F73197CF010895882799270895F99977
:104EA000FECF92BD81BDF89A992780B50895A6E1FD
:104EB000B0E044E050E00C948927A8E1B0E042E083
:104EC00050E00C948927262FF999FECF92BD81BD21
:104ED000F89A019700B4021639F01FBA20BD0FB638
:104EE000F894FA9AF99A0FBE08950396272F0E9414
:104EF00064270E946327252F0E946427242F0C9487
:104F000064270196272F0E9464270C946327DC01F5
:104F1000CB01FC01F999FECF06C0F2BDE1BDF89AC4
:104F2000319600B40D9241505040B8F70895F8946E
:024F3000FFCFB1
:104F320001020E0E0E01191A1B1C1D1E1F2021221A
:104F4200ED012808140A321E0F20AE2083204D20C6
:104F5200122001F0F1F4F5F6F7333130953767900E
:104F6200919293000102020202060606090909094A
:104F720009090F0F0F0F0F0F151515181919191908
:084F820019191919191923244A
:00000001FF
