:100000000C947B030C94C2030C94C2030C94C203A3
:100010000C94C2030C94C2030C94C2030C94C2034C
:100020000C94C2030C94C2030C9424270C94F6275E
:100030000C94A21F0C94C2030C94C2030C94C20330
:100040000C94C2030C94C2030C94C2030C94C2031C
:100050000C94C2030C94EF1F0C94C2030C94C203C3
:100060000C94C2030C94C2030C94C2030C94C203FC
:100070000C94C2030C94C2030C94C2030C94C203EC
:100080000C94C2030C94C2030C94C2030C94C203DC
:100090000C94C2030C94C2030C94C2030C94C203CC
:1000A0000C94C2030C94C2030C94C2034610491072
:1000B000511056105B10601065106A106F107410AC
:1000C00079107E1080108310861089108C108F108C
:1000D000911096105115511583158315D015F015F3
:1000E00019171917FB159816A916A9160917191724
:1000F00019171217B517B517C717C717BE17C717A0
:10010000C717C717B517B517C317C717C717C3172B
:1001100063288A287C298A287C29D628F9287C29E2
:100120004F295E290103E10103E2000102E101021E
:10013000E2002B0014001A000900130005000D0056
:100140000F0018001C0033002A002961040015006C
:10015000160017000A000E00110008000C00120023
:100160002872E1001B000600070019001D001000A6
:100170000B003600370038003400504201532D6820
:1001800028430000000000002C4151745278000008
:100190004F7135001E001F002000210022002300A7
:1001A0002400250026002700010001002602270266
:1001B0002F00300000002E021E001F00200025022C
:1001C00001000100010001000000010001002D00FC
:1001D0002E00010001000100F900010001000100F2
:1001E00027000000000000002C00FB00FA000000C7
:1001F000FC00F500000000000000000000004B00C3
:100200004A0052004D0033022A1401000000000091
:1002100000002A0000004E00500051004F0028004E
:100220000714010000000000000000000000F400BE
:1002300050144F14F00005140914010001000100CE
:100240004C040000000000004C00F200F10000002F
:10025000F30035021E021F022002210222022302A5
:100260002402000000003302010039002F02300296
:100270002602270200002E02210231023100340240
:100280000100000047004800AA00A900A8002D00B6
:100290002E0036023702380201000100005C000027
:1002A00000000000000000002D020100010000001D
:1002B000010000000000000000002A2B28000000C0
:1002C0000000000000000000000000000029000005
:1002D00000002C1E3420212224342627252E362DE2
:1002E0003738271E1F202122232425263333362E7C
:1002F00037381F0405060708090A0B0C0D0E0F10EE
:100300001112131415161718191A1B1C1D2F313032
:10031000232D350405060708090A0B0C0D0E0F10D6
:100320001112131415161718191A1B1C1D2F313012
:10033000354C00000000000000000000000000003C
:100340000000000000007E0F00D4FFFFFFC7000088
:10035000007832190A00047F3F1F6432146432149B
:10036000783C1E1E140A052223252628292A2C2D16
:100370002F3032333536383A3B3D3E4042434547D5
:10038000494A4C4E5051535557595A5C5E6062640D
:100390006668696B6D6F71737577797B7D7F81831B
:1003A0008587898A8C8E90929496989A9C9E9FA11C
:1003B000A3A5A7A8AAACAEAFB1B3B4B6B8B9BBBC3D
:1003C000BEBFC1C2C3C5C6C7C9CACBCCCDCED0D1B2
:1003D000D2D2D3D4D5D6D7D7D8D9D9DADADBDBDBAA
:1003E000DCDCDCDCDCDDDDDDDDDCDCDCDCDCDBDB4B
:1003F000DBDADAD9D9D8D7D7D6D5D4D3D2D2D1D09F
:10040000CECDCCCBCAC9C7C6C5C3C2C1BFBEBCBB9B
:10041000B9B8B6B4B3B1AFAEACAAA8A7A5A3A19F13
:100420009E9C9A98969492908E8C8A8987858381D7
:100430007F7D7B79777573716F6D6B6968666462B8
:10044000605E5C5A5957555351504E4C4A49474586
:100450004342403E3D3B3A3836353332302F2D2C27
:100460002A292826252322FFAA7F554000010101C1
:100470000101010101010202020202020202020361
:100480000303030303030304040404040404050531
:1004900005050506060606060707070707080808F4
:1004A00008090909090A0A0A0B0B0B0C0C0C0D0DA3
:1004B0000D0E0E0E0F0F0F1010111111121213133B
:1004C0001414151516161717181819191A1A1B1BB4
:1004D0001C1D1D1E1E1F2020212222232424252610
:1004E00026272829292A2B2C2D2D2E2F3031323248
:1004F000333435363738393A3B3C3D3E3F40414254
:10050000434445464748494A4C4D4E4F5051535439
:10051000555658595A5B5D5E5F61626465666869ED
:100520006B6C6D6F7072737577787A7B7D7E80826D
:10053000838587888A8C8E8F91939596989A9C9EB6
:10054000A0A2A3A5A7A9ABADAFB1B3B5B7BABCBEC6
:10055000C0C2C4C6C9CBCDCFD1D4D6D8DBDDDFE293
:10056000E4E7E9EBEEF0F3F5F8FAFDFF0403300001
:10057000000010034D0069006E0069005600610024
:100580006E00000022035400680065005600610000
:100590006E0020004B006500790062006F00610072
:1005A00072006400730000000403090409023B00A8
:1005B000020100A032090400000103010100092129
:1005C000110100012240000705810308000A090407
:1005D0000100010300000009211101000122BC00FB
:1005E0000705820320000A1201100100000008AE76
:1005F000FE478801000102030105010902A10185EE
:10060000020901A100050919012905150025019517
:100610000575018102950175038101050109300904
:10062000311581257F9502750881060938158125C8
:100630007F950175088106050C0A38021581257F12
:10064000950175088106C0C005010980A1018503D7
:1006500019012AB700150126B70095017510810010
:10066000C0050C0901A101850419012AA002150188
:1006700026A002950175108100C005010906A1019F
:100680008505050719E029E715002501950875017D
:1006900081020507190029EF1500250195F0750164
:1006A0008102050819012905950575019102950139
:1006B00075039101C005010906A101050719E0298B
:1006C000E7150025019508750181029501750881DE
:1006D000010507190029FF150026FF00950675087A
:1006E00081000508190129059505750191029501FB
:1006F00075039101C00011241FBECFEFDAE0DEBF09
:10070000CDBF04B603FE27C08091E3029091E402BE
:10071000A091E502B091E6028730904BA740B04B24
:10072000D1F41092E3021092E4021092E5021092CA
:10073000E60214BE84B7877F84BF0FB6F894A895ED
:1007400080916000886180936000109260000FBE0D
:10075000E0E0F8E3099511E0A0E0B1E0EAE3F6E5B6
:1007600002C005900D92AA3CB107D9F722E0AAEC8D
:10077000B1E001C01D92A33EB207E1F70E948324BD
:100780000C941B2B0C940000A8E3B1E041E050E076
:1007900024E02A0F8D91E82FE295EF70F0E031A16F
:1007A0008F70BA0102C0660F771F8A95E2F7CB01FE
:1007B000962F9095932391A392A1892B82A32A131C
:1007C000E9CFACE2B1E041E050E02CE02A0F8D919E
:1007D000E82FE295EF70F0E031A18F70BA0102C00E
:1007E000660F771F8A95E2F7CB01962F909593239A
:1007F00091A392A1892B82A32A13E9CF08956F9226
:100800007F928F929F92AF92BF92CF92DF92EF92A0
:10081000FF920F931F93CF93DF931F92CDB7DEB755
:100820006C0138E3E32E31E0F32E80E0AA24A39498
:10083000B12C54E0852E8E0CF70191917F01692E29
:1008400062942FE06222712CF30121A19F70850137
:1008500001C0000F9A95EAF7922F902B91A392A1D5
:10086000902E9094992192A389830E949808ECE29B
:10087000F1E060E070E040E050E089819191A92FC3
:10088000A295AF70B0E090962C9130E09F7002C0BE
:10089000359527959A95E2F720FD08C09501062E1B
:1008A00002C0220F331F0A94E2F702C020E030E0BA
:1008B000422B532B6F5F7F4F6C307105F9F6F301BC
:1008C00091A1992291A292A1092B02A3F601219153
:1008D00031916F012417350729F0329751834083F6
:1008E00091E001C090E0892B8E10A6CF0F90DF9190
:1008F000CF911F910F91FF90EF90DF90CF90BF901D
:10090000AF909F908F907F906F9008950C948C087B
:100910000C948D080C948E040C94F204CF93FB017C
:10092000C281CC2349F088329D4579F48BE291E075
:100930000E941706C0E009C088329D4529F484E270
:1009400091E00E94170601C0C1E08C2FCF9108955D
:100950000F931F93CF93DF93162F042FC7ECD2E092
:100960009E0140E060E080E00E94B209239682E0B0
:10097000C03DD807A9F701FF07C027EC32E044EBE0
:1009800067E18AED0E94B20912FF07C02AEC32E04B
:100990004FEF65E388E10E94B20913FF07C02AEC1C
:1009A00032E040E06FEF8FEF0E94B20911FF07C005
:1009B0002DEC32E04DE76FEF8AE00E94B209DF9143
:1009C000CF911F910F910C94320A0E940913482F66
:1009D000609152027091530280915402909155029D
:1009E0000C94A8040E940913482F60915202709140
:1009F000530280915402909155020C94A804CF9216
:100A0000DF92EF92FF926B017C010E940913482F45
:100A1000C701B6010E94A804C701B601FF90EF907C
:100A2000DF90CF90089581E0089508950C94150506
:100A30001F93CF93DF9300D000D01F92CDB7DEB7C6
:100A400049835A833091FB0189819A81311114C005
:100A5000662359F0222349F00E94F71C182F682FB3
:100A600089819A810E949C1C03C00E94CB1C182F74
:100A700069817A81812F04C00E94F71C69817A8183
:100A80000F900F900F900F900F90DF91CF911F91CB
:100A90000C948806FC01262F40815181628173816C
:100AA00084810C941805CF93DF93EC0160E00E94E1
:100AB0004A05BE01DF91CF910C941605FF920F936A
:100AC0001F93CF93DF93E82FF0E0EE54FD4FF490A7
:100AD000C82FC695C695C695D0E0FE01EE5BFC4FCB
:100AE0000491877010E0082E02C0159507950A94AE
:100AF000E2F701701127FE01EE5CFC4FC491D0E0DB
:100B000002C0D595C7958A95E2F7C170DD2701151A
:100B1000110519F081EE0E947014209719F086EEED
:100B20000E9470148F2D0E94FA14CD2B19F086EEBE
:100B30000E94C614012B41F081EEDF91CF911F91ED
:100B40000F91FF900C94C614DF91CF911F910F91DC
:100B5000FF900895EF92FF920F931F93CF93DF932F
:100B60008C01F62E8AE0E82EF8018491882309F49E
:100B700057C0813009F042C0E8012196FE018491FE
:100B8000813031F42196FE0184910E94FA1439C01B
:100B9000823039F4E8012296FE0184910E9470149B
:100BA00030C0833039F4E8012296FE0184910E941E
:100BB000C61427C0843029F5E8012296FE0124914D
:100BC00080E090E030E0205331092A30310560F4B4
:100BD000E89EA001E99E500D1124CA01820F931FC7
:100BE0002196FE012491EECF009759F0EFE9FFE046
:100BF0003197F1F700C000000197F6CF0E945E0523
:100C0000E8018E010F5F1F4F8F2D882309F4ACCFB1
:100C1000EFE9FFE03197F1F700C000008150F5CF18
:100C2000DF91CF911F910F91FF90EF90089560E0B9
:100C30000C94AA050E94271E811102C00E94C71EA3
:100C40000C9486040C94880481E008950C94240686
:100C5000CF93C82F0E948C048C2F0E942606CF9120
:100C6000089508950E94A5170E9431062FEF84E38E
:100C70009CE0215080409040E1F700C000000C94BF
:100C800015200F931F93CF93DF93EC0161E00E9437
:100C90004A058C01BE010E948A04882379F1BE01B5
:100CA000C8010E945611882349F1BE01C8010E9463
:100CB000A811882319F1BE01C8010E94D31288230C
:100CC000E9F0BE01C8010E942F108823B9F08A8183
:100CD000882369F001158CE5180731F00E3D1C459D
:100CE00031F40E94C71E0AC00E94320607C0CE011E
:100CF000DF91CF911F910F910C94130580E0DF914C
:100D0000CF911F910F91089580E090E0089508958C
:100D10009CE0799FF001112490E3899FE00DF11D83
:100D20001124E60FF11DEE0FFF1FEE5CFE4F8591C3
:100D300094910895880F991FFC01EE5AFC4F8591FC
:100D400094910895CF93DF930E9488060E94B5077F
:100D5000EC01811520E59207F0F5811530E4930749
:100D600008F0CDC0883E910500F5803E910508F061
:100D7000F8C0883A910570F4853A910508F09FC053
:100D80008130910509F4EDC008F4E9C0049708F03A
:100D9000E8C0E5C08F3B910508F499C0803C9105FF
:100DA00008F4DDC0805C91099DC0811540E2940784
:100DB00058F4C11581E0D80708F0D3C0C03FD10571
:100DC00008F4CDC0D065CDC0811520E3920708F0AE
:100DD0008DC09F7087C0811535E5930708F044C02A
:100DE000811544E5940708F0A1C0C11582E5D80734
:100DF00008F5C11521E5D20708F084C08C2F837057
:100E000021E030E002C0220F331F8A95E2F73C68F0
:100E1000CE0174E0969587957A95E1F78370382B2B
:100E2000CF70C695C69580E2C89FE0011124C22B01
:100E3000D32B97C02C2F26952695CE01837099270A
:100E4000C115D34508F063C040E2249F90011124EE
:100E5000C1E0D0E002C0CC0FDD1F8A95E2F72C2B59
:100E60003D2BE901DC687DC0811549E59407A0F4BC
:100E7000C11588E5D80708F05EC0C11526E5D20780
:100E800008F06DC08C2F0E9449088F71C82FD0E0E8
:100E9000DC2FCC27D06265C081153AE5930708F4B2
:100EA0004FC090568115904208F059C08D2F8F7118
:100EB0000E944908DD27D0628F71D82B52C0C55AD5
:100EC000D0E0C659DE4FC881D0E0D0644AC0C85ACD
:100ED000D0E0CC0FDD1FC45CDE4F0990D881C02D5F
:100EE000D4643FC00E949A06EC013BC09927D3FF0F
:100EF00003C0EC01D86C35C0EC01D06C32C0DF709F
:100F0000D06A2FC0DC2FCC27C16FD06A2AC040E244
:100F1000249F90011124C1E0D0E002C0CC0FDD1F5E
:100F20008A95E2F7C22BD32BDA681BC0D82FCC27C7
:100F3000C46FD06A16C0DC2FCC27C06FD06A11C036
:100F40008F700E94490894E0D695C7959A95E1F76D
:100F5000CF70D0E0DC2FCC27D069C82B02C0C0E016
:100F6000D0E0CE01DF91CF9108958238910569F1EB
:100F7000B0F48133910509F46DC048F489329105CC
:100F800009F463C08A32910509F469C00895853374
:100F9000910509F455C089339105B9F00895833E50
:100FA000910569F138F4803E9105B1F0823E9105DA
:100FB00009F10895863E9105A9F1873E9105B9F1A1
:100FC000843E910509F064C023C02091D40220FD25
:100FD0004FC021FD4DC008958091D40280FD44C0D2
:100FE0008091D50280FF44C08091D40284FD42C02C
:100FF00083EE4DC08091D40282FF38C0F5CF80913E
:10100000D40282FD33C08091D50280FD31C0ECCF87
:101010008091D50281FF32C08091D40284FD2AC024
:1010200087EE35C08091D40283FF26C0F5CF809132
:10103000D40283FD21C08091D50281FD1FC0ECCF79
:101040008091D40285FD1CC01DC08091D40285FD15
:1010500019C016C08091D40286FD16C017C08091B9
:10106000D40286FD13C010C089E311C082EE0FC008
:1010700080EE0DC080E00BC086EE09C084EE07C094
:1010800089E205C085E303C08AE201C081E390E004
:1010900008959091D40292FF0DC0282F2871283016
:1010A00019F4877F846006C0282F2471243011F43E
:1010B0008B7F886093FF0DC0282F2871283119F489
:1010C000877E846106C0282F2471243111F48B7E21
:1010D00088612091D50220FF0DC0382F387138303B
:1010E00019F4877F816006C0382F3171313011F4D7
:1010F0008E7F886021FF0DC0282F2871283119F4B8
:10110000877E816106C0282F2171213111F48E7EE6
:10111000886194FD877E089508950895E82FF0E092
:10112000EE0FFF1FE654FD4F8081918108950895D1
:1011300080EA8A95F1F708950E94C403A2EBB2E019
:1011400011961C921E92EAEBF2E011821082139625
:101150001C921E9212971382128215961C921E9256
:1011600014971582148217961C921E921697178256
:10117000168284E00E94D1080C941A06CF9382EB69
:1011800092E00E94FF03C82F282F44E06AEB72E030
:1011900082EB92E00E94D2080E9422068C2FCF910F
:1011A00008950895FF920F931F93CF93DF93F82E26
:1011B000092F162FD72FC42F222349F081E08093C7
:1011C000CC010E94D41F9093CB018093CA018091DF
:1011D000CC018823D9F08091CA019091CB010E9463
:1011E000E01F069798F0EF2DF02FA12FBD2F80E084
:1011F00090E04C2F50E08417950734F42191319101
:101200002D933D930196F7CF1092CC01DF91CF91B2
:101210001F910F91FF900895CF92DF92EF92FF926E
:101220000F931F93CF93DF938B01982F11110BC056
:10123000442329F0E82FF0E0E459FB4F9491692F03
:10124000792F892F73C0212F30E0E82FF0E044235D
:1012500021F0E459FB4FE491F0E046E0049FC00127
:101260001124CFEFD0E0BE010E94CA29DB014BEA76
:101270004603C001479F900D1124800F911D800FE0
:10128000911D982F990F890FAE01421B530BE49FBC
:101290007001E59FF00CF49FF00C11244F2D819FFD
:1012A000B0011124672F77278E01061B170BB80199
:1012B000E69F8001E79F100DF69F100D1124712FFE
:1012C0006E01C81AD108C29EC001C39E900DD29E65
:1012D000900D1124892F9927C81BD90BEC9F9001E1
:1012E000ED9F300DFC9F300D1124932FA230B105DE
:1012F00069F02CF41097B9F0119751F012C0A43096
:10130000B10559F03CF0169761F40DC07F2D432FC5
:101310009E2F0AC0912F7F2D02C0732F9F2D4E2F1D
:1013200003C09F2D412F7E2F692F842FDF91CF91F6
:101330001F910F91FF90EF90DF90CF90089541E0C3
:101340000E940C0908950895CF93DF93762FE90149
:10135000682F842F0E949F09798368838A83DF9195
:10136000CF910895F901818360834283089580912C
:10137000C202282F269530E02115310519F481701D
:10138000826005C02B32310524F081708465809322
:10139000C202089588E090E00C94BC2ACF93DF93BA
:1013A00000D000D0CDB7DEB7AB01BC0149835A8372
:1013B0006B837C830E94B70949815A816B817C8150
:1013C00088E090E00F900F900F900F90DF91CF91F9
:1013D0000C94DA2AE2ECF2E083E0808311828FEF52
:1013E00082838383148260817181828193810C94D2
:1013F000CE098091C20280FF02C08695089580E0E8
:1014000008959091C602933018F49F5F9093C6029E
:10141000882351F06091C2027091C3028091C4028E
:101420009091C5020C94CE09089581E00C94010AB4
:101430009091C602992319F091509093C602882387
:1014400051F06091C2027091C3028091C4029091E8
:10145000C5020C94CE09089581E00C94180A70E03E
:101460000C94A010609108018091C20280FF0AC014
:101470008091070123E0829FC001112489539D4F71
:101480000C942F0A8091090190910A01891780F725
:10149000E82FF0E09F01220F331FE20FF31FE95303
:1014A000FD4F1182108212828F5FF0CF9091C202A5
:1014B00090FF16C09091090120910A01921770F4D3
:1014C000E92FF0E0DF01AA0FBB1FEA0FFB1FE95372
:1014D000FD4F8183608342839F5FF0CF0C94320A7B
:1014E0000895CF93DF9300D01F92CDB7DEB79091D0
:1014F000C20290FF0AC09E012F5F3F4F0E94A409C5
:101500004B8169818A810E94560A0F900F900F903B
:10151000DF91CF910895CF93DF93EC01EC81F0E060
:10152000E959FC4F4491E2ECF2E0628181810E9432
:10153000710A8C818F5F8C83DF91CF910895CF9357
:10154000DF93EC01E2ECF2E0438162818C810E9446
:10155000710A8C818F5F8C83DF91CF9108950F93F7
:101560001F93CF93DF9300D01F92CDB7DEB78C01CE
:101570008091CD0181110AC09E012F5F3F4F4FEF37
:101580006FEF0E94A4098A818093CD01F8018481C4
:10159000813051F028F0823061F44091CD010AC0D1
:1015A0008091CD0140E007C06091CD0140E080E036
:1015B00003C040E080E060E00E94560AF801248108
:1015C00030E0C901019663E070E00E94DE29848367
:1015D0000F900F900F90DF91CF911F910F91089571
:1015E000AF92BF92CF92DF92EF92FF920F931F9331
:1015F000CF93DF9300D01F92CDB7DEB7182FF62E12
:10160000042FE22E9091C20290FF6EC0E92FE69562
:10161000AE2FB0E0A359BE4F8C918093E6019E7F20
:10162000923061F49E012F5F3F4F812F0E94A409E9
:101630004B8169818A810E94560A44C0823019F424
:101640000091C5023FC0863019F41091C3023AC020
:101650008930D9F38931B1F5E9518E2F8170D82EB7
:10166000E695F0E0E959FB4FA590B490C12CBB245E
:1016700060910B01C61620F5EC2DF0E0EA9DC0014B
:10168000EB9D900DFA9D900D112470E00E94CA29E7
:10169000812FD11002C0860F01C0861B90910901D5
:1016A000E90FF11D9F01220F331FE20FF31F9F016E
:1016B00029533D4F402F6F2D0E94A409C394D8CFCA
:1016C0000E94320A1093C302F092C4020093C50232
:1016D000EE2051F06091C2027091C3028091C40269
:1016E0009091C5020E94CE090F900F900F90DF914C
:1016F000CF911F910F91FF90EF90DF90CF90BF900F
:10170000AF900895E2ECF2E09181282F438162814D
:1017100088E0890F0C94F00A81E00C94820BE2ECD3
:10172000F2E09181282F4381628188EF890F0C9428
:10173000F00A81E00C948F0BE2ECF2E0628121E18F
:10174000620F08F46FEF282F438181810C94F00A17
:1017500081E00C949C0BE2ECF2E0628121E1621BDF
:1017600008F460E0282F438181810C94F00A81E025
:101770000C94AB0BE2ECF2E0438121E1420F08F460
:101780004FEF282F628181810C94F00A81E00C9444
:10179000BA0BE2ECF2E0438121E1421B08F440E0A5
:1017A000282F628181810C94F00A81E00C94C90B8E
:1017B00020E00C94F00AFF920F931F93CF93DF93D6
:1017C000EC01F12C0FEF10E060910B01F616E8F43C
:1017D0002091090130E02F0D311DC901880F991F9B
:1017E000280F391F29533D4F70E0C8010E94DE29A0
:1017F000962F8C814091C5026091C402F99E800DA4
:1018000011240E94A409F394DFCF0E94320A9A8126
:101810008C8190FF02C08F5F01C081508C83DF916B
:10182000CF911F910F91FF900895AF92BF92CF92E9
:10183000DF92EF92FF920F931F93CF93DF93FC0100
:10184000828180FF02C00FEF01C001E010E043E0A1
:10185000A42E80910B01181708F043C0C12ED12C83
:1018600080910901E601C80FD11DCE01880F991F93
:10187000C80FD91FC953DD4F198218821A8234E06C
:10188000E32EF12CB12C8091CF018B0D84302CF004
:101890006A2D0E94BC29892F05C087FF03C0909143
:1018A0000B01890F082E000C990BC816D90691F46C
:1018B0008091C5028E9DA0018F9D500D11245595DC
:1018C0004795559547959E016091C4028091C3024A
:1018D0000E94A409B00EF1E0EF1AF108A1F61F5F13
:1018E000B8CF0E94320A8091CF01013031F48111CA
:1018F00002C080910B01815007C090E00196609179
:101900000B0170E00E94DE298093CF01DF91CF911F
:101910001F910F91FF90EF90DF90CF90BF90AF900D
:101920000895CF938091090190910A01891770F46D
:10193000E82FF0E09F01220F331FE20FF31FE9535E
:10194000FD4F1182108212828F5FF0CFC0E0609154
:101950000B01C617B8F5EC2FF0E070E0CF010E9444
:10196000DE2940910901480F8091CE01082E000C1C
:10197000990B50E0E817F907C4F020910601022EF8
:10198000000C330B2E173F0784F09A01220F331FF0
:10199000240F351F29533D4F4091C5026091C40269
:1019A0008091C3020E94A4090BC0FA01EE0FFF1F31
:1019B0004E0F5F1FFA01E953FD4F11821082128210
:1019C000CF5FC5CF0E94320A209105018091CE01E0
:1019D000820F8093CE0190910601920F90930601A1
:1019E00019165CF4082E000C990B40910B0150E085
:1019F00041505109841795071CF02195209305014A
:101A0000CF9108958F929F92AF92BF92CF92DF9223
:101A1000EF92FF920F931F93CF93DF93EC014C81D2
:101A2000042F10E09801D8010E94222A9B01AC01EA
:101A30000E94382A6B017C01E0E2F0E0E01BF10B30
:101A4000A5E5B0E09B01AC010E94382A4B015C0186
:101A50009F01DF010E941A2A9B01AC010E94432AC8
:101A60009B01AC012C0D3D1D4E1D5F1DC501B40138
:101A70000E94F229822F022F2A3228F493E0299F14
:101A8000900111240DC025E530E0281B3109C90162
:101A9000880F991F280F391F37FF02C02F5F3F4F54
:101AA00035952795122F1095F12C85E5E82EE01A33
:101AB00080910B01F816C0F4F1FC02C08E2D01C01C
:101AC000802F2091090130E02F0D311DA901440F15
:101AD000551F240F351F29533D4F412F6091C402DC
:101AE0000E94A409F394E4CF0E94320A8C818111F0
:101AF00002C091E003C0803219F49FEF909304017B
:101B000090910401890F8C83DF91CF911F910F91E8
:101B1000FF90EF90DF90CF90BF90AF909F908F900D
:101B200008950F931F93CF93DF93EC0100E010E033
:101B300080910B01282F30E00217130724F59091B4
:101B400009019801290F311DA901440F551F240FC8
:101B5000351F29533D4F869590E04C810817190792
:101B60001CF4442331F002C0411103C04091C5026E
:101B700001C040E06091C4028091C3020E94A409A8
:101B80000F5F1F4FD5CF0E94320A2C8130E02F5FAC
:101B90003F4F217033272C83DF91CF911F910F91FD
:101BA00008957F928F929F92AF92BF92CF92DF92D1
:101BB000EF92FF920F931F93CF93DF93FC01BB240F
:101BC000B3948281833008F4B12C948081E08483C3
:101BD00000E015E05BE4A52E88248394EE24EA94CB
:101BE000F12C7BE4C72ED12CECE47E2E80910B01EE
:101BF000081708F08DC0C02FD0E01C9FF0011D9F7A
:101C0000F00D1124E053FE4F911003C01382128295
:101C100065C08381882389F12FEF280F23833481C6
:101C2000332321F0972D981B892F01C0822F90918B
:101C3000C5021C9FF0011D9FF00D1124E053FE4FC3
:101C4000899FC0011124B6010E94CA296283211113
:101C500004C0332311F01482A382B1103FC01C9F33
:101C6000F0011D9FF00D1124E053FE4F8091C3023F
:101C700080838091C402818331C00E94972A823080
:101C8000914064F5BB2031F00E94972AB7010E9471
:101C9000DE2902C08091C3021C9FF0011D9FF00D40
:101CA0001124E053FE4F8083BB2059F00E94972AF5
:101CB0002091C4022695622F70E00E94DE29820FD7
:101CC00002C08091C4021C9FF0011D9FF00D1124E1
:101CD000E053FE4F81831282A382848280910901A6
:101CE0009E01280F311DC901880F991F280F391F28
:101CF00029533D4F1C9FF0011D9FF00D1124E0530F
:101D0000FE4F4281618180810E94A4090F5F6ECFE6
:101D1000DF91CF911F910F91FF90EF90DF90CF90C7
:101D2000BF90AF909F908F907F900C94320AE2EC1E
:101D3000F2E080818E7F80836081718182819381D6
:101D40000E94CE091092E7012FEF80E792E0215028
:101D500080409040E1F700C000000C94320A60918E
:101D6000C202669570E04BE050E08CE091E00E948A
:101D7000A72A892B19F481E08093E7010E94D41FE0
:101D80009093E0018093DF0108959091C20290FF4B
:101D900035C09170811102C0926006C08B3210F084
:101DA000946502C0880F982B9093C202662351F06D
:101DB0006091C2027091C3028091C4029091C502E9
:101DC0000E94CE096091C202669570E04BE050E03F
:101DD0008CE091E00E94A72A892B19F01092E7016C
:101DE00002C00E94AF0E81E08093E2014091C502E3
:101DF0006091C4028091C3020C94D80B0895682F9F
:101E00009091C202969581E0890F8B3208F081E0B3
:101E10000C94C50E81E00C94FF0E682F9091C202C5
:101E200096958FEF890F09F48AE20C94C50E81E034
:101E30000C940D0F61E00C94C50EE2ECF2E0808191
:101E40008160808386950C941A0F8091C20280FD78
:101E50000C94970E0C941D0F60E00C94C50E8091AD
:101E6000E50181112EC00E94271E811104C00E942D
:101E7000C71E0E94EA090E94CA096093C2027093B9
:101E8000C3028093C4029093C5026E7F61F40E94E6
:101E9000EA090E94CA096093C2027093C302809348
:101EA000C4029093C5020E94B7091092E701809185
:101EB000C20280FF03C086950E942C0F81E08093B0
:101EC000E5010895E2ECF2E08081816080838695EF
:101ED0000C942C0F0F931F93CF93DF938091E70106
:101EE000882309F49CC08091E601E091C202E69546
:101EF000E81BE093E101823049F4F0E0ED59FC4F3A
:101F0000E491CE2FD0E00BE81AE059C0863049F4B6
:101F1000F0E0E05AFC4FE491CE2FD0E00FE91AE058
:101F20004EC0893051F4E695F0E0E35AFC4FE4915D
:101F3000CE2FD0E00BED1BE042C08F3051F4E69580
:101F4000F0E0E65AFC4FE491CE2FD0E005E11CE032
:101F500036C0853149F4F0E0E95AFC4FE491CE2FC8
:101F6000D0E001E91CE02BC08831D9F0833239F48C
:101F7000E5E5F3E0C591D4910FEA1AE020C0843280
:101F8000A9F08532C1F48E2F63E00E94B029E92FB9
:101F9000F0E0EE5AFC4FE491CE2FD0E001ED1DE0D1
:101FA0000EC0C8E2D0E002E01DE009C0C4EFD1E0FD
:101FB00001E91DE004C0C0EDD7E003EA19E080911B
:101FC000E201882389F01092E2010E94D41F9E0151
:101FD00020953095820F931F9093E0018093DF014D
:101FE0001092E4011092E3018091DF019091E001F1
:101FF0000E94E01F8C179D0790F0E091DF01F091A7
:10200000E001CE0FDF1FD093E001C093DF018FED21
:1020100091E0F801DF91CF911F910F910994DF9129
:10202000CF911F910F910895882311F0FA0101C0FB
:10203000FB010994CF93DF93C82FD62F0E94F90993
:102040008C1740F00E94F9098D1720F4DF91CF9191
:102050000C940A0F8C2FDF91CF910C941A0F0F93D1
:102060001F93CF93FB01C281CC2309F463C08C0181
:102070000E94771D8272F801E25CFC45E431F105B3
:1020800008F059C0EA5AFF4F0C94142A0E94250FF9
:1020900006C047E15FE06AE07FE00E941410C0E004
:1020A0004AC04AE05FE067E17FE0F7CF49E95BE0E3
:1020B0006CE87BE0F2CF4CE85BE069E97BE0EDCFD8
:1020C00047EB5BE068EA7BE0E8CF48EA5BE067EB80
:1020D0007BE0E3CF45ED5BE066EC7BE0DECF46ECFA
:1020E0005BE065ED7BE0D9CF4CE25AE065E17AE058
:1020F000D4CF45E15AE06CE27AE0CFCF81E017C05F
:1021000065E082E010C068E086E00DC06EE089E026
:102110000AC064E18FE007C067E185E104C088E19F
:1021200006C062E289E10E941A10B9CF83E20E94E0
:102130001A0FB5CFC1E08C2FCF911F910F91089549
:10214000509A2BB12E7F3BB131604FB7F894FC0110
:10215000CB01880F991F680F791F6E0F7F1FE6173D
:10216000F70789F0819198E03BB9000000C087FF34
:102170002BB9880F000000C000C000C02BB900C000
:102180009A9591F7ECCF4FBF8FE594E00197F1F767
:1021900000C000000895AF92BF92CF92DF92EF92FD
:1021A000FF920F931F93CF93DF937C015B01C42FAA
:1021B000D22FFC0182818823F9F04093EA010E942A
:1021C000D41F9093E9018093E80180E28C0F88305E
:1021D00008F061C0C77081E001C0880FCA95EAF7B6
:1021E000DF91CF911F910F91FF90EF90DF90CF90F3
:1021F000BF90AF900C940D151091EA01141335C0E7
:102200008091E8019091E9010E94E01F6C01B70103
:10221000C5010E946A1AC816D90638F5C0E2CD0F6A
:102220001D17B9F080E2810F883040F4177081E00B
:1022300001C0880F1A95EAF70E941415C83048F4B7
:1022400081E09D2F977001C0880F9A95EAF70E9450
:102250000D15802F0E94FA14C830E8F4D77081E081
:1022600001C0880FDA95EAF70AC080E28C0F883047
:1022700090F4C77081E001C0880FCA95EAF7DF913A
:10228000CF911F910F91FF90EF90DF90CF90BF9073
:10229000AF900C941415DF91CF911F910F91FF9087
:1022A000EF90DF90CF90BF90AF9008950F939C0177
:1022B000CB01233F4CE5340731F188F4283DFCE5A0
:1022C0003F07D9F0293D4CE5340779F1273D3C45DE
:1022D000A9F506E221EE41EE67ED7CE52BC0253F36
:1022E000FCE53F07E1F0A8F0263F3C4539F507E261
:1022F00025EE46EE66EF7CE51DC007E225EE45EED5
:1023000068ED7CE517C006E221EE40EE63EF7CE568
:1023100011C007E225EE44EE64EF7CE50BC006E257
:1023200021EE42EE65EF7CE505C008E221E045EED6
:1023300069ED7CE50E94CB1080E008C0FC01828141
:10234000882319F01092EA0101C081E00F910895ED
:10235000CF93DF93EC01FB018281882309F41FC135
:10236000C230FCE5DF0708F41BC1C6319CE5D90784
:1023700038F09E012A5F3C452930310508F010C134
:102380000E943A1E9093D5028093D402C031ECE5AE
:10239000DE0709F4C3C008F041C0C8308CE5D80797
:1023A00009F49AC0F0F4C430ECE5DE0709F487C004
:1023B00068F4C2308CE5D80709F477C0C330DC4537
:1023C00009F0E3C08091D402826076C0C630ECE5AB
:1023D000DE0709F46EC008F07BC08091D4028860EB
:1023E0006BC0CC308CE5D80709F485C068F4CA30DE
:1023F000ECE5DE0709F474C008F079C00E94A51767
:102400008091D402806858C0CE308CE5D80709F49A
:1024100076C008F07FC08091D4028BC0CB3FECE542
:10242000DE0709F44FC018F5C3318CE5D80709F46D
:102430007DC078F4C131ECE5DE0709F473C0C23128
:10244000DC4509F0A2C00E94A5178091D4028F77C5
:1024500033C0C5318CE5D80709F472C008F486C0D2
:10246000CA3FDC4509F091C08091D5023EC0CF3F04
:10247000FCE5DF0709F45FC058F4CD3F9CE5D907C0
:1024800009F444C008F43FC08091D50282602DC099
:10249000C130FDE5DF0709F475C008F45DC0C23046
:1024A000DD4509F072C080E06EC08091D402816089
:1024B00003C08091D40280618093D40266C0809171
:1024C000D40211C08091D50282608093D5025DC094
:1024D0008091D4028062F0CF8091D4028064ECCFEE
:1024E0008091D40288608460E7CF8160EECF8091D4
:1024F000D4028E7FE1CF8091D4028D7FDDCF809199
:10250000D402877FD9CF8091D50218C08091D5029F
:102510008D7FDBCF8091D4028F7ECECF8091D4028D
:102520008F7DCACF8091D4028F7BC6CF8091D40299
:10253000877F8B7FC1CF8091D5028D7F8E7FC5CF66
:102540008091D40282FB222720F991E0922790FB10
:1025500082F990FB83F9B0CF8091D502982F9095A6
:1025600091708E7F892B90FB81F9AFCF0E94A517C8
:102570008091D40287FB222720F991E0922790FBDB
:1025800087F99ACF81E00E94C91E8091D402909170
:10259000D5020E944B1E0E94A51780E001C081E079
:1025A000DF91CF910895CF93DF9386319C4541F51C
:1025B000EB010E94771D282F8A81409117015091CD
:1025C0001801882379F02A7A91E009F490E0909339
:1025D000EB01911102C069E201C065E3CA010E94EA
:1025E000661F0AC08091EB01811102C069E201C03F
:1025F00065E3CA010E94711F0E94C31D80E001C0F3
:1026000081E0DF91CF9108959093F1018093F001E3
:102610000895E091F001F091F101309721F00190DF
:10262000F081E02D099480E00895E091F001F091AF
:10263000F101309799F020912B01222359F020913C
:10264000D40227FF07C0DC012C9111962C9311971F
:1026500025E02C930280F381E02D09940895E09108
:10266000F001F091F101309739F022E0DC012C9378
:102670000480F581E02D099408952091EE013091B8
:10268000EF018217930771F09093EF018093EE01B1
:10269000E091F001F091F101309721F00680F7818F
:1026A000E02D099408952091EC013091ED018217FD
:1026B000930771F09093ED018093EC01E091F001AC
:1026C000F091F101309721F00084F185E02D09941B
:1026D000089585B7806885BF85B7806885BF0895F0
:1026E000089508950C9471130C94E5040E946913E5
:1026F0000E9470130C94721381E008950C947C1363
:102700000E94CB1F0E949C080E9439200E942F0F1C
:102710000C9474137F928F929F92AF92BF92CF923C
:10272000DF92EF92FF920F931F93CF93DF93CDB77A
:10273000DEB72A970FB6F894DEBF0FBECDBF0E945A
:10274000BE080E947E13811111C08FEF89838A8396
:102750001B820E94D41F8160782F9D838C834981C6
:102760005A816B818D810E943C144FC033EF832EC0
:1027700031E0932E00E010E0702E802F0E948E0832
:102780006C01F401A190B1904F01A826B926A114C3
:10279000B10431F40F5F1F4F0430110569F7D5CF35
:1027A00080917F0281FD0E94970890E0EE24E394DF
:1027B000F12C97012A213B21232B09F19E837F8253
:1027C000CE20DF2091E0CD2809F490E098870E9488
:1027D000D41F8160782F9A8789874E815F816885B1
:1027E0008A850E943C14000F111FF801ED50FE4F26
:1027F00080819181E826F926F182E08206C09F5F00
:10280000EE0CFF1C9C30A9F6C5CF0E946A0F0E94F7
:10281000E8211091F2010E9409131817C9F00E94D3
:1028200009138093F2012A960FB6F894DEBF0FBE0B
:10283000CDBFDF91CF911F910F91FF90EF90DF906F
:10284000CF90BF90AF909F908F907F900C94280670
:102850002A960FB6F894DEBF0FBECDBFDF91CF91A1
:102860001F910F91FF90EF90DF90CF90BF90AF90AE
:102870009F908F907F900895CF93DF93CDB7DEB771
:102880002B970FB6F894DEBF0FBECDBF4F8358878E
:1028900069877A878B87DE01119686E0FD011192A8
:1028A0008A95E9F785E0FE01379601900D928A95A9
:1028B000E1F749815A816B817C818D819E810E94E3
:1028C0006D1A2B960FB6F894DEBF0FBECDBFDF9109
:1028D000CF910895FC01808191810E94381D089557
:1028E000CF93882309F450C0C82F8CEF8C0F813A06
:1028F000D0F46C2F80911701909118010E94E41E72
:10290000882349F06C2F80911701909118010E9443
:10291000711F0E94C31D6C2F8091170190911801A7
:102920000E94661F0CC080E28C0F883058F4C7707C
:1029300081E001C0880FCA95EAF70E947A1DCF9105
:102940000C94C31DEBE5EC0FE33040F4F0E0EA53E8
:10295000FE4F808190E0CF910C943D13E8E5EC0FA1
:10296000E73150F4F0E0EE0FFF1FE856FE4F808194
:102970009181CF910C945313C03F30F08C2F0E9463
:10298000DD20CF910C94CA21CF910895882389F13D
:102990009CEF980F913A40F4682F80911701909125
:1029A00018010E94711F0DC090E2980F983058F4E2
:1029B000877091E001C0990F8A95EAF7892F0E94EC
:1029C000801D0C94C31D9BE5980F933020F480E08C
:1029D00090E00C943D1398E5980F973120F480E037
:1029E00090E00C945313803F20F00E9445210C94FA
:1029F000CA210895CF93C82F0E947014C93349F497
:102A00002FEF87EE93E0215080409040E1F700C027
:102A100000008C2FCF910C94C614882321F00E94C3
:102A20007A1D0C94C31D0895882321F00E94801DF7
:102A30000C94C31D0895BF92CF92DF92EF92FF9244
:102A40000F931F93CF93DF937C01062FC72FFC01B9
:102A5000158112951F70D281D1110E94971D0E947D
:102A6000701D882399F0DD2389F08C2F807F8034BE
:102A700021F080E2800F883048F082E00E940E1E34
:102A80000E94701D91E0B82EB92601C0B12CCC2E49
:102A9000C2948FE0C822D12CF601E659FF4F0C9466
:102AA000142A8C2F807FCF70882311F0C295C07FAD
:102AB000DD2399F0CC2309F497C180E2800F8830A0
:102AC00010F0011104C08C2F0E947A1D03C08C2FBE
:102AD0000E948A1D0E94C31D87C1802F0E94C614B8
:102AE000CC2309F4A6C180E2800F883010F00111D8
:102AF00004C08C2F0E94801D03C08C2F0E94901D4B
:102B00000E94C31D96C18C2F807FCF70803211F040
:102B1000C295C07F002319F00130C9F022C0DD2327
:102B200071F0112341F0113031F40E94AA1D8C2B59
:102B30000E94B01D7EC10E94AA1D8C2B1DC01123B6
:102B400019F0113009F475C10E94B91D25C0DD23AB
:102B500021F0163008F06DC10EC0153008F069C1C3
:102B60001BC0DD2361F0112331F0F701858180FF67
:102B70003BC18F7085838C2F0E940D155AC1112384
:102B800059F0093309F041C1FFEF27EE83E0F1501E
:102B900020408040E1F737C18C2F0E94141549C1B5
:102BA0008C2F86958695837090E0009719F0019799
:102BB00061F03FC1DD2321F0802F9C2F937002C074
:102BC00080E090E00E943D133FC1DD2321F0802F83
:102BD0009C2F937002C080E090E00E94531334C198
:102BE000802FDD2319F00E94DD2002C00E944521C4
:102BF0000E94CA2129C18C2F837009F049C0D111CC
:102C00001FC1402F429546954770440F440F602FD7
:102C10006F70862F90E0A0E0B0E0042E04C0880F13
:102C2000991FAA1FBB1F0A94D2F704FF10C00FE020
:102C300010E020E030E004C0000F111F221F331FFE
:102C40004A95D2F7009510952095309503C000E085
:102C500010E09801C695C695C370D0E0BC01CD01C7
:102C6000602B712B822B932BC230D10559F0C330CE
:102C7000D10559F0219719F00E94B21BE1C00E94C2
:102C8000A01BDEC00E94C41BDBC00E949E1BD8C0DC
:102C9000DD2319F08C2F817001C08695882309F4FB
:102CA000CFC0402F429546954770440F440F602F88
:102CB0006F70862F90E0A0E0B0E0042E04C0880F73
:102CC000991FAA1FBB1F0A94D2F704FF10C00FE080
:102CD00010E020E030E004C0000F111F221F331F5E
:102CE0004A95D2F7009510952095309503C000E0E5
:102CF00010E09801C695C695C370D0E0BC01CD0127
:102D0000602B712B822B932BC230D10559F0C3302D
:102D1000D10559F0219719F00E94771C91C00E94AB
:102D2000651C8EC00E94891C8BC00E94D81B88C065
:102D3000CF70DD2339F08C2F0E94FE1B802F0E9464
:102D40000D157EC0802F0E9414158C2F0E941F1C11
:102D500077C0023F01F128F4003F41F0013FA1F0AC
:102D60003FC0033FF9F0043F39F13AC0DD2341F0A1
:102D7000153008F05EC08C2F8F710E94441C59C022
:102D8000163008F056C0F7CFDD2339F08C2F8F7145
:102D90000E94FE1B4EC0DD23C9F38C2F8F710E9451
:102DA0001F1C47C0DD2329F08C2F8F710E94E91B67
:102DB00040C00E94E41B3DC0DD2349F0CF718C2F41
:102DC0000E94FE1B63E08C2F0E94F91D32C081E03F
:102DD0000E940E1E123068F182E00E940E1E29C071
:102DE000DD2331F0112391F2802F0E94701421C055
:102DF000112399F2093349F49FEFE7EEF3E0915084
:102E0000E040F040E1F700C00000802F0E94C614AF
:102E100010C04C2F4F70602FC7010E9484060E9483
:102E2000111B12C04C2F4F70602FC7010E948706E4
:102E30000BC028E0C21AD10884E0C816D10420F4DF
:102E40000E9409130E942806BB20D1F00E946C1D2D
:102E500080FD16C0F70112820E94661D0E94FE1BB3
:102E6000C7010E9462170E94661DDF91CF911F91DA
:102E70000F91FF90EF90DF90CF90BF900C941F1CAC
:102E8000DF91CF911F910F91FF90EF90DF90CF9046
:102E9000BF9008950F931F93CF93DF93EC01688148
:102EA00079818A810E94431D8C010E949B1C0E9493
:102EB0009D1BB801CE010E941B15DF91CF911F9180
:102EC0000F910895CF93DF93EC01888199812B8135
:102ED0003C81232BE9F09F3F11F48F3FC9F0CE01D5
:102EE0000E94410681110CC00E94701D882381F050
:102EF0008A81882369F082E0DF91CF910C940E1EC5
:102F0000CE010E944A17CE01DF91CF910C94530558
:102F1000DF91CF9108950E94971D0E94A71D0E94E6
:102F2000C31D0E94FB220E94CA2180E090E00E9403
:102F30003D1380E090E00C94531380911701909121
:102F400018010E947C1F0C948B170E94871D0C9403
:102F50009D17E92FE295EF70F0E03297EE30F10522
:102F6000B0F4E658FF4F0C94142A803F91F018F407
:102F7000883E68F40EC0843F51F40BC0883E48F090
:102F8000813F29F406C093FB882780F9089580E0EB
:102F9000089581E008950E94381D0E94A9170895A0
:102FA000CF93DF9300D000D01F92CDB7DEB70F9044
:102FB0000F900F900F900F90DF91CF910895CF93C6
:102FC000DF9300D000D000D0CDB7DEB726960FB685
:102FD000F894DEBF0FBECDBFDF91CF9108951F9350
:102FE000CF93DF93C091FC0116E08091FD01C817DB
:102FF00099F0D0E01C9FF0011D9FF00D1124E250CC
:10300000FE4F4081518162817381848195810E944C
:10301000DF172196C770E9CFDF91CF911F910895F7
:1030200040912E0250912F02609130027091310236
:1030300080913202909133020C94DF172091FC01B1
:103040009091FD0156E02917A9F030E0529FF00160
:10305000539FF00D1124E250FE4F7181671306C09B
:103060007081871303C07281471306C02F5F3F4FE3
:103070002770E9CF80E0089581E00895CF93DF9332
:103080008091330282958F7009F051C08091300297
:10309000882309F44CC08091FC01C091FD0140914E
:1030A0002E0250912F026091310270913202D6E0CF
:1030B0008C17E9F190E061157105B1F15F3F11F4F2
:1030C0004F3F91F1D89FF001D99FF00D1124DF01FE
:1030D000A250BE4F11962C911197521325C02C91DE
:1030E000421322C012962C91129721111DC01396E3
:1030F0002D913C911497261B370B2F3A3105A0F4E4
:10310000809133028F70806180933302ED5FFD4FB9
:1031100080818F70806180838EE292E00E946217CE
:10312000DF91CF910C94EF1701968770C1CFDF919B
:10313000CF9108958F929F92AF92BF92DF92EF92BC
:10314000FF920F931F93CF93DF93CDB7DEB76297B4
:103150000FB6F894DEBF0FBECDBF8C0185E0F8013D
:10316000DE011D9601900D928A95E1F7D801EC9051
:1031700011965C9111971296DC90129713968D9090
:103180009C90149790912E0220912F026091310211
:10319000709132026115710509F46CC12F3F19F469
:1031A0009F3F09F467C18EE2A82E82E0B82EF0900E
:1031B0003002F401E61BF70BFF2009F404C18091F3
:1031C0003302382F307FEF3AF10508F0C0C03111DB
:1031D00079C0251313C09E1111C0D1100FC08F707C
:1031E0008061809333020E941018C5010E9462170B
:1031F00080913302D80115968C9321C0892809F457
:1032000057C05F3F21F4BFEFEB1609F451C0D11056
:1032100018C040E0652F8E2D5A8B0E941E185A89C7
:10322000882379F08EE292E00E946217EEE2F2E0EB
:1032300086E0DF011D928A95E9F70E941018F12CB3
:1032400036C15F3F19F4BFEFEB1691F1D11030C0DA
:1032500040E0652F8E2D5A8B0E941E18B82E5A8979
:10326000811126C0ED865E878D859E850E94381D62
:10327000292F22952F7030E02230310524F02430A0
:10328000310534F00FC09F7049F0811107C00EC0A6
:103290009F7021F0F8019581907F41F090E2980FA6
:1032A000983020F0C8010E946217BF2CFB2CFFC091
:1032B000FD2CDD2009F4FBC08091330281608093F6
:1032C0003302BDCF251306C09E1104C0D11002C029
:1032D000D8019AC0ED865E878D859E850E94CB17AA
:1032E000882379F1DD2069F120913302822F8295C4
:1032F0008F7090E0029774F080912E0290912F02CF
:1033000098878F8319869B868A862C87CE0107969D
:103310000E94621786E0F801AEE2B2E001900D92E1
:103320008A95E1F70E943E180E9410180DC02517DB
:1033300011F1ED865E878D859E850E94CB178111E8
:103340002AC0C8010E946217FF24F394B0C0311153
:10335000EECF782D998A888A4E2D6D2D89890E940D
:10336000D0178EE292E00E94621786E0F50111927A
:103370008A95E9F762CF9E11DCCFD110DACFD80160
:1033800015968C93C8010E94621786E0F501119290
:103390008A95E9F78CC0DD20A1F220913302822FBB
:1033A00082958F7090E002970CF4B4CF80912E023A
:1033B00090912F029A8389831B829D828C822E8317
:1033C000CE010196A5CFEF3AF10508F045C0FD2CDE
:1033D000DD2009F4B6CF25132EC09E112CC02091FC
:1033E000330220FD1FC0822F82958F70D9F0D80143
:1033F00015962C9315978F3049F08F5F982F9295E3
:10340000907F822F8F70892B15968C93C8010E9414
:10341000621786E0F801AEE2B2E001900D928A9563
:10342000E1F743C086E0F801AEE2B2E001900D9210
:103430008A95E1F73CC0ED865E878D859E850E946A
:10344000CB17811167CF8091330281608093330263
:10345000C8010E9462172BC0782D998A888A4E2D48
:103460006D2D89890E94D01786E0F50111928A9509
:10347000E9F71BC0DD2009F464CFED865E878D85FA
:103480009E850E94CB17F82E882309F45ACF86E038
:10349000F801AEE2B2E001900D928A95E1F78EE27A
:1034A00092E00E946A140E943E180E9410188F2D0C
:1034B00062960FB6F894DEBF0FBECDBFDF91CF91FD
:1034C0001F910F91FF90EF90DF90BF90AF909F9072
:1034D0008F9008958FEA90E008951F93CF93DF9324
:1034E000CDB7DEB72C970FB6F894DEBF0FBECDBFB9
:1034F0004F83588769877A878B879C87CE01079689
:103500000E949A18882369F08F8198852A853B85C7
:10351000232BF1F19F3F09F063C08F3F09F060C09A
:1035200037C086E0FE013796DE01119601900D92BC
:103530008A95E1F76F817885EA85FB85309741F1BF
:103540007F3F11F46F3F21F12091FD0130E0C9016F
:103550000196877099274091FC0150E084179507E8
:1035600009F447C069837A83FD83EC8396E0929FD8
:10357000D001939FB00D1124A250BE4FFE01319691
:1035800001900D929A95E1F78093FD010E94EF174B
:1035900016E08091FC019091FD018917C1F1189FFF
:1035A000C001112482509E4F0E949A18882379F1FD
:1035B000E091FC011E9FF0011124E250FE4F40817A
:1035C000518162817381848195810E94DF1780918E
:1035D000FC0190E00196877099278093FC01D9CF78
:1035E0004F81588569857A858B859C850E94DF1778
:1035F000CFCF0E94A5171092FD011092FC01EEE2C0
:10360000F2E086E0DF011D928A95E9F7C1CF2C96A2
:103610000FB6F894DEBF0FBECDBFDF91CF911F91E3
:103620000895EF92FF920F931F93CF93DF938C0136
:10363000892B09F46CC0F12CEE24E394E801219667
:10364000F8018491843740F4843008F051C081300F
:1036500081F0823019F15BC0853709F444C0A8F1CC
:103660009CE7980F903708F052C08F770E94C614DD
:1036700041C00E5F1F4FFE01C49180E28C0F883065
:1036800048F4C7708E2D01C0880FCA95EAF70E94D2
:103690009A1D14C08C2F0E9470142DC00E5F1F4FF6
:1036A000FE01C49180E28C0F883058F4C7708E2DD3
:1036B00001C0880FCA95EAF70E94A01D0E94C31D91
:1036C0001AC08C2F0E94C61416C00E5F1F4FFE0139
:1036D000C491CC2381F08FE99FE00197F1F700C0FE
:1036E0000000C150F6CF0E5F1F4FFE01F49003C0E3
:1036F0000E9470148E018F2D882309F49FCFEFE96B
:10370000FFE03197F1F700C000008150F5CFDF9165
:10371000CF911F910F91FF90EF90089508950C9411
:103720008E1B0E948F1B60935602709357028093EA
:103730005802909359020C948B1708950C94911B86
:103740000F931F9300915602109157022091580237
:1037500030915902602B712B822B932B1F910F916B
:103760000C94911B0F931F930091560210915702D6
:1037700020915802309159026023712382239323B0
:103780001F910F910C94911B0F931F930091560260
:1037900010915702209158023091590260277127E9
:1037A000822793271F910F910C94911B0C94FF0477
:1037B0000E94D61B6093520270935302809354026E
:1037C000909355020C948B1760E070E0CB010C9441
:1037D000D81B0F931F9341E050E060E070E08A0136
:1037E0009B0104C0000F111F221F331F8A95D2F7BF
:1037F000C901B8011F910F910C94D81B0F931F930F
:1038000041E050E060E070E004C0440F551F661FC7
:10381000771F8A95D2F78091520290915302A0911E
:103820005402B09155028A019B01082B192B2A2BB7
:103830003B2BC901B8011F910F910C94D81B0F931A
:103840001F9341E050E060E070E004C0440F551F5A
:10385000661F771F8A95D2F74095509560957095B1
:103860008091520290915302A0915402B09155025E
:103870008A019B01082319232A233B23C901B8018C
:103880001F910F910C94D81B0F931F9341E050E0B0
:1038900060E070E004C0440F551F661F771F8A95D3
:1038A000D2F78091520290915302A0915402B091AC
:1038B00055028A019B01082719272A273B27C9019E
:1038C000B8011F910F910C94D81B0F931F93009177
:1038D0005202109153022091540230915502602BF4
:1038E000712B822B932B1F910F910C94D81B0F934C
:1038F0001F93009152021091530220915402309173
:10390000550260237123822393231F910F910C94FE
:10391000D81B0F931F9300915202109153022091D4
:1039200054023091550260277127822793271F91F7
:103930000F910C94D81B08952CE0929F800D1124B8
:10394000A82FA695A695A695877051E001C0550FA2
:103950008A95EAF785E0A89FD001112420E030E0A5
:1039600070E0F901EA0FFB1FEC5CFD4F4081CB01D9
:10397000022E02C0969587950A94E2F781709927E6
:10398000819584278523842780832F5F3F4F2530AF
:10399000310539F708952CE0929F800D1124682F8E
:1039A000669566956695982F977085E0689FB0013B
:1039B000112440E050E080E0FA01E60FF71FEC5CD4
:1039C000FD4F208130E0092E02C0369527950A94DC
:1039D000E2F721703327042E01C0220F0A94EAF780
:1039E000822B4F5F5F4F4530510531F70895BF92ED
:1039F000CF92DF92EF92FF920F931F93CF93DF93BB
:103A00008C01C0905602D0905702E0905802F0907E
:103A100059028091520290915302A0915402B091A8
:103A20005502C82AD92AEA2AFB2ACFE1D0E0D701D9
:103A3000C6010C2E04C0B695A795979587950A9454
:103A4000D2F780FF07C0BC2EB8018C2F0E94A206BF
:103A5000019719F4219758F7B12C8B2DDF91CF9155
:103A60001F910F91FF90EF90DF90CF90BF9008953E
:103A7000CF93DF93EC010E94F71CBE010E94A206C7
:103A8000DF91CF9108951F93CF93DF93EB01909136
:103A9000FB01992321F0CB010E94381D13C088231C
:103AA00049F0CB010E94F71C182F682FCE010E940D
:103AB0009C1C04C0CB010E94CB1C182FBE01812F7F
:103AC0000E94A206DF91CF911F91089580915A0222
:103AD000859585958595089580915A0287700895FA
:103AE00090915A02977081E009F480E008958091E6
:103AF0007E02089590917E02892B80937E02089524
:103B0000809590917E02892380937E020895109281
:103B10007E02089590917D02892B80937D02089505
:103B2000809590917D02892380937D020895109263
:103B30007D02089590917C02892B80937C020895E8
:103B4000809590917C02892380937C020895109245
:103B50007C02089580915B02089508950C94AD1D38
:103B600090915B02981721F080935B020C94AE1D3C
:103B7000089580915B02882329F010925B0280E017
:103B80000C94AE1D0895E0911701F09118018091F9
:103B90007E028083E0911701F0911801908180915D
:103BA0007D02892B8083E0911701F09118019081AB
:103BB00080917C02892B808380915B02882381F035
:103BC000E0911701F09118019081892B80838091F9
:103BD0001701909118010E94CE1E81110E94B91DFB
:103BE00080911701909118010C94151308950C946D
:103BF000F61D98E0899F90011124262B20935A02EC
:103C00000E94FE1B80915A028595859585950C949E
:103C1000F71D10925A0280E00C94F71D20915A0271
:103C20008095822380935A02982F977079F430E020
:103C3000482F082E000C550B2417350739F08595B1
:103C4000859585950E941F1C0C94091E089580E09F
:103C500090E00E94C22A21E08C3E9E4F09F020E0B5
:103C6000822F089582E090E00C94B42A83E090E0E3
:103C70000C94B42ACF9384E090E00E94B42AC82F19
:103C800081E290E00E94B42A2C2F30E0A901582B49
:103C9000CA01CF910895CF93C92F682F84E090E097
:103CA0000E94C82A6C2F81E290E0CF910C94C82A20
:103CB000AB01BC018FE090E00C94DA2AAB01BC01AF
:103CC00083E190E00C94DA2A60E070E0CB010C9480
:103CD0005E1E60E070E0CB010E94581E0C94641ED2
:103CE0006CEE7EEF80E090E00E94E62A60E082E0E9
:103CF00090E00E94C82A60E083E090E00E94C82A19
:103D000010925602109257021092580210925902C5
:103D100060E084E090E00E94C82A60E081E290E0E8
:103D20000E94C82A60E085E090E00E94C82A60E016
:103D300086E090E00E94C82A6FEF87E090E00E9442
:103D4000C82A40E050E0BA0188E090E00E94DA2AF8
:103D500060E08DE090E00E94C82A40E050E0BA01A7
:103D600088E190E00E94DA2A60E087E190E00E941A
:103D7000C82A40E050E0BA018CE190E00E94DA2AC3
:103D800060E080E290E00E94C82A0C94691E0C94C6
:103D9000701E682F8EE090E00C94C82AFC013296C9
:103DA00080912B01882331F08091D40287FF02C0DB
:103DB0009EE101C096E080E0915028F021912223FD
:103DC000D9F38F5FF9CF0895662369F120912B0114
:103DD000222321F02091D40227FD04C0FC01329659
:103DE00008961DC0262F2695269526952E31D8F4A7
:103DF000FC01E20FF11D2281822F90E0677021E02B
:103E000030E002C0220F331F6A95E2F728233923DE
:103E100081E0232B59F407C0E817F90721F021911D
:103E20002613FACF02C080E0089581E008959C0136
:103E3000FC0132969FEF80E04191461789F09F3F49
:103E400019F4411101C0982F8F5F8630A9F79F3F69
:103E500039F0F901E90FF11D97FDFA956283089594
:103E60000895FC01329608962081261301C0108225
:103E70003196E817F907C1F70895262F269526955C
:103E800026952E3168F4FC01E20FF11D677021E0E8
:103E900030E001C0220F6A95EAF78281282B228345
:103EA0000895262F2695269526952E3170F4FC012F
:103EB000E20FF11D677021E030E001C0220F6A952A
:103EC000EAF72095828128232283089520912B01EF
:103ED000222329F02091D40227FD0C943D1F0C943D
:103EE000171F20912B01222329F02091D40227FDB6
:103EF0000C94511F0C94311F20912B01FC01329620
:103F0000222331F08091D40287FF02C08EE101C0EC
:103F100086E0DF011D928A95E9F7089508950C94D3
:103F20008E1F0E94A5170E9409130E942806109256
:103F300081028091820281110E94620F0E94AF0E65
:103F40000C948F1F1F920F920FB60F9211248F9314
:103F50009F93AF93BF9380918002811113C0809192
:103F6000D0029091D102A091D202B091D302419699
:103F7000A11DB11D8093D0029093D102A093D202D3
:103F8000B093D302BF91AF919F918F910F900FBECD
:103F90000F901F90189582E084BD93E095BD9AEF35
:103FA00097BD80936E0008952FB7F8948091D0024A
:103FB0009091D102A091D202B091D3022FBF089567
:103FC0009C014FB7F8948091D0029091D102A091BA
:103FD000D202B091D3024FBF821B930B0895789405
:103FE0001F920F920FB60F9211248F939F93AF934E
:103FF000BF938091D0029091D102A091D202B09152
:10400000D3020196A11DB11D8093D0029093D102DD
:10401000A093D202B093D302BF91AF919F918F91A1
:104020000F900FBE0F901F90189581E08093E000D5
:1040300080E28093D8001092C9008FE19EE401973E
:10404000F1F700C0000087E090EBDC018093E30211
:104050009093E402A093E502B093E6029CE088E12D
:104060000FB6F894A895809360000FBE90936000FF
:10407000FFCF0E94271E811102C00E94C71E0E940E
:10408000321E80937F020E943A1E9093D502809345
:10409000D4020E94361E682F70E080E090E00E94FB
:1040A0009E1B609152027091530280915402909134
:1040B00055020C94D61B8091890280FF0BC0609141
:1040C0001E0185E0689FB00111247595679575956F
:1040D00067952BC081FF09C060911E0185E0689F34
:1040E000B00111247595679520C082FF07C06091CB
:1040F0001E0185E0689FB001112417C090918802CD
:104100009923D1F060911D01961788F720911E0127
:1041100085E0289F90011124929FA001939F500D4C
:10412000112470E0CA010E94DE296038710540F454
:104130006115710539F002C065E070E0862F0895C1
:104140008FE7089581E008958091890280FF08C07B
:1041500060911A0170E0759567957595679521C016
:1041600081FF06C060911A0170E07595679519C0CE
:1041700082FF04C060911A0170E010C09091870224
:104180009923C1F0609119019617A0F780911A0147
:10419000899FC001112470E00E94DE2960387105FA
:1041A00028F46115710521F0862F08958FE7089591
:1041B00081E0089561E070E0F4CF803F21F40E9437
:1041C0005B20819504C0813F29F40E945B2080938D
:1041D0008D020895823F21F40E945B20819504C0E6
:1041E000833F29F40E945B2080938C020895893FCD
:1041F00019F40E94A42005C08A3F31F40E94A42033
:10420000819580938E0208958B3F21F40E94A42013
:10421000819504C08C3F29F40E94A42080938F02D2
:104220000895843F21F480918B02816017C0853FFF
:1042300021F480918B02826011C0863F21F480912D
:104240008B0284600BC0873F21F480918B028860D1
:1042500005C0883F31F480918B02806180938B028E
:1042600008958D3F21F48091890281600BC08E3FBB
:1042700021F480918902826005C08F3F29F48091EA
:1042800089028460809389020895803F39F4809187
:104290008D0287FF6AC010928D0267C0813F29F4AA
:1042A00080918D021816BCF360C090918C02823F01
:1042B00029F497FF5AC010928C0257C0833F19F41B
:1042C0001916CCF352C090918E02893F31F4191621
:1042D0000CF04BC010928E0248C08A3F19F497FF31
:1042E00044C0F8CF8B3F39F480918F0287FF3DC0E7
:1042F00010928F023AC08C3F29F480918F021816D9
:10430000BCF333C0843F21F480918B028E7F17C0B1
:10431000853F21F480918B028D7F11C0863F21F46F
:1043200080918B028B7F0BC0873F21F480918B02A1
:10433000877F05C0883F31F480918B028F7E809308
:104340008B0213C08D3F21F4809189028E7F0BC0B8
:104350008E3F21F4809189028D7F05C08F3F29F423
:10436000809189028B7F8093890280918C028111D8
:1043700006C080918D02811102C010928802809146
:104380008E02811106C080918F02811102C01092AD
:10439000870208950E94D41F20918C02211104C02D
:1043A00020918D02222321F0909386028093850232
:1043B00020918E02211104C020918F02222321F02E
:1043C00090938402809383028AE892E00C942F13E6
:1043D000EF92FF920F931F93CF93DF9300D000D003
:1043E00000D0CDB7DEB786E0EAE8F2E0DE01119654
:1043F00001900D928A95E1F7E0908C02F0908D0289
:1044000000918E0210918F0210928C0210928D02F8
:1044100010928E0210928F02E11003C0FF2009F467
:104420005DC080918502909186020E94E01FAC01E0
:1044300090918802992339F020911F0130E02417D0
:10444000350758F04BC0209120018AE0289F900149
:1044500011242417350718F041C09F3F19F09F5FC2
:1044600090938802EE2061F00E945B201E1414F0ED
:104470009FEF01C091E0989F902D112490938C02A2
:10448000FF2061F00E945B201F1414F09FEF01C019
:1044900091E0989F902D112490938D0230918C0281
:1044A0003323E1F020918D022223C1F045EB340348
:1044B000C0011124892F990F990B009709F481E00D
:1044C00080938C0235EB2303C0011124892F990FAF
:1044D000990B009709F481E080938D02011103C0CC
:1044E000112309F45DC080918302909184020E949F
:1044F000E01FAC0190918702992339F020911B01B4
:1045000030E02417350758F04BC020911C018AE099
:10451000289F900111242417350718F041C09F3FB0
:1045200019F09F5F90938702002361F00E94A420FE
:10453000101614F09FEF01C091E0989F902D112468
:1045400090938E02112361F00E94A420111614F0A2
:104550009FEF01C091E0989F902D112490938F02BE
:1045600030918E023323E1F020918F022223C1F09B
:1045700045EB3403C0011124892F990F990B009743
:1045800009F481E080938E0235EB2303C0011124EE
:10459000892F990F990B009709F481E080938F027E
:1045A00080918C0281110BC080918D02811107C016
:1045B00080918E02811103C080918F0281110E942F
:1045C000CA21EB82FC820D831E8386E0FE013196B8
:1045D000AAE8B2E001900D928A95E1F726960FB60F
:1045E000F894DEBF0FBECDBFDF91CF911F910F9129
:1045F000FF90EF900895EAE8F2E086E0DF011D9277
:104600008A95E9F710928802109287021092890227
:1046100008958091B0020895CF93DF9300D01F9248
:10462000CDB7DEB79091DA02943019F589837B8398
:104630006A8382E08093E9008FEF9091E8008150D7
:1046400095FD06C095ED9A95F1F700008111F5CF23
:104650008091E80085FF0DC040E050E063E070E02D
:10466000CE0101960E9414258091E8008E778093F8
:10467000E8000F900F900F90DF91CF910895BC014B
:1046800084E00C940C23BC0183E00C940C2322E006
:104690002093E9002FEF3091E800215035FD06C04E
:1046A00035ED3A95F1F700002111F5CF2091E800A2
:1046B00025FF0BC040E050E066E070E00E9414254A
:1046C0008091E8008E778093E8000895CF93DF9380
:1046D00020912B01222339F02091D40227FF03C01F
:1046E00060E222E002C068E021E02093E9002FEFC1
:1046F0003091E800215035FD06C035ED3A95F1F7CF
:1047000000002111F5CF2091E80025FF1DC0EC012C
:1047100080912B01811105C040E050E068E070E01D
:1047200003C070E040E050E0CE010E94142580916B
:10473000E8008E778093E80080E2FE01A0E9B2E015
:1047400001900D928A95E1F7DF91CF9108958091C4
:10475000D902811109C00E94A9260E9406278091D2
:10476000E20084608093E20008951092D9020895D7
:10477000089508950C94911F42E061EC81E00E943D
:10478000232642E261EC82E00C9423268091DC0235
:10479000833009F460C030F4813071F0823009F464
:1047A00099C008958A3009F485C08B3009F46BC034
:1047B000893009F0A7C020C08091DB02813A09F05E
:1047C000A1C08091E800877F8093E8008091DF029C
:1047D0009091E002892B21F460E280E992E003C02D
:1047E00060E080E090E070E00E945F258091E8004A
:1047F0008B778093E80008958091DB02813209F085
:1048000081C08091DF029091E002029708F07AC0A7
:104810008091E800877F8093E8008091E80082FD26
:1048200005C08091DA028111F8CF6CC02091F300AD
:104830008091F20090E0922B029729F48091F10090
:104840008B7F813021F48091F1008093B0028091C0
:10485000E8008B7753C08091DB02813A09F052C0A7
:104860008091DF029091E002892B09F04BC080918A
:10487000E800877F8093E8008091E80080FFFCCF0C
:1048800080912B0136C08091DB028132D9F5809175
:10489000DF029091E002892BA9F58091E800877FE3
:1048A0008093E8000E9458268091DD0280932B01BE
:1048B0000C94A5178091DB02813221F58091E800EC
:1048C000877F8093E8000E9458268091DE028093C3
:1048D000B10208958091DB02813AA1F48091E80051
:1048E000877F8093E8008091E80080FFFCCF809173
:1048F000B1028093F1008091E8008E778093E80008
:104900000C945826089584B7877F84BF0FB6F89417
:10491000A89580916000886180936000109260008B
:104920000FBE90E080E80FB6F894809361009093FA
:1049300061000FBE0E9476130E94A9260E940627DE
:104940008091E20084608093E20078940E9495292F
:104950000E94801381E291E00E9404130E948A1356
:10496000FDCF0C94B324292F332723303105C9F010
:1049700064F42130310581F02230310509F04CC05A
:104980008BE390E02CEA35E04BC02132310521F178
:104990002232310589F140C082E190E027EE35E016
:1049A0003FC099278130910571F02CF4892BA1F536
:1049B000E8EAF5E00DC08230910541F0039761F51A
:1049C000ECE6F5E005C0E4E8F5E002C0E2E7F5E07A
:1049D000849190E09F0124C06115710541F0613020
:1049E0007105D1F489E090E027ED35E019C089E048
:1049F00090E02EEB35E014C06115710541F0613097
:104A0000710551F48CEB90E029EF35E009C080E4AA
:104A100090E025EB36E004C080E090E020E030E05C
:104A2000FA01318320830895CF92DF92EF92FF92B3
:104A30000F931F93CF93DF93EC018B016A010E94C8
:104A40007726811133C0C114D10439F0F601808179
:104A50009181081B190BC80FD91FE12CF12C0115EE
:104A6000110519F18091E80085FD16C08091E800DC
:104A70008E778093E800C114D10449F0F60180815B
:104A80009181E80EF91EF182E08285E00FC00E945C
:104A90007726882321F30AC089918093F100015081
:104AA0001109FFEFEF1AFF0ADACF80E0DF91CF9113
:104AB0001F910F91FF90EF90DF90CF90089520917C
:104AC000E1023091E2022617370748F061157105BF
:104AD00039F42091E8002E772093E80001C0B90155
:104AE00040E061157105A9F12091DA02222309F451
:104AF00043C0253009F442C02091E80023FD40C0A6
:104B00002091E80022FD32C02091E80020FFE9CF8B
:104B10004091F3002091F20030E0342BFC01CF01F2
:104B20006115710559F02830310540F48191809369
:104B3000F100615071092F5F3F4FF1CF41E0283004
:104B4000310509F040E02091E8002E772093E8003D
:104B5000C8CF4111C9CF0AC08091DA02882361F021
:104B6000853061F08091E80083FD0AC08091E80003
:104B700082FFF2CF80E0089582E0089583E00895F7
:104B800081E008952091E1023091E2022617370773
:104B900048F06115710539F42091E8002E772093D3
:104BA000E80001C0B901FC0120E06115710591F137
:104BB0008091DA02882309F440C0853009F43FC0AF
:104BC0008091E80083FD3DC08091E80082FD2FC008
:104BD0008091E80080FFE9CF2091F3008091F200FE
:104BE00090E0922B6115710559F08830910540F4E1
:104BF00024912093F1003196615071090196F2CF12
:104C000021E0089709F020E08091E8008E778093FA
:104C1000E800CBCF2111CCCF0AC08091DA028823E3
:104C200061F0853061F08091E80083FD0AC08091D9
:104C3000E80082FFF2CF80E0089582E0089583E0EB
:104C4000089581E00895982F973058F59093E900E2
:104C5000981739F07091EC002091ED005091F00020
:104C600003C0242F762F50E021FF19C03091EB00B4
:104C70003E7F3093EB003091ED003D7F3093ED00AF
:104C80003091EB0031603093EB007093EC00209397
:104C9000ED005093F0002091EE0027FF07C09F5FCA
:104CA000D3CF8F708093E90081E0089580E008956C
:104CB0008091DB0287FF11C08091E80082FD05C072
:104CC0008091DA028111F8CF11C08091E8008B77D2
:104CD0000BC08091DA02882349F08091E80080FFC0
:104CE000F8CF8091E8008E778093E80008952091B6
:104CF000E4003091E50095E64091EC00842F81704E
:104D000040FF22C08091E80080FD1CC08091DA0243
:104D1000882391F0853091F08091EB0085FD10C0E3
:104D20004091E4005091E5004217530729F39A019E
:104D3000915011F784E0089582E0089583E008958A
:104D400081E0089580E008954091E80042FFDECFC1
:104D500008950E9417270E941F27E0EEF0E080814F
:104D600081608083E8EDF0E080818F77808319BCDB
:104D7000A7EDB0E08C918E7F8C9380818F7E8083B5
:104D80001092D90208950F931F93CF93DF930E943F
:104D900017270E941F27C8EDD0E088818F7788836E
:104DA00088818068888388818F7D888319BC109270
:104DB000DA021092D6021092D8021092D70200EEB8
:104DC00010E0F80180818B7F8083888181608883F7
:104DD00042E060E080E00E942326E1EEF0E0808186
:104DE0008E7F8083E2EEF0E080818160808380812D
:104DF00088608083F80180818E7F808388818061D4
:104E00008883DF91CF911F910F910895E8EDF0E035
:104E100080818F7E8083E7EDF0E0808181608083F8
:104E200084E082BF81E08093D9020C94C326E8ED30
:104E3000F0E080818E7F80831092E20008951092CE
:104E4000DA001092E10008951F920F920FB60F92B0
:104E500011242F933F934F935F936F937F938F937F
:104E60009F93AF93BF93EF93FF938091E10082FFF5
:104E70000BC08091E20082FF07C08091E1008B7F30
:104E80008093E1000E9494298091DA0080FF1FC086
:104E90008091D80080FF1BC08091DA008E7F8093C4
:104EA000DA008091D90080FF0DC080E189BD82E1E8
:104EB00089BD09B400FEFDCF81E08093DA020E9433
:104EC000A72305C019BC1092DA020E94B523809175
:104ED000E10080FF19C08091E20080FF15C0809141
:104EE000E2008E7F8093E2008091E20080618093F7
:104EF000E2008091D80080628093D80019BC85E0E0
:104F00008093DA020E94B9238091E10084FF30C0CF
:104F10008091E20084FF2CC080E189BD82E189BDDF
:104F200009B400FEFDCF8091D8008F7D8093D8001A
:104F30008091E1008F7E8093E1008091E2008F7E7E
:104F40008093E2008091E20081608093E200809192
:104F5000D602882311F084E007C08091E30087FD2A
:104F600002C081E001C083E08093DA020E94BA238C
:104F70008091E10083FF29C08091E20083FF25C07A
:104F80008091E100877F8093E10082E08093DA02E4
:104F90001092D6028091E1008E7F8093E100809193
:104FA000E2008E7F8093E2008091E2008061809336
:104FB000E20042E060E080E00E9423268091F00061
:104FC00088608093F0000E94B823FF91EF91BF9119
:104FD000AF919F918F917F916F915F914F913F9191
:104FE0002F910F900FBE0F901F9018951F920F9248
:104FF0000FB60F9211242F933F934F935F936F93AC
:105000007F938F939F93AF93BF93CF93DF93EF9350
:10501000FF93C091E900CF708091EC00D82FD17040
:1050200080FDD0E81092E9008091F000877F8093A6
:10503000F00078940E943A281092E9008091F000E4
:1050400088608093F000CD2BCF70C093E900FF9172
:10505000EF91DF91CF91BF91AF919F918F917F9110
:105060006F915F914F913F912F910F900FBE0F90D5
:105070001F9018951F93CF93DF93CDB7DEB7AA97F4
:105080000FB6F894DEBF0FBECDBFEBEDF2E088E0C7
:105090008E0F9091F10091938E13FBCF0E94C62347
:1050A0008091E80083FF28C18091DB029091DC02AF
:1050B000492F50E04A30510508F01EC1FA01E85767
:1050C000FF4F0C94142A803821F0823809F014C163
:1050D00008C08091D7029091D802992389F082600C
:1050E0000FC08091DF028F70873008F005C1809378
:1050F000E9008091EB0085FB882780F91092E90098
:105100009091E800977F9093E8008093F1001092CF
:10511000F100D0C0282F2D7F09F0EEC0882319F0B0
:10512000823061F0E9C08091DD02813009F0E4C095
:10513000933009F080E08093D8022EC08091DD0288
:1051400081112AC08091DF028F702FEF280F263047
:1051500008F0D2C08093E9002091EB0020FF1CC032
:10516000933021F48091EB00806214C09091EB00A9
:1051700090619093EB0021E030E0A90102C0440F60
:10518000551F8A95E2F74093EA001092EA00809159
:10519000EB0088608093EB001092E9008091E800BA
:1051A000877F8093E8000E945826A6C08111A4C082
:1051B0001091DD021F778091E3008078812B80932E
:1051C000E3008091E800877F8093E8000E945826E2
:1051D0008091E80080FFFCCF8091E300806880939D
:1051E000E300111102C082E001C083E08093DA0283
:1051F00083C08058823008F07FC08091DD0290919A
:10520000DE028C3D53E0950779F583E08A838AE2DC
:1052100089834FB7F894DE01139620E03EE051E217
:10522000E32FF0E050935700E49120FF03C0E29594
:10523000EF703F5FEF708E2F90E0EA3010F0C7966E
:1052400001C0C0968D939D932F5F243149F74FBFC6
:105250008091E800877F8093E8006AE270E0CE01E9
:1052600001960E945F2515C06091DF027091E002F7
:10527000AE014F5F5F4F0E94B124BC01892BE1F169
:105280009091E800977F9093E80089819A810E942D
:10529000C2258091E8008B778093E8002DC080388C
:1052A00059F58091E800877F8093E8008091D602CD
:1052B0008093F1008091E8008E7773CF81111CC03C
:1052C0009091DD029230C0F48091E800877F809356
:1052D000E8009093D6020E9458268091D602811150
:1052E00006C08091E30087FD02C081E001C084E038
:1052F0008093DA020E94BC238091E80083FF0AC0F9
:105300008091E800877F8093E8008091EB008062C5
:105310008093EB00AA960FB6F894DEBF0FBECDBF08
:10532000DF91CF911F9108950895CF938091DA0274
:105330008823A1F0C091E900CF709091EC00892FF3
:10534000817090FD80E8C82B1092E9008091E80000
:1053500083FD0E943A28CF70C093E900CF91089551
:10536000991B79E004C0991F961708F0961B881FB7
:105370007A95C9F78095089587FB082E062687FD44
:10538000819567FD61950E94B0290EF4919507FC07
:1053900081950895AA1BBB1B51E107C0AA1FBB1F23
:1053A000A617B70710F0A61BB70B881F991F5A95B1
:1053B000A9F780959095BC01CD01089597FB072E24
:1053C00016F4009407D077FD09D00E94CA2907FC83
:1053D00005D03EF4909581959F4F08957095619505
:1053E0007F4F0895A1E21A2EAA1BBB1BFD010DC021
:1053F000AA1FBB1FEE1FFF1FA217B307E407F50785
:1054000020F0A21BB30BE40BF50B661F771F881F60
:10541000991F1A9469F760957095809590959B01F6
:10542000AC01BD01CF010895EE0FFF1F0590F4916F
:10543000E02D09940E94222A332312F48A1B9B0B2D
:105440000C94332AA29FB001B39FC001A39F700D9B
:10545000811D1124911DB29F700D811D1124911D7C
:1054600008950E94222AB7FF0895821B930B089586
:105470000E94222AA59F900DB49F900DA49F800D9D
:10548000911D11240895B7FF0C94382A0E94382AE0
:10549000821B930B08958F929F92AF92BF92CF92EF
:1054A000DF92EF92FF92CF93DF93EC0168817981D5
:1054B0008A819B81611571058105910521F464E262
:1054C00079ED8BE597E02DE133EF41E050E00E946C
:1054D000FC2A49015A019B01AC01A7EAB1E40E94F0
:1054E000382A6B017C01ACEEB4EFA50194010E9457
:1054F000462ADC01CB018C0D9D1DAE1DBF1DB7FFE3
:1055000003C00197A109B04888839983AA83BB830C
:105510009F77DF91CF91FF90EF90DF90CF90BF907A
:10552000AF909F908F9008950E944B2A089580E03D
:1055300091E00E944B2A0895A0E0B0E08093000122
:1055400090930101A0930201B09303010895FC011F
:105550004150504030F001900616D1F73197CF01FD
:105560000895882799270895F999FECF92BD81BDA6
:10557000F89A992780B50895A6E1B0E044E050E09C
:105580000C94EE2AA8E1B0E042E050E00C94EE2A40
:10559000262FF999FECF92BD81BDF89A019700B4EC
:1055A000021639F01FBA20BD0FB6F894FA9AF99A8C
:1055B0000FBE08950396272F0E94C92A0E94C82A69
:1055C000252F0E94C92A242F0C94C92A0196272F1F
:1055D0000E94C92A0C94C82ADC01CB01FC01F9996C
:1055E000FECF06C0F2BDE1BDF89A319600B40D922F
:1055F00041505040B8F70895052E97FB1EF40094D3
:105600000E94132B57FD07D00E94F22907FC03D0FC
:105610004EF40C94132B50954095309521953F4FA7
:105620004F4F5F4F089590958095709561957F4F8E
:0A5630008F4F9F4F0895F894FFCFAD
:10563A0001000000010102000300030301191A1B03
:10564A001C1D1E1F2021225C022808641E140A3217
:10565A001E09236623472343233F230192939596EA
:10566A003436F6F5F4F1F0339735F794E200E900B1
:10567A00EA00B500B600B700CD008301CC008A016C
:10568A009201940121022302240225022602270202
:10569A002A02B300B4006F00700081828300010205
:1056AA000202020606060909090909090F0F0F0F66
:1056BA000F0F151515181919191919191919191971
:1056CA002324252525252525E200E900EA00B50041
:1056DA00B600B700CD008301CC008A019201940183
:1056EA002102230224022502260227022A02B300EB
:0A56FA00B4006F007000818283008D
:00000001FF
